{
	"data": {
		"bytecode": {
			"linkReferences": {},
			"object": "60806040526001805460ff60a01b191690556000600381905560045534801561002757600080fd5b50615b1780620000386000396000f3fe608060405234801561001057600080fd5b50600436106104725760003560e01c806381d11eaf11610250578063b981cdf311610150578063d4b14944116100c8578063e90b245411610097578063f14698de1161007c578063f14698de14610a60578063f774110314610a68578063fcb6f00814610a7057610472565b8063e90b245414610a50578063ee6822a714610a5857610472565b8063d4b14944146109e7578063d5d3b26c14610a0d578063d98f249514610a40578063da3ed41914610a4857610472565b8063c5967c261161011f578063c8412d0211610104578063c8412d02146109ba578063c8f987f3146109c2578063cecce38e146109ca57610472565b8063c5967c26146109aa578063c5cc772d146109b257610472565b8063b981cdf314610936578063bcc81f191461093e578063be266d5414610985578063c040f23a146109a257610472565b806395b6ef0c116101e3578063a204452b116101b2578063b3ab15fb11610197578063b3ab15fb146108f3578063b4d1d79514610926578063b8a878f91461092e57610472565b8063a204452b146108ce578063b3406cfc146108eb57610472565b806395b6ef0c1461081e57806398b762a1146108775780639982002514610894578063a0487eea146108b157610472565b8063900cf0cf1161021f578063900cf0cf1461078a57806391bbfed514610792578063940e6064146107b5578063951357d4146107db57610472565b806381d11eaf14610755578063874106cc1461075d5780638c664db6146107655780638d934f741461078257610472565b806340af7ba51161037657806359bf5d39116102ee57806363f96cf4116102bd578063734f7096116102a2578063734f7096146106f757806375be5ae11461071a57806378e979251461074d57610472565b806363f96cf4146106e757806372c054f9146106ef57610472565b806359bf5d391461069c5780635a0fc79c146106a45780635b756179146106ac57806362ac58e4146106b457610472565b806354575af41161034557806355ebdeef1161032a57806355ebdeef1461066f578063570ca73514610677578063591663e11461067f57610472565b806354575af41461060957806354f04a111461064c57610472565b806340af7ba5146105965780634294cf8e146105b35780634390d2a8146105bb578063499f3f19146105ec57610472565b8063154ec2db1161040957806329ef1919116103d8578063392e53cd116103bd578063392e53cd146105695780633ed9ae25146105715780634013a08e1461058e57610472565b806329ef1919146105595780632e9c7b651461056157610472565b8063154ec2db14610510578063158ef93e1461052d57806319a983491461054957806322f832cd1461055157610472565b80630cac939c116104455780630cac939c146104d55780630cf60175146104dd5780630db7eb0b146104e5578063118ebbf9146104ed57610472565b806303be7e761461047757806304e5c7b11461049157806309bb4f92146104b05780630b5bcec7146104b8575b600080fd5b61047f610a78565b60408051918252519081900360200190f35b6104ae600480360360208110156104a757600080fd5b5035610a7e565b005b61047f610ba8565b6104ae600480360360208110156104ce57600080fd5b5035610cc3565b61047f610da0565b61047f610f52565b61047f610ffd565b6104ae6004803603604081101561050357600080fd5b508035906020013561109f565b6104ae6004803603602081101561052657600080fd5b503561192d565b610535611a13565b604080519115158252519081900360200190f35b61047f611a34565b61047f611a3a565b61047f611a40565b61047f611a46565b610535611a4c565b6104ae6004803603602081101561058757600080fd5b5035611a6d565b61047f611b79565b6104ae600480360360208110156105ac57600080fd5b5035611b7f565b61047f611c65565b6105c3611c6b565b6040805173ffffffffffffffffffffffffffffffffffffffff9092168252519081900360200190f35b6104ae6004803603602081101561060257600080fd5b5035611c87565b6104ae6004803603606081101561061f57600080fd5b5073ffffffffffffffffffffffffffffffffffffffff813581169160208101359160409091013516611d65565b6104ae6004803603604081101561066257600080fd5b5080359060200135611f9d565b61047f6129d1565b6105c36129d7565b6104ae6004803603602081101561069557600080fd5b50356129f3565b61047f612ae7565b61047f612aed565b6104ae612af3565b6104ae600480360360208110156106ca57600080fd5b503573ffffffffffffffffffffffffffffffffffffffff16613480565b6105c361357f565b61047f61359b565b6104ae6004803603604081101561070d57600080fd5b5080359060200135613681565b6104ae6004803603602081101561073057600080fd5b503573ffffffffffffffffffffffffffffffffffffffff16613787565b61047f61383e565b61047f613844565b61047f61384a565b6104ae6004803603602081101561077b57600080fd5b5035613850565b6105c3613944565b61047f613960565b6104ae600480360360408110156107a857600080fd5b5080359060200135613966565b610535600480360360408110156107cb57600080fd5b5060ff8135169060200135613ab9565b6104ae600480360360608110156107f157600080fd5b5073ffffffffffffffffffffffffffffffffffffffff813581169160208101359160409091013516613c16565b6104ae600480360360c081101561083457600080fd5b5073ffffffffffffffffffffffffffffffffffffffff81358116916020810135821691604082013581169160608101358216916080820135169060a00135613d26565b6104ae6004803603602081101561088d57600080fd5b50356140cd565b61047f600480360360208110156108aa57600080fd5b5035614142565b61047f600480360360208110156108c757600080fd5b5035614160565b6104ae600480360360208110156108e457600080fd5b503561416d565b61047f6141e2565b6104ae6004803603602081101561090957600080fd5b503573ffffffffffffffffffffffffffffffffffffffff166141e8565b61047f61429f565b61047f6142a5565b6105c36142ab565b6104ae6004803603608081101561095457600080fd5b5073ffffffffffffffffffffffffffffffffffffffff813581169160208101359160408201351690606001356142c7565b6104ae6004803603602081101561099b57600080fd5b503561457e565b6105c3614661565b61047f61467d565b61047f6146a7565b61047f61472f565b61047f614735565b6104ae600480360360208110156109e057600080fd5b503561473b565b610535600480360360408110156109fd57600080fd5b5060ff813516906020013561482e565b6104ae60048036036020811015610a2357600080fd5b503573ffffffffffffffffffffffffffffffffffffffff1661498c565b61047f614a43565b61047f614a49565b61047f614a4f565b6105c3614a55565b61047f614a71565b6105c3614a77565b61047f614a93565b60205481565b60015473ffffffffffffffffffffffffffffffffffffffff163314610aee576040517f08c379a00000000000000000000000000000000000000000000000000000000081526004018080602001828103825260248152602001806159ae6024913960400191505060405180910390fd5b600b54811015610b49576040517f08c379a000000000000000000000000000000000000000000000000000000000815260040180806020018281038252602a81526020018061580c602a913960400191505060405180910390fd5b6096811115610ba3576040517f08c379a000000000000000000000000000000000000000000000000000000000815260040180806020018281038252602481526020018061589a6024913960400191505060405180910390fd5b601a55565b600954600554604080517f3ddac95300000000000000000000000000000000000000000000000000000000815273ffffffffffffffffffffffffffffffffffffffff9283166004820152670de0b6b3a7640000602482015290516000939290921691633ddac95391604480820192602092909190829003018186803b158015610c3057600080fd5b505afa925050508015610c5557506040513d6020811015610c5057600080fd5b505160015b610caa576040517f08c379a00000000000000000000000000000000000000000000000000000000081526004018080602001828103825260368152602001806158646036913960400191505060405180910390fd5b71ffffffffffffffffffffffffffffffffffff16905090565b60015473ffffffffffffffffffffffffffffffffffffffff163314610d33576040517f08c379a00000000000000000000000000000000000000000000000000000000081526004018080602001828103825260248152602001806159ae6024913960400191505060405180910390fd5b600a8110158015610d4657506103e88111155b610d9b576040517f08c379a000000000000000000000000000000000000000000000000000000000815260040180806020018281038252602881526020018061595d6028913960400191505060405180910390fd5b600f55565b600080610dab610ba8565b9050600a548111610f4e57600554604080517f18160ddd000000000000000000000000000000000000000000000000000000008152905160009273ffffffffffffffffffffffffffffffffffffffff16916318160ddd916004808301926020929190829003018186803b158015610e2157600080fd5b505afa158015610e35573d6000803e3d6000fd5b505050506040513d6020811015610e4b57600080fd5b5051601354909150600090610e6f9061271090610e69908590614a99565b90614b13565b90506000600660009054906101000a900473ffffffffffffffffffffffffffffffffffffffff1673ffffffffffffffffffffffffffffffffffffffff166318160ddd6040518163ffffffff1660e01b815260040160206040518083038186803b158015610edb57600080fd5b505afa158015610eef573d6000803e3d6000fd5b505050506040513d6020811015610f0557600080fd5b5051905080821115610f4a576000610f1d8383614b55565b90506000610f37670de0b6b3a7640000610e698489614a99565b9050610f4560045482614b97565b965050505b5050505b5090565b600080610f5d610ba8565b9050600a548111610f4e57601954610f7957600a549150610f4e565b6000610f9c82610e69670de0b6b3a7640000600a54614a9990919063ffffffff16565b90506000610fc7612710610e69601954610fc1600a5487614b5590919063ffffffff16565b90614a99565b600a54909150610fd79082614bad565b93506000601754118015610fec575060175484115b15610ff75760175493505b50505090565b600080611008610ba8565b9050600b54811115610f4e5760006110326064610e69601a54600a54614a9990919063ffffffff16565b905080821061109457600061105e612710610e69601b54610fc1600a5488614b5590919063ffffffff16565b600a5490915061106e9082614bad565b93506000601854118015611083575060185484115b1561108e5760185493505b5061109a565b600a5492505b505090565b6110a7614c21565b156110fd576040517f08c379a00000000000000000000000000000000000000000000000000000000081526004018080602001828103825260268152602001806159fc6026913960400191505060405180910390fd5b611105614c40565b1561115b576040517f08c379a00000000000000000000000000000000000000000000000000000000081526004018080602001828103825260268152602001806159fc6026913960400191505060405180910390fd5b6002544210156111cc57604080517f08c379a000000000000000000000000000000000000000000000000000000000815260206004820152601960248201527f54726561737572793a206e6f7420737461727465642079657400000000000000604482015290519081900360640190fd5b600554604080517f570ca7350000000000000000000000000000000000000000000000000000000081529051309273ffffffffffffffffffffffffffffffffffffffff169163570ca735916004808301926020929190829003018186803b15801561123657600080fd5b505afa15801561124a573d6000803e3d6000fd5b505050506040513d602081101561126057600080fd5b505173ffffffffffffffffffffffffffffffffffffffff1614801561132e5750600654604080517f570ca7350000000000000000000000000000000000000000000000000000000081529051309273ffffffffffffffffffffffffffffffffffffffff169163570ca735916004808301926020929190829003018186803b1580156112ea57600080fd5b505afa1580156112fe573d6000803e3d6000fd5b505050506040513d602081101561131457600080fd5b505173ffffffffffffffffffffffffffffffffffffffff16145b80156113e35750600754604080517f570ca7350000000000000000000000000000000000000000000000000000000081529051309273ffffffffffffffffffffffffffffffffffffffff169163570ca735916004808301926020929190829003018186803b15801561139f57600080fd5b505afa1580156113b3573d6000803e3d6000fd5b505050506040513d60208110156113c957600080fd5b505173ffffffffffffffffffffffffffffffffffffffff16145b80156114985750600854604080517f570ca7350000000000000000000000000000000000000000000000000000000081529051309273ffffffffffffffffffffffffffffffffffffffff169163570ca735916004808301926020929190829003018186803b15801561145457600080fd5b505afa158015611468573d6000803e3d6000fd5b505050506040513d602081101561147e57600080fd5b505173ffffffffffffffffffffffffffffffffffffffff16145b61150357604080517f08c379a000000000000000000000000000000000000000000000000000000000815260206004820152601e60248201527f54726561737572793a206e656564206d6f7265207065726d697373696f6e0000604482015290519081900360640190fd5b6000821161155c576040517f08c379a000000000000000000000000000000000000000000000000000000000815260040180806020018281038252602e815260200180615836602e913960400191505060405180910390fd5b6000611566610ba8565b90508181146115d657604080517f08c379a000000000000000000000000000000000000000000000000000000000815260206004820152601a60248201527f54726561737572793a20544f4d42207072696365206d6f766564000000000000604482015290519081900360640190fd5b600b548111611630576040517f08c379a0000000000000000000000000000000000000000000000000000000008152600401808060200182810382526032815260200180615a586032913960400191505060405180910390fd5b600061163a610ffd565b9050600081116116ab57604080517f08c379a000000000000000000000000000000000000000000000000000000000815260206004820152601b60248201527f54726561737572793a20696e76616c696420626f6e6420726174650000000000604482015290519081900360640190fd5b60006116c3670de0b6b3a7640000610e698785614a99565b600554604080517f70a082310000000000000000000000000000000000000000000000000000000081523060048201529051929350839273ffffffffffffffffffffffffffffffffffffffff909216916370a0823191602480820192602092909190829003018186803b15801561173957600080fd5b505afa15801561174d573d6000803e3d6000fd5b505050506040513d602081101561176357600080fd5b505110156117bc576040517f08c379a00000000000000000000000000000000000000000000000000000000081526004018080602001828103825260258152602001806158be6025913960400191505060405180910390fd5b6117d46117cb600c5483614b97565b600c5490614b55565b600c55600654604080517f79cc679000000000000000000000000000000000000000000000000000000000815233600482015260248101889052905173ffffffffffffffffffffffffffffffffffffffff909216916379cc67909160448082019260009290919082900301818387803b15801561185057600080fd5b505af1158015611864573d6000803e3d6000fd5b505060055461188d925073ffffffffffffffffffffffffffffffffffffffff1690503383614c5f565b611895614cec565b6040805182815260208101879052815133927f51e0d16595cabc591e64da08e45bb223577e5b9a39cd947b4ddc3472b2dd8878928290030190a2505043600090815260208181526040808320328452909152808220805460017fffffffffffffffffffffffffffffffffffffffffffffffffffffffffffffff0091821681179092553384529190922080549091169091179055505050565b60015473ffffffffffffffffffffffffffffffffffffffff16331461199d576040517f08c379a00000000000000000000000000000000000000000000000000000000081526004018080602001828103825260248152602001806159ae6024913960400191505060405180910390fd5b614e20811115611a0e57604080517f08c379a000000000000000000000000000000000000000000000000000000000815260206004820152601d60248201527f5f646973636f756e7450657263656e74206973206f7665722032303025000000604482015290519081900360640190fd5b601955565b60015474010000000000000000000000000000000000000000900460ff1681565b600b5481565b60115481565b60195481565b60185481565b60015474010000000000000000000000000000000000000000900460ff1690565b60015473ffffffffffffffffffffffffffffffffffffffff163314611add576040517f08c379a00000000000000000000000000000000000000000000000000000000081526004018080602001828103825260248152602001806159ae6024913960400191505060405180910390fd5b600a548110158015611b095750611b056064610e696078600a54614a9990919063ffffffff16565b8111155b611b7457604080517f08c379a000000000000000000000000000000000000000000000000000000000815260206004820152600c60248201527f6f7574206f662072616e67650000000000000000000000000000000000000000604482015290519081900360640190fd5b600b55565b601c5481565b60015473ffffffffffffffffffffffffffffffffffffffff163314611bef576040517f08c379a00000000000000000000000000000000000000000000000000000000081526004018080602001828103825260248152602001806159ae6024913960400191505060405180910390fd5b614e20811115611c6057604080517f08c379a000000000000000000000000000000000000000000000000000000000815260206004820152601c60248201527f5f7072656d69756d50657263656e74206973206f766572203230302500000000604482015290519081900360640190fd5b601b55565b600a5481565b601f5473ffffffffffffffffffffffffffffffffffffffff1681565b60015473ffffffffffffffffffffffffffffffffffffffff163314611cf7576040517f08c379a00000000000000000000000000000000000000000000000000000000081526004018080602001828103825260248152602001806159ae6024913960400191505060405180910390fd5b6127108110158015611d0b5750614e208111155b611d60576040517f08c379a00000000000000000000000000000000000000000000000000000000081526004018080602001828103825260298152602001806159346029913960400191505060405180910390fd5b601c55565b60015473ffffffffffffffffffffffffffffffffffffffff163314611dd5576040517f08c379a00000000000000000000000000000000000000000000000000000000081526004018080602001828103825260248152602001806159ae6024913960400191505060405180910390fd5b60055473ffffffffffffffffffffffffffffffffffffffff84811691161415611e6157604080517f08c379a0000000000000000000000000000000000000000000000000000000008152602060048083019190915260248201527f746f6d6200000000000000000000000000000000000000000000000000000000604482015290519081900360640190fd5b60065473ffffffffffffffffffffffffffffffffffffffff84811691161415611eed57604080517f08c379a0000000000000000000000000000000000000000000000000000000008152602060048083019190915260248201527f626f6e6400000000000000000000000000000000000000000000000000000000604482015290519081900360640190fd5b60075473ffffffffffffffffffffffffffffffffffffffff84811691161415611f7757604080517f08c379a000000000000000000000000000000000000000000000000000000000815260206004820152600560248201527f7368617265000000000000000000000000000000000000000000000000000000604482015290519081900360640190fd5b611f9873ffffffffffffffffffffffffffffffffffffffff84168284614c5f565b505050565b611fa5614c21565b15611ffb576040517f08c379a00000000000000000000000000000000000000000000000000000000081526004018080602001828103825260268152602001806159fc6026913960400191505060405180910390fd5b612003614c40565b15612059576040517f08c379a00000000000000000000000000000000000000000000000000000000081526004018080602001828103825260268152602001806159fc6026913960400191505060405180910390fd5b6002544210156120ca57604080517f08c379a000000000000000000000000000000000000000000000000000000000815260206004820152601960248201527f54726561737572793a206e6f7420737461727465642079657400000000000000604482015290519081900360640190fd5b600554604080517f570ca7350000000000000000000000000000000000000000000000000000000081529051309273ffffffffffffffffffffffffffffffffffffffff169163570ca735916004808301926020929190829003018186803b15801561213457600080fd5b505afa158015612148573d6000803e3d6000fd5b505050506040513d602081101561215e57600080fd5b505173ffffffffffffffffffffffffffffffffffffffff1614801561222c5750600654604080517f570ca7350000000000000000000000000000000000000000000000000000000081529051309273ffffffffffffffffffffffffffffffffffffffff169163570ca735916004808301926020929190829003018186803b1580156121e857600080fd5b505afa1580156121fc573d6000803e3d6000fd5b505050506040513d602081101561221257600080fd5b505173ffffffffffffffffffffffffffffffffffffffff16145b80156122e15750600754604080517f570ca7350000000000000000000000000000000000000000000000000000000081529051309273ffffffffffffffffffffffffffffffffffffffff169163570ca735916004808301926020929190829003018186803b15801561229d57600080fd5b505afa1580156122b1573d6000803e3d6000fd5b505050506040513d60208110156122c757600080fd5b505173ffffffffffffffffffffffffffffffffffffffff16145b80156123965750600854604080517f570ca7350000000000000000000000000000000000000000000000000000000081529051309273ffffffffffffffffffffffffffffffffffffffff169163570ca735916004808301926020929190829003018186803b15801561235257600080fd5b505afa158015612366573d6000803e3d6000fd5b505050506040513d602081101561237c57600080fd5b505173ffffffffffffffffffffffffffffffffffffffff16145b61240157604080517f08c379a000000000000000000000000000000000000000000000000000000000815260206004820152601e60248201527f54726561737572793a206e656564206d6f7265207065726d697373696f6e0000604482015290519081900360640190fd5b6000821161245a576040517f08c379a00000000000000000000000000000000000000000000000000000000081526004018080602001828103825260308152602001806159046030913960400191505060405180910390fd5b6000612464610ba8565b90508181146124d457604080517f08c379a000000000000000000000000000000000000000000000000000000000815260206004820152601a60248201527f54726561737572793a20544f4d42207072696365206d6f766564000000000000604482015290519081900360640190fd5b600a54811061252e576040517f08c379a0000000000000000000000000000000000000000000000000000000008152600401808060200182810382526032815260200180615a586032913960400191505060405180910390fd5b600454831115612589576040517f08c379a000000000000000000000000000000000000000000000000000000000815260040180806020018281038252602a815260200180615a8a602a913960400191505060405180910390fd5b6000612593610f52565b90506000811161260457604080517f08c379a000000000000000000000000000000000000000000000000000000000815260206004820152601b60248201527f54726561737572793a20696e76616c696420626f6e6420726174650000000000604482015290519081900360640190fd5b600061261c670de0b6b3a7640000610e698785614a99565b90506000600560009054906101000a900473ffffffffffffffffffffffffffffffffffffffff1673ffffffffffffffffffffffffffffffffffffffff166318160ddd6040518163ffffffff1660e01b815260040160206040518083038186803b15801561268857600080fd5b505afa15801561269c573d6000803e3d6000fd5b505050506040513d60208110156126b257600080fd5b5051600654604080517f18160ddd000000000000000000000000000000000000000000000000000000008152905192935060009261275d92869273ffffffffffffffffffffffffffffffffffffffff909116916318160ddd91600480820192602092909190829003018186803b15801561272b57600080fd5b505afa15801561273f573d6000803e3d6000fd5b505050506040513d602081101561275557600080fd5b505190614bad565b905061277a612710610e6960135485614a9990919063ffffffff16565b8111156127e857604080517f08c379a000000000000000000000000000000000000000000000000000000000815260206004820152601360248201527f6f766572206d6178206465627420726174696f00000000000000000000000000604482015290519081900360640190fd5b600554604080517f79cc6790000000000000000000000000000000000000000000000000000000008152336004820152602481018a9052905173ffffffffffffffffffffffffffffffffffffffff909216916379cc67909160448082019260009290919082900301818387803b15801561286157600080fd5b505af1158015612875573d6000803e3d6000fd5b5050600654604080517f40c10f1900000000000000000000000000000000000000000000000000000000815233600482015260248101889052905173ffffffffffffffffffffffffffffffffffffffff90921693506340c10f1992506044808201926020929091908290030181600087803b1580156128f357600080fd5b505af1158015612907573d6000803e3d6000fd5b505050506040513d602081101561291d57600080fd5b505060045461292c9088614b55565b600455612937614cec565b6040805188815260208101859052815133927f73017f1b70789e2e66759eeb3c7ec11f59e6eedb55d921cfaec5410dd42a4799928290030190a2505043600090815260208181526040808320328452909152808220805460017fffffffffffffffffffffffffffffffffffffffffffffffffffffffffffffff00918216811790925533845291909220805490911690911790555050505050565b601e5481565b60015473ffffffffffffffffffffffffffffffffffffffff1681565b60015473ffffffffffffffffffffffffffffffffffffffff163314612a63576040517f08c379a00000000000000000000000000000000000000000000000000000000081526004018080602001828103825260248152602001806159ae6024913960400191505060405180910390fd5b6103e88110158015612a7757506127108111155b612ae257604080517f08c379a000000000000000000000000000000000000000000000000000000000815260206004820152600c60248201527f6f7574206f662072616e67650000000000000000000000000000000000000000604482015290519081900360640190fd5b601355565b600c5490565b600c5481565b612afb614c21565b15612b51576040517f08c379a00000000000000000000000000000000000000000000000000000000081526004018080602001828103825260268152602001806159fc6026913960400191505060405180910390fd5b612b59614c40565b15612baf576040517f08c379a00000000000000000000000000000000000000000000000000000000081526004018080602001828103825260268152602001806159fc6026913960400191505060405180910390fd5b600254421015612c2057604080517f08c379a000000000000000000000000000000000000000000000000000000000815260206004820152601960248201527f54726561737572793a206e6f7420737461727465642079657400000000000000604482015290519081900360640190fd5b612c2861467d565b421015612c9657604080517f08c379a000000000000000000000000000000000000000000000000000000000815260206004820152601860248201527f54726561737572793a206e6f74206f70656e6564207965740000000000000000604482015290519081900360640190fd5b600554604080517f570ca7350000000000000000000000000000000000000000000000000000000081529051309273ffffffffffffffffffffffffffffffffffffffff169163570ca735916004808301926020929190829003018186803b158015612d0057600080fd5b505afa158015612d14573d6000803e3d6000fd5b505050506040513d6020811015612d2a57600080fd5b505173ffffffffffffffffffffffffffffffffffffffff16148015612df85750600654604080517f570ca7350000000000000000000000000000000000000000000000000000000081529051309273ffffffffffffffffffffffffffffffffffffffff169163570ca735916004808301926020929190829003018186803b158015612db457600080fd5b505afa158015612dc8573d6000803e3d6000fd5b505050506040513d6020811015612dde57600080fd5b505173ffffffffffffffffffffffffffffffffffffffff16145b8015612ead5750600754604080517f570ca7350000000000000000000000000000000000000000000000000000000081529051309273ffffffffffffffffffffffffffffffffffffffff169163570ca735916004808301926020929190829003018186803b158015612e6957600080fd5b505afa158015612e7d573d6000803e3d6000fd5b505050506040513d6020811015612e9357600080fd5b505173ffffffffffffffffffffffffffffffffffffffff16145b8015612f625750600854604080517f570ca7350000000000000000000000000000000000000000000000000000000081529051309273ffffffffffffffffffffffffffffffffffffffff169163570ca735916004808301926020929190829003018186803b158015612f1e57600080fd5b505afa158015612f32573d6000803e3d6000fd5b505050506040513d6020811015612f4857600080fd5b505173ffffffffffffffffffffffffffffffffffffffff16145b612fcd57604080517f08c379a000000000000000000000000000000000000000000000000000000000815260206004820152601e60248201527f54726561737572793a206e656564206d6f7265207065726d697373696f6e0000604482015290519081900360640190fd5b612fd5614cec565b612fdd610ba8565b6016819055506000613085600c54600560009054906101000a900473ffffffffffffffffffffffffffffffffffffffff1673ffffffffffffffffffffffffffffffffffffffff166318160ddd6040518163ffffffff1660e01b815260040160206040518083038186803b15801561305357600080fd5b505afa158015613067573d6000803e3d6000fd5b505050506040513d602081101561307d57600080fd5b505190614b55565b905060145460035410156130bb576130b66130b1612710610e6960155485614a9990919063ffffffff16565b614d6a565b613354565b600b54601654111561335457600654604080517f18160ddd000000000000000000000000000000000000000000000000000000008152905160009273ffffffffffffffffffffffffffffffffffffffff16916318160ddd916004808301926020929190829003018186803b15801561313257600080fd5b505afa158015613146573d6000803e3d6000fd5b505050506040513d602081101561315c57600080fd5b5051600a5460165491925060009161317391614b55565b9050600080600061318d655af3107a4000610fc188615165565b90508084111561319b578093505b6131b6612710610e6960105488614a9990919063ffffffff16565b600c54106131db576131d4670de0b6b3a7640000610e698887614a99565b9150613247565b60006131f3670de0b6b3a7640000610e698988614a99565b9050613210612710610e6960115484614a9990919063ffffffff16565b925061321c8184614b55565b601c549094501561324557613242612710610e69601c5487614a9990919063ffffffff16565b93505b505b81156132565761325682614d6a565b821561334e57600c546132699084614bad565b600c55600554604080517f40c10f1900000000000000000000000000000000000000000000000000000000815230600482015260248101869052905173ffffffffffffffffffffffffffffffffffffffff909216916340c10f19916044808201926020929091908290030181600087803b1580156132e657600080fd5b505af11580156132fa573d6000803e3d6000fd5b505050506040513d602081101561331057600080fd5b5050604080514281526020810185905281517ff705142bf09f04297640495ddf7c59b7fd6f51894c5aea9602d631cf05f0efc2929181900390910190a15b50505050505b50600354613363906001614bad565b600355600b54613371610ba8565b116134215761341c612710610e69601254600560009054906101000a900473ffffffffffffffffffffffffffffffffffffffff1673ffffffffffffffffffffffffffffffffffffffff166318160ddd6040518163ffffffff1660e01b815260040160206040518083038186803b1580156133ea57600080fd5b505afa1580156133fe573d6000803e3d6000fd5b505050506040513d602081101561341457600080fd5b505190614a99565b613424565b60005b60045543600090815260208181526040808320328452909152808220805460017fffffffffffffffffffffffffffffffffffffffffffffffffffffffffffffff0091821681179092553384529190922080549091169091179055565b60015473ffffffffffffffffffffffffffffffffffffffff1633146134f0576040517f08c379a00000000000000000000000000000000000000000000000000000000081526004018080602001828103825260248152602001806159ae6024913960400191505060405180910390fd5b600854604080517fb3ab15fb00000000000000000000000000000000000000000000000000000000815273ffffffffffffffffffffffffffffffffffffffff84811660048301529151919092169163b3ab15fb91602480830192600092919082900301818387803b15801561356457600080fd5b505af1158015613578573d6000803e3d6000fd5b5050505050565b60085473ffffffffffffffffffffffffffffffffffffffff1681565b6000806135a6610ba8565b9050600b54811115610f4e57600554604080517f70a08231000000000000000000000000000000000000000000000000000000008152306004820152905160009273ffffffffffffffffffffffffffffffffffffffff16916370a08231916024808301926020929190829003018186803b15801561362357600080fd5b505afa158015613637573d6000803e3d6000fd5b505050506040513d602081101561364d57600080fd5b50519050600061365b610ffd565b90508015610ff75761367981610e6984670de0b6b3a7640000614a99565b935050505090565b60015473ffffffffffffffffffffffffffffffffffffffff1633146136f1576040517f08c379a00000000000000000000000000000000000000000000000000000000081526004018080602001828103825260248152602001806159ae6024913960400191505060405180910390fd5b600854604080517f2ffaaa090000000000000000000000000000000000000000000000000000000081526004810185905260248101849052905173ffffffffffffffffffffffffffffffffffffffff90921691632ffaaa099160448082019260009290919082900301818387803b15801561376b57600080fd5b505af115801561377f573d6000803e3d6000fd5b505050505050565b60015473ffffffffffffffffffffffffffffffffffffffff1633146137f7576040517f08c379a00000000000000000000000000000000000000000000000000000000081526004018080602001828103825260248152602001806159ae6024913960400191505060405180910390fd5b600980547fffffffffffffffffffffffff00000000000000000000000000000000000000001673ffffffffffffffffffffffffffffffffffffffff92909216919091179055565b60025481565b60105481565b60155481565b60015473ffffffffffffffffffffffffffffffffffffffff1633146138c0576040517f08c379a00000000000000000000000000000000000000000000000000000000081526004018080602001828103825260248152602001806159ae6024913960400191505060405180910390fd5b6101f481101580156138d457506127108111155b61393f57604080517f08c379a000000000000000000000000000000000000000000000000000000000815260206004820152600c60248201527f6f7574206f662072616e67650000000000000000000000000000000000000000604482015290519081900360640190fd5b601055565b601d5473ffffffffffffffffffffffffffffffffffffffff1681565b60035481565b60015473ffffffffffffffffffffffffffffffffffffffff1633146139d6576040517f08c379a00000000000000000000000000000000000000000000000000000000081526004018080602001828103825260248152602001806159ae6024913960400191505060405180910390fd5b6078821115613a4657604080517f08c379a000000000000000000000000000000000000000000000000000000000815260206004820152601e60248201527f5f626f6f74737472617045706f6368733a206f7574206f662072616e67650000604482015290519081900360640190fd5b60648110158015613a5957506103e88111155b613aae576040517f08c379a000000000000000000000000000000000000000000000000000000000815260040180806020018281038252602e815260200180615ab4602e913960400191505060405180910390fd5b601491909155601555565b60015460009073ffffffffffffffffffffffffffffffffffffffff163314613b2c576040517f08c379a00000000000000000000000000000000000000000000000000000000081526004018080602001828103825260248152602001806159ae6024913960400191505060405180910390fd5b60098360ff1610613b88576040517f08c379a00000000000000000000000000000000000000000000000000000000081526004018080602001828103825260298152602001806159856029913960400191505060405180910390fd5b60ff831615613bba57600d6001840360ff1681548110613ba457fe5b90600052602060002001548211613bba57600080fd5b60088360ff161015613bef57600d8360010160ff1681548110613bd957fe5b90600052602060002001548210613bef57600080fd5b81600d8460ff1681548110613c0057fe5b6000918252602090912001555060015b92915050565b60015473ffffffffffffffffffffffffffffffffffffffff163314613c86576040517f08c379a00000000000000000000000000000000000000000000000000000000081526004018080602001828103825260248152602001806159ae6024913960400191505060405180910390fd5b600854604080517f54575af400000000000000000000000000000000000000000000000000000000815273ffffffffffffffffffffffffffffffffffffffff8681166004830152602482018690528481166044830152915191909216916354575af491606480830192600092919082900301818387803b158015613d0957600080fd5b505af1158015613d1d573d6000803e3d6000fd5b50505050505050565b60015474010000000000000000000000000000000000000000900460ff1615613db057604080517f08c379a000000000000000000000000000000000000000000000000000000000815260206004820152601d60248201527f54726561737572793a20616c726561647920696e697469616c697a6564000000604482015290519081900360640190fd5b600580547fffffffffffffffffffffffff000000000000000000000000000000000000000090811673ffffffffffffffffffffffffffffffffffffffff89811691909117909255600680548216888416179055600780548216878416179055600980548216868416179055600880549091169184169190911790556002819055670de0b6b3a7640000600a819055613e5090606490610e69906065614a99565b600b556040805161012081018252600081526969e10de76676d0800000602082015269d3c21bcecceda1000000918101919091526a013da329b633647180000060608201526a01a784379d99db4200000060808201526a0422ca8b0a00a42500000060a08201526a084595161401484a00000060c08201526a108b2a2c2802909400000060e08201526a295be96e64066972000000610100820152613ef990600d90600961575f565b5060408051610120810182526101c28152610190602082015261015e9181019190915261012c606082015260fa608082015260c860a0820152609660c0820152607d60e08201526064610100820152613f5690600e9060096157b5565b50610190600f55612710601055610dac601181905561012c601255601355606e601a55611b58601b55601c6014556101c2601555600554604080517f70a08231000000000000000000000000000000000000000000000000000000008152306004820152905173ffffffffffffffffffffffffffffffffffffffff909216916370a0823191602480820192602092909190829003018186803b158015613ffb57600080fd5b505afa15801561400f573d6000803e3d6000fd5b505050506040513d602081101561402557600080fd5b5051600c55600180547fffffffffffffffffffffffff00000000000000000000000000000000000000007fffffffffffffffffffffff00ffffffffffffffffffffffffffffffffffffffff909116740100000000000000000000000000000000000000001716339081179091556040805143815290517f25ff68dd81b34665b5ba7e553ee5511bf6812e12adb4a7e2c0d9e26b3099ce799181900360200190a2505050505050565b60015473ffffffffffffffffffffffffffffffffffffffff16331461413d576040517f08c379a00000000000000000000000000000000000000000000000000000000081526004018080602001828103825260248152602001806159ae6024913960400191505060405180910390fd5b601755565b600d818154811061414f57fe5b600091825260209091200154905081565b600e818154811061414f57fe5b60015473ffffffffffffffffffffffffffffffffffffffff1633146141dd576040517f08c379a00000000000000000000000000000000000000000000000000000000081526004018080602001828103825260248152602001806159ae6024913960400191505060405180910390fd5b601855565b60165481565b60015473ffffffffffffffffffffffffffffffffffffffff163314614258576040517f08c379a00000000000000000000000000000000000000000000000000000000081526004018080602001828103825260248152602001806159ae6024913960400191505060405180910390fd5b600180547fffffffffffffffffffffffff00000000000000000000000000000000000000001673ffffffffffffffffffffffffffffffffffffffff92909216919091179055565b61025881565b60175481565b60065473ffffffffffffffffffffffffffffffffffffffff1681565b60015473ffffffffffffffffffffffffffffffffffffffff163314614337576040517f08c379a00000000000000000000000000000000000000000000000000000000081526004018080602001828103825260248152602001806159ae6024913960400191505060405180910390fd5b73ffffffffffffffffffffffffffffffffffffffff84166143bb57604080517f08c379a0000000000000000000000000000000000000000000000000000000008152602060048083019190915260248201527f7a65726f00000000000000000000000000000000000000000000000000000000604482015290519081900360640190fd5b610bb883111561442c57604080517f08c379a000000000000000000000000000000000000000000000000000000000815260206004820152600c60248201527f6f7574206f662072616e67650000000000000000000000000000000000000000604482015290519081900360640190fd5b73ffffffffffffffffffffffffffffffffffffffff82166144b057604080517f08c379a0000000000000000000000000000000000000000000000000000000008152602060048083019190915260248201527f7a65726f00000000000000000000000000000000000000000000000000000000604482015290519081900360640190fd5b6103e881111561452157604080517f08c379a000000000000000000000000000000000000000000000000000000000815260206004820152600c60248201527f6f7574206f662072616e67650000000000000000000000000000000000000000604482015290519081900360640190fd5b601d80547fffffffffffffffffffffffff000000000000000000000000000000000000000090811673ffffffffffffffffffffffffffffffffffffffff96871617909155601e93909355601f805490931691909316179055602055565b60015473ffffffffffffffffffffffffffffffffffffffff1633146145ee576040517f08c379a00000000000000000000000000000000000000000000000000000000081526004018080602001828103825260248152602001806159ae6024913960400191505060405180910390fd5b600854604080517f97ffe1d700000000000000000000000000000000000000000000000000000000815260048101849052905173ffffffffffffffffffffffffffffffffffffffff909216916397ffe1d79160248082019260009290919082900301818387803b15801561356457600080fd5b60055473ffffffffffffffffffffffffffffffffffffffff1681565b60006146a2614699610258600354614a9990919063ffffffff16565b60025490614bad565b905090565b600954600554604080517f6808a12800000000000000000000000000000000000000000000000000000000815273ffffffffffffffffffffffffffffffffffffffff9283166004820152670de0b6b3a7640000602482015290516000939290921691636808a12891604480820192602092909190829003018186803b158015610c3057600080fd5b601b5481565b601a5481565b60015473ffffffffffffffffffffffffffffffffffffffff1633146147ab576040517f08c379a00000000000000000000000000000000000000000000000000000000081526004018080602001828103825260248152602001806159ae6024913960400191505060405180910390fd5b606481101580156147be57506105dc8111155b61482957604080517f08c379a000000000000000000000000000000000000000000000000000000000815260206004820152600c60248201527f6f7574206f662072616e67650000000000000000000000000000000000000000604482015290519081900360640190fd5b601255565b60015460009073ffffffffffffffffffffffffffffffffffffffff1633146148a1576040517f08c379a00000000000000000000000000000000000000000000000000000000081526004018080602001828103825260248152602001806159ae6024913960400191505060405180910390fd5b60098360ff16106148fd576040517f08c379a00000000000000000000000000000000000000000000000000000000081526004018080602001828103825260298152602001806159856029913960400191505060405180910390fd5b600a821015801561491057506103e88211155b61497b57604080517f08c379a000000000000000000000000000000000000000000000000000000000815260206004820152601460248201527f5f76616c75653a206f7574206f662072616e6765000000000000000000000000604482015290519081900360640190fd5b81600e8460ff1681548110613c0057fe5b60015473ffffffffffffffffffffffffffffffffffffffff1633146149fc576040517f08c379a00000000000000000000000000000000000000000000000000000000081526004018080602001828103825260248152602001806159ae6024913960400191505060405180910390fd5b600880547fffffffffffffffffffffffff00000000000000000000000000000000000000001673ffffffffffffffffffffffffffffffffffffffff92909216919091179055565b600f5481565b60135481565b60125481565b60075473ffffffffffffffffffffffffffffffffffffffff1681565b60145481565b60095473ffffffffffffffffffffffffffffffffffffffff1681565b60045481565b600082614aa857506000613c10565b82820282848281614ab557fe5b0414614b0c576040517f08c379a00000000000000000000000000000000000000000000000000000000081526004018080602001828103825260218152602001806158e36021913960400191505060405180910390fd5b9392505050565b6000614b0c83836040518060400160405280601a81526020017f536166654d6174683a206469766973696f6e206279207a65726f0000000000008152506151e0565b6000614b0c83836040518060400160405280601e81526020017f536166654d6174683a207375627472616374696f6e206f766572666c6f77000081525061529c565b6000818310614ba65781614b0c565b5090919050565b600082820183811015614b0c57604080517f08c379a000000000000000000000000000000000000000000000000000000000815260206004820152601b60248201527f536166654d6174683a206164646974696f6e206f766572666c6f770000000000604482015290519081900360640190fd5b4360009081526020818152604080832032845290915290205460ff1690565b4360009081526020818152604080832033845290915290205460ff1690565b6040805173ffffffffffffffffffffffffffffffffffffffff8416602482015260448082018490528251808303909101815260649091019091526020810180517bffffffffffffffffffffffffffffffffffffffffffffffffffffffff167fa9059cbb00000000000000000000000000000000000000000000000000000000179052611f98908490615310565b600960009054906101000a900473ffffffffffffffffffffffffffffffffffffffff1673ffffffffffffffffffffffffffffffffffffffff1663a2e620456040518163ffffffff1660e01b8152600401600060405180830381600087803b158015614d5657600080fd5b505af1925050508015614d67575060015b50565b600554604080517f40c10f1900000000000000000000000000000000000000000000000000000000815230600482015260248101849052905173ffffffffffffffffffffffffffffffffffffffff909216916340c10f19916044808201926020929091908290030181600087803b158015614de457600080fd5b505af1158015614df8573d6000803e3d6000fd5b505050506040513d6020811015614e0e57600080fd5b5050601e5460009015614f1f57614e36612710610e69601e5485614a9990919063ffffffff16565b600554601d54604080517fa9059cbb00000000000000000000000000000000000000000000000000000000815273ffffffffffffffffffffffffffffffffffffffff928316600482015260248101859052905193945091169163a9059cbb916044808201926020929091908290030181600087803b158015614eb757600080fd5b505af1158015614ecb573d6000803e3d6000fd5b505050506040513d6020811015614ee157600080fd5b5050604080514281526020810183905281517fcb3f34aaa3445b461e6da5492dc89e5c257a59fa598131f3b6bbc97a3638e409929181900390910190a15b6020546000901561502e57614f45612710610e6960205486614a9990919063ffffffff16565b600554601f54604080517fa9059cbb00000000000000000000000000000000000000000000000000000000815273ffffffffffffffffffffffffffffffffffffffff928316600482015260248101859052905193945091169163a9059cbb916044808201926020929091908290030181600087803b158015614fc657600080fd5b505af1158015614fda573d6000803e3d6000fd5b505050506040513d6020811015614ff057600080fd5b5050604080514281526020810183905281517fdc8b715b18523e58b7fd0da53259dfa91efd91df4a854d94b136e3333a3b9395929181900390910190a15b6150428161503c8585614b55565b90614b55565b6008546005549194506150709173ffffffffffffffffffffffffffffffffffffffff908116911660006153e8565b60085460055461509a9173ffffffffffffffffffffffffffffffffffffffff9182169116856153e8565b600854604080517f97ffe1d700000000000000000000000000000000000000000000000000000000815260048101869052905173ffffffffffffffffffffffffffffffffffffffff909216916397ffe1d79160248082019260009290919082900301818387803b15801561510d57600080fd5b505af1158015615121573d6000803e3d6000fd5b5050604080514281526020810187905281517fa72fa2f263b243b0f0e1fec5f3d49d33de573d15929b6b730c6b8ab3838c1c4d9450908190039091019150a1505050565b600060085b600d8160ff168154811061517a57fe5b906000526020600020015483106151af57600e8160ff168154811061519b57fe5b600091825260209091200154600f556151d6565b7fffffffffffffffffffffffffffffffffffffffffffffffffffffffffffffffff0161516a565b5050600f54919050565b60008183615286576040517f08c379a00000000000000000000000000000000000000000000000000000000081526004018080602001828103825283818151815260200191508051906020019080838360005b8381101561524b578181015183820152602001615233565b50505050905090810190601f1680156152785780820380516001836020036101000a031916815260200191505b509250505060405180910390fd5b50600083858161529257fe5b0495945050505050565b60008184841115615308576040517f08c379a000000000000000000000000000000000000000000000000000000000815260206004820181815283516024840152835190928392604490910191908501908083836000831561524b578181015183820152602001615233565b505050900390565b6060615372826040518060400160405280602081526020017f5361666545524332303a206c6f772d6c6576656c2063616c6c206661696c65648152508573ffffffffffffffffffffffffffffffffffffffff166155769092919063ffffffff16565b805190915015611f985780806020019051602081101561539157600080fd5b5051611f98576040517f08c379a000000000000000000000000000000000000000000000000000000000815260040180806020018281038252602a8152602001806159d2602a913960400191505060405180910390fd5b8015806154945750604080517fdd62ed3e00000000000000000000000000000000000000000000000000000000815230600482015273ffffffffffffffffffffffffffffffffffffffff848116602483015291519185169163dd62ed3e91604480820192602092909190829003018186803b15801561546657600080fd5b505afa15801561547a573d6000803e3d6000fd5b505050506040513d602081101561549057600080fd5b5051155b6154e9576040517f08c379a0000000000000000000000000000000000000000000000000000000008152600401808060200182810382526036815260200180615a226036913960400191505060405180910390fd5b6040805173ffffffffffffffffffffffffffffffffffffffff8416602482015260448082018490528251808303909101815260649091019091526020810180517bffffffffffffffffffffffffffffffffffffffffffffffffffffffff167f095ea7b300000000000000000000000000000000000000000000000000000000179052611f98908490615310565b6060615585848460008561558d565b949350505050565b606061559885615759565b61560357604080517f08c379a000000000000000000000000000000000000000000000000000000000815260206004820152601d60248201527f416464726573733a2063616c6c20746f206e6f6e2d636f6e7472616374000000604482015290519081900360640190fd5b600060608673ffffffffffffffffffffffffffffffffffffffff1685876040518082805190602001908083835b6020831061566d57805182527fffffffffffffffffffffffffffffffffffffffffffffffffffffffffffffffe09092019160209182019101615630565b6001836020036101000a03801982511681845116808217855250505050505090500191505060006040518083038185875af1925050503d80600081146156cf576040519150601f19603f3d011682016040523d82523d6000602084013e6156d4565b606091505b509150915081156156e85791506155859050565b8051156156f85780518082602001fd5b6040517f08c379a000000000000000000000000000000000000000000000000000000000815260206004820181815286516024840152865187939192839260440191908501908083836000831561524b578181015183820152602001615233565b3b151590565b8280548282559060005260206000209081019282156157a9579160200282015b828111156157a957825182906affffffffffffffffffffff1690559160200191906001019061577f565b50610f4e9291506157f6565b8280548282559060005260206000209081019282156157a9579160200282015b828111156157a9578251829061ffff169055916020019190600101906157d5565b5b80821115610f4e57600081556001016157f756fe5f7072656d69756d5468726573686f6c64206578636565647320746f6d6250726963654365696c696e6754726561737572793a2063616e6e6f742072656465656d20626f6e64732077697468207a65726f20616d6f756e7454726561737572793a206661696c656420746f20636f6e73756c7420544f4d422070726963652066726f6d20746865206f7261636c655f7072656d69756d5468726573686f6c6420697320686967686572207468616e20312e3554726561737572793a20747265617375727920686173206e6f206d6f726520627564676574536166654d6174683a206d756c7469706c69636174696f6e206f766572666c6f7754726561737572793a2063616e6e6f7420707572636861736520626f6e64732077697468207a65726f20616d6f756e745f6d696e74696e67466163746f72466f72506179696e67446562743a206f7574206f662072616e67655f6d6178537570706c79457870616e73696f6e50657263656e743a206f7574206f662072616e6765496e6465782068617320746f206265206c6f776572207468616e20636f756e74206f6620746965727354726561737572793a2063616c6c6572206973206e6f7420746865206f70657261746f725361666545524332303a204552433230206f7065726174696f6e20646964206e6f742073756363656564436f6e747261637447756172643a206f6e6520626c6f636b2c206f6e652066756e6374696f6e5361666545524332303a20617070726f76652066726f6d206e6f6e2d7a65726f20746f206e6f6e2d7a65726f20616c6c6f77616e636554726561737572793a20746f6d625072696365206e6f7420656c696769626c6520666f7220626f6e6420707572636861736554726561737572793a206e6f7420656e6f75676820626f6e64206c65667420746f2070757263686173655f626f6f747374726170537570706c79457870616e73696f6e50657263656e743a206f7574206f662072616e6765a26469706673582212208d2357739d0ecdc3b9fa4db4d68eb1bcff82a09c32d891851a38836e63a9908364736f6c634300060c0033",
			"opcodes": "PUSH1 0x80 PUSH1 0x40 MSTORE PUSH1 0x1 DUP1 SLOAD PUSH1 0xFF PUSH1 0xA0 SHL NOT AND SWAP1 SSTORE PUSH1 0x0 PUSH1 0x3 DUP2 SWAP1 SSTORE PUSH1 0x4 SSTORE CALLVALUE DUP1 ISZERO PUSH2 0x27 JUMPI PUSH1 0x0 DUP1 REVERT JUMPDEST POP PUSH2 0x5B17 DUP1 PUSH3 0x38 PUSH1 0x0 CODECOPY PUSH1 0x0 RETURN INVALID PUSH1 0x80 PUSH1 0x40 MSTORE CALLVALUE DUP1 ISZERO PUSH2 0x10 JUMPI PUSH1 0x0 DUP1 REVERT JUMPDEST POP PUSH1 0x4 CALLDATASIZE LT PUSH2 0x472 JUMPI PUSH1 0x0 CALLDATALOAD PUSH1 0xE0 SHR DUP1 PUSH4 0x81D11EAF GT PUSH2 0x250 JUMPI DUP1 PUSH4 0xB981CDF3 GT PUSH2 0x150 JUMPI DUP1 PUSH4 0xD4B14944 GT PUSH2 0xC8 JUMPI DUP1 PUSH4 0xE90B2454 GT PUSH2 0x97 JUMPI DUP1 PUSH4 0xF14698DE GT PUSH2 0x7C JUMPI DUP1 PUSH4 0xF14698DE EQ PUSH2 0xA60 JUMPI DUP1 PUSH4 0xF7741103 EQ PUSH2 0xA68 JUMPI DUP1 PUSH4 0xFCB6F008 EQ PUSH2 0xA70 JUMPI PUSH2 0x472 JUMP JUMPDEST DUP1 PUSH4 0xE90B2454 EQ PUSH2 0xA50 JUMPI DUP1 PUSH4 0xEE6822A7 EQ PUSH2 0xA58 JUMPI PUSH2 0x472 JUMP JUMPDEST DUP1 PUSH4 0xD4B14944 EQ PUSH2 0x9E7 JUMPI DUP1 PUSH4 0xD5D3B26C EQ PUSH2 0xA0D JUMPI DUP1 PUSH4 0xD98F2495 EQ PUSH2 0xA40 JUMPI DUP1 PUSH4 0xDA3ED419 EQ PUSH2 0xA48 JUMPI PUSH2 0x472 JUMP JUMPDEST DUP1 PUSH4 0xC5967C26 GT PUSH2 0x11F JUMPI DUP1 PUSH4 0xC8412D02 GT PUSH2 0x104 JUMPI DUP1 PUSH4 0xC8412D02 EQ PUSH2 0x9BA JUMPI DUP1 PUSH4 0xC8F987F3 EQ PUSH2 0x9C2 JUMPI DUP1 PUSH4 0xCECCE38E EQ PUSH2 0x9CA JUMPI PUSH2 0x472 JUMP JUMPDEST DUP1 PUSH4 0xC5967C26 EQ PUSH2 0x9AA JUMPI DUP1 PUSH4 0xC5CC772D EQ PUSH2 0x9B2 JUMPI PUSH2 0x472 JUMP JUMPDEST DUP1 PUSH4 0xB981CDF3 EQ PUSH2 0x936 JUMPI DUP1 PUSH4 0xBCC81F19 EQ PUSH2 0x93E JUMPI DUP1 PUSH4 0xBE266D54 EQ PUSH2 0x985 JUMPI DUP1 PUSH4 0xC040F23A EQ PUSH2 0x9A2 JUMPI PUSH2 0x472 JUMP JUMPDEST DUP1 PUSH4 0x95B6EF0C GT PUSH2 0x1E3 JUMPI DUP1 PUSH4 0xA204452B GT PUSH2 0x1B2 JUMPI DUP1 PUSH4 0xB3AB15FB GT PUSH2 0x197 JUMPI DUP1 PUSH4 0xB3AB15FB EQ PUSH2 0x8F3 JUMPI DUP1 PUSH4 0xB4D1D795 EQ PUSH2 0x926 JUMPI DUP1 PUSH4 0xB8A878F9 EQ PUSH2 0x92E JUMPI PUSH2 0x472 JUMP JUMPDEST DUP1 PUSH4 0xA204452B EQ PUSH2 0x8CE JUMPI DUP1 PUSH4 0xB3406CFC EQ PUSH2 0x8EB JUMPI PUSH2 0x472 JUMP JUMPDEST DUP1 PUSH4 0x95B6EF0C EQ PUSH2 0x81E JUMPI DUP1 PUSH4 0x98B762A1 EQ PUSH2 0x877 JUMPI DUP1 PUSH4 0x99820025 EQ PUSH2 0x894 JUMPI DUP1 PUSH4 0xA0487EEA EQ PUSH2 0x8B1 JUMPI PUSH2 0x472 JUMP JUMPDEST DUP1 PUSH4 0x900CF0CF GT PUSH2 0x21F JUMPI DUP1 PUSH4 0x900CF0CF EQ PUSH2 0x78A JUMPI DUP1 PUSH4 0x91BBFED5 EQ PUSH2 0x792 JUMPI DUP1 PUSH4 0x940E6064 EQ PUSH2 0x7B5 JUMPI DUP1 PUSH4 0x951357D4 EQ PUSH2 0x7DB JUMPI PUSH2 0x472 JUMP JUMPDEST DUP1 PUSH4 0x81D11EAF EQ PUSH2 0x755 JUMPI DUP1 PUSH4 0x874106CC EQ PUSH2 0x75D JUMPI DUP1 PUSH4 0x8C664DB6 EQ PUSH2 0x765 JUMPI DUP1 PUSH4 0x8D934F74 EQ PUSH2 0x782 JUMPI PUSH2 0x472 JUMP JUMPDEST DUP1 PUSH4 0x40AF7BA5 GT PUSH2 0x376 JUMPI DUP1 PUSH4 0x59BF5D39 GT PUSH2 0x2EE JUMPI DUP1 PUSH4 0x63F96CF4 GT PUSH2 0x2BD JUMPI DUP1 PUSH4 0x734F7096 GT PUSH2 0x2A2 JUMPI DUP1 PUSH4 0x734F7096 EQ PUSH2 0x6F7 JUMPI DUP1 PUSH4 0x75BE5AE1 EQ PUSH2 0x71A JUMPI DUP1 PUSH4 0x78E97925 EQ PUSH2 0x74D JUMPI PUSH2 0x472 JUMP JUMPDEST DUP1 PUSH4 0x63F96CF4 EQ PUSH2 0x6E7 JUMPI DUP1 PUSH4 0x72C054F9 EQ PUSH2 0x6EF JUMPI PUSH2 0x472 JUMP JUMPDEST DUP1 PUSH4 0x59BF5D39 EQ PUSH2 0x69C JUMPI DUP1 PUSH4 0x5A0FC79C EQ PUSH2 0x6A4 JUMPI DUP1 PUSH4 0x5B756179 EQ PUSH2 0x6AC JUMPI DUP1 PUSH4 0x62AC58E4 EQ PUSH2 0x6B4 JUMPI PUSH2 0x472 JUMP JUMPDEST DUP1 PUSH4 0x54575AF4 GT PUSH2 0x345 JUMPI DUP1 PUSH4 0x55EBDEEF GT PUSH2 0x32A JUMPI DUP1 PUSH4 0x55EBDEEF EQ PUSH2 0x66F JUMPI DUP1 PUSH4 0x570CA735 EQ PUSH2 0x677 JUMPI DUP1 PUSH4 0x591663E1 EQ PUSH2 0x67F JUMPI PUSH2 0x472 JUMP JUMPDEST DUP1 PUSH4 0x54575AF4 EQ PUSH2 0x609 JUMPI DUP1 PUSH4 0x54F04A11 EQ PUSH2 0x64C JUMPI PUSH2 0x472 JUMP JUMPDEST DUP1 PUSH4 0x40AF7BA5 EQ PUSH2 0x596 JUMPI DUP1 PUSH4 0x4294CF8E EQ PUSH2 0x5B3 JUMPI DUP1 PUSH4 0x4390D2A8 EQ PUSH2 0x5BB JUMPI DUP1 PUSH4 0x499F3F19 EQ PUSH2 0x5EC JUMPI PUSH2 0x472 JUMP JUMPDEST DUP1 PUSH4 0x154EC2DB GT PUSH2 0x409 JUMPI DUP1 PUSH4 0x29EF1919 GT PUSH2 0x3D8 JUMPI DUP1 PUSH4 0x392E53CD GT PUSH2 0x3BD JUMPI DUP1 PUSH4 0x392E53CD EQ PUSH2 0x569 JUMPI DUP1 PUSH4 0x3ED9AE25 EQ PUSH2 0x571 JUMPI DUP1 PUSH4 0x4013A08E EQ PUSH2 0x58E JUMPI PUSH2 0x472 JUMP JUMPDEST DUP1 PUSH4 0x29EF1919 EQ PUSH2 0x559 JUMPI DUP1 PUSH4 0x2E9C7B65 EQ PUSH2 0x561 JUMPI PUSH2 0x472 JUMP JUMPDEST DUP1 PUSH4 0x154EC2DB EQ PUSH2 0x510 JUMPI DUP1 PUSH4 0x158EF93E EQ PUSH2 0x52D JUMPI DUP1 PUSH4 0x19A98349 EQ PUSH2 0x549 JUMPI DUP1 PUSH4 0x22F832CD EQ PUSH2 0x551 JUMPI PUSH2 0x472 JUMP JUMPDEST DUP1 PUSH4 0xCAC939C GT PUSH2 0x445 JUMPI DUP1 PUSH4 0xCAC939C EQ PUSH2 0x4D5 JUMPI DUP1 PUSH4 0xCF60175 EQ PUSH2 0x4DD JUMPI DUP1 PUSH4 0xDB7EB0B EQ PUSH2 0x4E5 JUMPI DUP1 PUSH4 0x118EBBF9 EQ PUSH2 0x4ED JUMPI PUSH2 0x472 JUMP JUMPDEST DUP1 PUSH4 0x3BE7E76 EQ PUSH2 0x477 JUMPI DUP1 PUSH4 0x4E5C7B1 EQ PUSH2 0x491 JUMPI DUP1 PUSH4 0x9BB4F92 EQ PUSH2 0x4B0 JUMPI DUP1 PUSH4 0xB5BCEC7 EQ PUSH2 0x4B8 JUMPI JUMPDEST PUSH1 0x0 DUP1 REVERT JUMPDEST PUSH2 0x47F PUSH2 0xA78 JUMP JUMPDEST PUSH1 0x40 DUP1 MLOAD SWAP2 DUP3 MSTORE MLOAD SWAP1 DUP2 SWAP1 SUB PUSH1 0x20 ADD SWAP1 RETURN JUMPDEST PUSH2 0x4AE PUSH1 0x4 DUP1 CALLDATASIZE SUB PUSH1 0x20 DUP2 LT ISZERO PUSH2 0x4A7 JUMPI PUSH1 0x0 DUP1 REVERT JUMPDEST POP CALLDATALOAD PUSH2 0xA7E JUMP JUMPDEST STOP JUMPDEST PUSH2 0x47F PUSH2 0xBA8 JUMP JUMPDEST PUSH2 0x4AE PUSH1 0x4 DUP1 CALLDATASIZE SUB PUSH1 0x20 DUP2 LT ISZERO PUSH2 0x4CE JUMPI PUSH1 0x0 DUP1 REVERT JUMPDEST POP CALLDATALOAD PUSH2 0xCC3 JUMP JUMPDEST PUSH2 0x47F PUSH2 0xDA0 JUMP JUMPDEST PUSH2 0x47F PUSH2 0xF52 JUMP JUMPDEST PUSH2 0x47F PUSH2 0xFFD JUMP JUMPDEST PUSH2 0x4AE PUSH1 0x4 DUP1 CALLDATASIZE SUB PUSH1 0x40 DUP2 LT ISZERO PUSH2 0x503 JUMPI PUSH1 0x0 DUP1 REVERT JUMPDEST POP DUP1 CALLDATALOAD SWAP1 PUSH1 0x20 ADD CALLDATALOAD PUSH2 0x109F JUMP JUMPDEST PUSH2 0x4AE PUSH1 0x4 DUP1 CALLDATASIZE SUB PUSH1 0x20 DUP2 LT ISZERO PUSH2 0x526 JUMPI PUSH1 0x0 DUP1 REVERT JUMPDEST POP CALLDATALOAD PUSH2 0x192D JUMP JUMPDEST PUSH2 0x535 PUSH2 0x1A13 JUMP JUMPDEST PUSH1 0x40 DUP1 MLOAD SWAP2 ISZERO ISZERO DUP3 MSTORE MLOAD SWAP1 DUP2 SWAP1 SUB PUSH1 0x20 ADD SWAP1 RETURN JUMPDEST PUSH2 0x47F PUSH2 0x1A34 JUMP JUMPDEST PUSH2 0x47F PUSH2 0x1A3A JUMP JUMPDEST PUSH2 0x47F PUSH2 0x1A40 JUMP JUMPDEST PUSH2 0x47F PUSH2 0x1A46 JUMP JUMPDEST PUSH2 0x535 PUSH2 0x1A4C JUMP JUMPDEST PUSH2 0x4AE PUSH1 0x4 DUP1 CALLDATASIZE SUB PUSH1 0x20 DUP2 LT ISZERO PUSH2 0x587 JUMPI PUSH1 0x0 DUP1 REVERT JUMPDEST POP CALLDATALOAD PUSH2 0x1A6D JUMP JUMPDEST PUSH2 0x47F PUSH2 0x1B79 JUMP JUMPDEST PUSH2 0x4AE PUSH1 0x4 DUP1 CALLDATASIZE SUB PUSH1 0x20 DUP2 LT ISZERO PUSH2 0x5AC JUMPI PUSH1 0x0 DUP1 REVERT JUMPDEST POP CALLDATALOAD PUSH2 0x1B7F JUMP JUMPDEST PUSH2 0x47F PUSH2 0x1C65 JUMP JUMPDEST PUSH2 0x5C3 PUSH2 0x1C6B JUMP JUMPDEST PUSH1 0x40 DUP1 MLOAD PUSH20 0xFFFFFFFFFFFFFFFFFFFFFFFFFFFFFFFFFFFFFFFF SWAP1 SWAP3 AND DUP3 MSTORE MLOAD SWAP1 DUP2 SWAP1 SUB PUSH1 0x20 ADD SWAP1 RETURN JUMPDEST PUSH2 0x4AE PUSH1 0x4 DUP1 CALLDATASIZE SUB PUSH1 0x20 DUP2 LT ISZERO PUSH2 0x602 JUMPI PUSH1 0x0 DUP1 REVERT JUMPDEST POP CALLDATALOAD PUSH2 0x1C87 JUMP JUMPDEST PUSH2 0x4AE PUSH1 0x4 DUP1 CALLDATASIZE SUB PUSH1 0x60 DUP2 LT ISZERO PUSH2 0x61F JUMPI PUSH1 0x0 DUP1 REVERT JUMPDEST POP PUSH20 0xFFFFFFFFFFFFFFFFFFFFFFFFFFFFFFFFFFFFFFFF DUP2 CALLDATALOAD DUP2 AND SWAP2 PUSH1 0x20 DUP2 ADD CALLDATALOAD SWAP2 PUSH1 0x40 SWAP1 SWAP2 ADD CALLDATALOAD AND PUSH2 0x1D65 JUMP JUMPDEST PUSH2 0x4AE PUSH1 0x4 DUP1 CALLDATASIZE SUB PUSH1 0x40 DUP2 LT ISZERO PUSH2 0x662 JUMPI PUSH1 0x0 DUP1 REVERT JUMPDEST POP DUP1 CALLDATALOAD SWAP1 PUSH1 0x20 ADD CALLDATALOAD PUSH2 0x1F9D JUMP JUMPDEST PUSH2 0x47F PUSH2 0x29D1 JUMP JUMPDEST PUSH2 0x5C3 PUSH2 0x29D7 JUMP JUMPDEST PUSH2 0x4AE PUSH1 0x4 DUP1 CALLDATASIZE SUB PUSH1 0x20 DUP2 LT ISZERO PUSH2 0x695 JUMPI PUSH1 0x0 DUP1 REVERT JUMPDEST POP CALLDATALOAD PUSH2 0x29F3 JUMP JUMPDEST PUSH2 0x47F PUSH2 0x2AE7 JUMP JUMPDEST PUSH2 0x47F PUSH2 0x2AED JUMP JUMPDEST PUSH2 0x4AE PUSH2 0x2AF3 JUMP JUMPDEST PUSH2 0x4AE PUSH1 0x4 DUP1 CALLDATASIZE SUB PUSH1 0x20 DUP2 LT ISZERO PUSH2 0x6CA JUMPI PUSH1 0x0 DUP1 REVERT JUMPDEST POP CALLDATALOAD PUSH20 0xFFFFFFFFFFFFFFFFFFFFFFFFFFFFFFFFFFFFFFFF AND PUSH2 0x3480 JUMP JUMPDEST PUSH2 0x5C3 PUSH2 0x357F JUMP JUMPDEST PUSH2 0x47F PUSH2 0x359B JUMP JUMPDEST PUSH2 0x4AE PUSH1 0x4 DUP1 CALLDATASIZE SUB PUSH1 0x40 DUP2 LT ISZERO PUSH2 0x70D JUMPI PUSH1 0x0 DUP1 REVERT JUMPDEST POP DUP1 CALLDATALOAD SWAP1 PUSH1 0x20 ADD CALLDATALOAD PUSH2 0x3681 JUMP JUMPDEST PUSH2 0x4AE PUSH1 0x4 DUP1 CALLDATASIZE SUB PUSH1 0x20 DUP2 LT ISZERO PUSH2 0x730 JUMPI PUSH1 0x0 DUP1 REVERT JUMPDEST POP CALLDATALOAD PUSH20 0xFFFFFFFFFFFFFFFFFFFFFFFFFFFFFFFFFFFFFFFF AND PUSH2 0x3787 JUMP JUMPDEST PUSH2 0x47F PUSH2 0x383E JUMP JUMPDEST PUSH2 0x47F PUSH2 0x3844 JUMP JUMPDEST PUSH2 0x47F PUSH2 0x384A JUMP JUMPDEST PUSH2 0x4AE PUSH1 0x4 DUP1 CALLDATASIZE SUB PUSH1 0x20 DUP2 LT ISZERO PUSH2 0x77B JUMPI PUSH1 0x0 DUP1 REVERT JUMPDEST POP CALLDATALOAD PUSH2 0x3850 JUMP JUMPDEST PUSH2 0x5C3 PUSH2 0x3944 JUMP JUMPDEST PUSH2 0x47F PUSH2 0x3960 JUMP JUMPDEST PUSH2 0x4AE PUSH1 0x4 DUP1 CALLDATASIZE SUB PUSH1 0x40 DUP2 LT ISZERO PUSH2 0x7A8 JUMPI PUSH1 0x0 DUP1 REVERT JUMPDEST POP DUP1 CALLDATALOAD SWAP1 PUSH1 0x20 ADD CALLDATALOAD PUSH2 0x3966 JUMP JUMPDEST PUSH2 0x535 PUSH1 0x4 DUP1 CALLDATASIZE SUB PUSH1 0x40 DUP2 LT ISZERO PUSH2 0x7CB JUMPI PUSH1 0x0 DUP1 REVERT JUMPDEST POP PUSH1 0xFF DUP2 CALLDATALOAD AND SWAP1 PUSH1 0x20 ADD CALLDATALOAD PUSH2 0x3AB9 JUMP JUMPDEST PUSH2 0x4AE PUSH1 0x4 DUP1 CALLDATASIZE SUB PUSH1 0x60 DUP2 LT ISZERO PUSH2 0x7F1 JUMPI PUSH1 0x0 DUP1 REVERT JUMPDEST POP PUSH20 0xFFFFFFFFFFFFFFFFFFFFFFFFFFFFFFFFFFFFFFFF DUP2 CALLDATALOAD DUP2 AND SWAP2 PUSH1 0x20 DUP2 ADD CALLDATALOAD SWAP2 PUSH1 0x40 SWAP1 SWAP2 ADD CALLDATALOAD AND PUSH2 0x3C16 JUMP JUMPDEST PUSH2 0x4AE PUSH1 0x4 DUP1 CALLDATASIZE SUB PUSH1 0xC0 DUP2 LT ISZERO PUSH2 0x834 JUMPI PUSH1 0x0 DUP1 REVERT JUMPDEST POP PUSH20 0xFFFFFFFFFFFFFFFFFFFFFFFFFFFFFFFFFFFFFFFF DUP2 CALLDATALOAD DUP2 AND SWAP2 PUSH1 0x20 DUP2 ADD CALLDATALOAD DUP3 AND SWAP2 PUSH1 0x40 DUP3 ADD CALLDATALOAD DUP2 AND SWAP2 PUSH1 0x60 DUP2 ADD CALLDATALOAD DUP3 AND SWAP2 PUSH1 0x80 DUP3 ADD CALLDATALOAD AND SWAP1 PUSH1 0xA0 ADD CALLDATALOAD PUSH2 0x3D26 JUMP JUMPDEST PUSH2 0x4AE PUSH1 0x4 DUP1 CALLDATASIZE SUB PUSH1 0x20 DUP2 LT ISZERO PUSH2 0x88D JUMPI PUSH1 0x0 DUP1 REVERT JUMPDEST POP CALLDATALOAD PUSH2 0x40CD JUMP JUMPDEST PUSH2 0x47F PUSH1 0x4 DUP1 CALLDATASIZE SUB PUSH1 0x20 DUP2 LT ISZERO PUSH2 0x8AA JUMPI PUSH1 0x0 DUP1 REVERT JUMPDEST POP CALLDATALOAD PUSH2 0x4142 JUMP JUMPDEST PUSH2 0x47F PUSH1 0x4 DUP1 CALLDATASIZE SUB PUSH1 0x20 DUP2 LT ISZERO PUSH2 0x8C7 JUMPI PUSH1 0x0 DUP1 REVERT JUMPDEST POP CALLDATALOAD PUSH2 0x4160 JUMP JUMPDEST PUSH2 0x4AE PUSH1 0x4 DUP1 CALLDATASIZE SUB PUSH1 0x20 DUP2 LT ISZERO PUSH2 0x8E4 JUMPI PUSH1 0x0 DUP1 REVERT JUMPDEST POP CALLDATALOAD PUSH2 0x416D JUMP JUMPDEST PUSH2 0x47F PUSH2 0x41E2 JUMP JUMPDEST PUSH2 0x4AE PUSH1 0x4 DUP1 CALLDATASIZE SUB PUSH1 0x20 DUP2 LT ISZERO PUSH2 0x909 JUMPI PUSH1 0x0 DUP1 REVERT JUMPDEST POP CALLDATALOAD PUSH20 0xFFFFFFFFFFFFFFFFFFFFFFFFFFFFFFFFFFFFFFFF AND PUSH2 0x41E8 JUMP JUMPDEST PUSH2 0x47F PUSH2 0x429F JUMP JUMPDEST PUSH2 0x47F PUSH2 0x42A5 JUMP JUMPDEST PUSH2 0x5C3 PUSH2 0x42AB JUMP JUMPDEST PUSH2 0x4AE PUSH1 0x4 DUP1 CALLDATASIZE SUB PUSH1 0x80 DUP2 LT ISZERO PUSH2 0x954 JUMPI PUSH1 0x0 DUP1 REVERT JUMPDEST POP PUSH20 0xFFFFFFFFFFFFFFFFFFFFFFFFFFFFFFFFFFFFFFFF DUP2 CALLDATALOAD DUP2 AND SWAP2 PUSH1 0x20 DUP2 ADD CALLDATALOAD SWAP2 PUSH1 0x40 DUP3 ADD CALLDATALOAD AND SWAP1 PUSH1 0x60 ADD CALLDATALOAD PUSH2 0x42C7 JUMP JUMPDEST PUSH2 0x4AE PUSH1 0x4 DUP1 CALLDATASIZE SUB PUSH1 0x20 DUP2 LT ISZERO PUSH2 0x99B JUMPI PUSH1 0x0 DUP1 REVERT JUMPDEST POP CALLDATALOAD PUSH2 0x457E JUMP JUMPDEST PUSH2 0x5C3 PUSH2 0x4661 JUMP JUMPDEST PUSH2 0x47F PUSH2 0x467D JUMP JUMPDEST PUSH2 0x47F PUSH2 0x46A7 JUMP JUMPDEST PUSH2 0x47F PUSH2 0x472F JUMP JUMPDEST PUSH2 0x47F PUSH2 0x4735 JUMP JUMPDEST PUSH2 0x4AE PUSH1 0x4 DUP1 CALLDATASIZE SUB PUSH1 0x20 DUP2 LT ISZERO PUSH2 0x9E0 JUMPI PUSH1 0x0 DUP1 REVERT JUMPDEST POP CALLDATALOAD PUSH2 0x473B JUMP JUMPDEST PUSH2 0x535 PUSH1 0x4 DUP1 CALLDATASIZE SUB PUSH1 0x40 DUP2 LT ISZERO PUSH2 0x9FD JUMPI PUSH1 0x0 DUP1 REVERT JUMPDEST POP PUSH1 0xFF DUP2 CALLDATALOAD AND SWAP1 PUSH1 0x20 ADD CALLDATALOAD PUSH2 0x482E JUMP JUMPDEST PUSH2 0x4AE PUSH1 0x4 DUP1 CALLDATASIZE SUB PUSH1 0x20 DUP2 LT ISZERO PUSH2 0xA23 JUMPI PUSH1 0x0 DUP1 REVERT JUMPDEST POP CALLDATALOAD PUSH20 0xFFFFFFFFFFFFFFFFFFFFFFFFFFFFFFFFFFFFFFFF AND PUSH2 0x498C JUMP JUMPDEST PUSH2 0x47F PUSH2 0x4A43 JUMP JUMPDEST PUSH2 0x47F PUSH2 0x4A49 JUMP JUMPDEST PUSH2 0x47F PUSH2 0x4A4F JUMP JUMPDEST PUSH2 0x5C3 PUSH2 0x4A55 JUMP JUMPDEST PUSH2 0x47F PUSH2 0x4A71 JUMP JUMPDEST PUSH2 0x5C3 PUSH2 0x4A77 JUMP JUMPDEST PUSH2 0x47F PUSH2 0x4A93 JUMP JUMPDEST PUSH1 0x20 SLOAD DUP2 JUMP JUMPDEST PUSH1 0x1 SLOAD PUSH20 0xFFFFFFFFFFFFFFFFFFFFFFFFFFFFFFFFFFFFFFFF AND CALLER EQ PUSH2 0xAEE JUMPI PUSH1 0x40 MLOAD PUSH32 0x8C379A000000000000000000000000000000000000000000000000000000000 DUP2 MSTORE PUSH1 0x4 ADD DUP1 DUP1 PUSH1 0x20 ADD DUP3 DUP2 SUB DUP3 MSTORE PUSH1 0x24 DUP2 MSTORE PUSH1 0x20 ADD DUP1 PUSH2 0x59AE PUSH1 0x24 SWAP2 CODECOPY PUSH1 0x40 ADD SWAP2 POP POP PUSH1 0x40 MLOAD DUP1 SWAP2 SUB SWAP1 REVERT JUMPDEST PUSH1 0xB SLOAD DUP2 LT ISZERO PUSH2 0xB49 JUMPI PUSH1 0x40 MLOAD PUSH32 0x8C379A000000000000000000000000000000000000000000000000000000000 DUP2 MSTORE PUSH1 0x4 ADD DUP1 DUP1 PUSH1 0x20 ADD DUP3 DUP2 SUB DUP3 MSTORE PUSH1 0x2A DUP2 MSTORE PUSH1 0x20 ADD DUP1 PUSH2 0x580C PUSH1 0x2A SWAP2 CODECOPY PUSH1 0x40 ADD SWAP2 POP POP PUSH1 0x40 MLOAD DUP1 SWAP2 SUB SWAP1 REVERT JUMPDEST PUSH1 0x96 DUP2 GT ISZERO PUSH2 0xBA3 JUMPI PUSH1 0x40 MLOAD PUSH32 0x8C379A000000000000000000000000000000000000000000000000000000000 DUP2 MSTORE PUSH1 0x4 ADD DUP1 DUP1 PUSH1 0x20 ADD DUP3 DUP2 SUB DUP3 MSTORE PUSH1 0x24 DUP2 MSTORE PUSH1 0x20 ADD DUP1 PUSH2 0x589A PUSH1 0x24 SWAP2 CODECOPY PUSH1 0x40 ADD SWAP2 POP POP PUSH1 0x40 MLOAD DUP1 SWAP2 SUB SWAP1 REVERT JUMPDEST PUSH1 0x1A SSTORE JUMP JUMPDEST PUSH1 0x9 SLOAD PUSH1 0x5 SLOAD PUSH1 0x40 DUP1 MLOAD PUSH32 0x3DDAC95300000000000000000000000000000000000000000000000000000000 DUP2 MSTORE PUSH20 0xFFFFFFFFFFFFFFFFFFFFFFFFFFFFFFFFFFFFFFFF SWAP3 DUP4 AND PUSH1 0x4 DUP3 ADD MSTORE PUSH8 0xDE0B6B3A7640000 PUSH1 0x24 DUP3 ADD MSTORE SWAP1 MLOAD PUSH1 0x0 SWAP4 SWAP3 SWAP1 SWAP3 AND SWAP2 PUSH4 0x3DDAC953 SWAP2 PUSH1 0x44 DUP1 DUP3 ADD SWAP3 PUSH1 0x20 SWAP3 SWAP1 SWAP2 SWAP1 DUP3 SWAP1 SUB ADD DUP2 DUP7 DUP1 EXTCODESIZE ISZERO DUP1 ISZERO PUSH2 0xC30 JUMPI PUSH1 0x0 DUP1 REVERT JUMPDEST POP GAS STATICCALL SWAP3 POP POP POP DUP1 ISZERO PUSH2 0xC55 JUMPI POP PUSH1 0x40 MLOAD RETURNDATASIZE PUSH1 0x20 DUP2 LT ISZERO PUSH2 0xC50 JUMPI PUSH1 0x0 DUP1 REVERT JUMPDEST POP MLOAD PUSH1 0x1 JUMPDEST PUSH2 0xCAA JUMPI PUSH1 0x40 MLOAD PUSH32 0x8C379A000000000000000000000000000000000000000000000000000000000 DUP2 MSTORE PUSH1 0x4 ADD DUP1 DUP1 PUSH1 0x20 ADD DUP3 DUP2 SUB DUP3 MSTORE PUSH1 0x36 DUP2 MSTORE PUSH1 0x20 ADD DUP1 PUSH2 0x5864 PUSH1 0x36 SWAP2 CODECOPY PUSH1 0x40 ADD SWAP2 POP POP PUSH1 0x40 MLOAD DUP1 SWAP2 SUB SWAP1 REVERT JUMPDEST PUSH18 0xFFFFFFFFFFFFFFFFFFFFFFFFFFFFFFFFFFFF AND SWAP1 POP SWAP1 JUMP JUMPDEST PUSH1 0x1 SLOAD PUSH20 0xFFFFFFFFFFFFFFFFFFFFFFFFFFFFFFFFFFFFFFFF AND CALLER EQ PUSH2 0xD33 JUMPI PUSH1 0x40 MLOAD PUSH32 0x8C379A000000000000000000000000000000000000000000000000000000000 DUP2 MSTORE PUSH1 0x4 ADD DUP1 DUP1 PUSH1 0x20 ADD DUP3 DUP2 SUB DUP3 MSTORE PUSH1 0x24 DUP2 MSTORE PUSH1 0x20 ADD DUP1 PUSH2 0x59AE PUSH1 0x24 SWAP2 CODECOPY PUSH1 0x40 ADD SWAP2 POP POP PUSH1 0x40 MLOAD DUP1 SWAP2 SUB SWAP1 REVERT JUMPDEST PUSH1 0xA DUP2 LT ISZERO DUP1 ISZERO PUSH2 0xD46 JUMPI POP PUSH2 0x3E8 DUP2 GT ISZERO JUMPDEST PUSH2 0xD9B JUMPI PUSH1 0x40 MLOAD PUSH32 0x8C379A000000000000000000000000000000000000000000000000000000000 DUP2 MSTORE PUSH1 0x4 ADD DUP1 DUP1 PUSH1 0x20 ADD DUP3 DUP2 SUB DUP3 MSTORE PUSH1 0x28 DUP2 MSTORE PUSH1 0x20 ADD DUP1 PUSH2 0x595D PUSH1 0x28 SWAP2 CODECOPY PUSH1 0x40 ADD SWAP2 POP POP PUSH1 0x40 MLOAD DUP1 SWAP2 SUB SWAP1 REVERT JUMPDEST PUSH1 0xF SSTORE JUMP JUMPDEST PUSH1 0x0 DUP1 PUSH2 0xDAB PUSH2 0xBA8 JUMP JUMPDEST SWAP1 POP PUSH1 0xA SLOAD DUP2 GT PUSH2 0xF4E JUMPI PUSH1 0x5 SLOAD PUSH1 0x40 DUP1 MLOAD PUSH32 0x18160DDD00000000000000000000000000000000000000000000000000000000 DUP2 MSTORE SWAP1 MLOAD PUSH1 0x0 SWAP3 PUSH20 0xFFFFFFFFFFFFFFFFFFFFFFFFFFFFFFFFFFFFFFFF AND SWAP2 PUSH4 0x18160DDD SWAP2 PUSH1 0x4 DUP1 DUP4 ADD SWAP3 PUSH1 0x20 SWAP3 SWAP2 SWAP1 DUP3 SWAP1 SUB ADD DUP2 DUP7 DUP1 EXTCODESIZE ISZERO DUP1 ISZERO PUSH2 0xE21 JUMPI PUSH1 0x0 DUP1 REVERT JUMPDEST POP GAS STATICCALL ISZERO DUP1 ISZERO PUSH2 0xE35 JUMPI RETURNDATASIZE PUSH1 0x0 DUP1 RETURNDATACOPY RETURNDATASIZE PUSH1 0x0 REVERT JUMPDEST POP POP POP POP PUSH1 0x40 MLOAD RETURNDATASIZE PUSH1 0x20 DUP2 LT ISZERO PUSH2 0xE4B JUMPI PUSH1 0x0 DUP1 REVERT JUMPDEST POP MLOAD PUSH1 0x13 SLOAD SWAP1 SWAP2 POP PUSH1 0x0 SWAP1 PUSH2 0xE6F SWAP1 PUSH2 0x2710 SWAP1 PUSH2 0xE69 SWAP1 DUP6 SWAP1 PUSH2 0x4A99 JUMP JUMPDEST SWAP1 PUSH2 0x4B13 JUMP JUMPDEST SWAP1 POP PUSH1 0x0 PUSH1 0x6 PUSH1 0x0 SWAP1 SLOAD SWAP1 PUSH2 0x100 EXP SWAP1 DIV PUSH20 0xFFFFFFFFFFFFFFFFFFFFFFFFFFFFFFFFFFFFFFFF AND PUSH20 0xFFFFFFFFFFFFFFFFFFFFFFFFFFFFFFFFFFFFFFFF AND PUSH4 0x18160DDD PUSH1 0x40 MLOAD DUP2 PUSH4 0xFFFFFFFF AND PUSH1 0xE0 SHL DUP2 MSTORE PUSH1 0x4 ADD PUSH1 0x20 PUSH1 0x40 MLOAD DUP1 DUP4 SUB DUP2 DUP7 DUP1 EXTCODESIZE ISZERO DUP1 ISZERO PUSH2 0xEDB JUMPI PUSH1 0x0 DUP1 REVERT JUMPDEST POP GAS STATICCALL ISZERO DUP1 ISZERO PUSH2 0xEEF JUMPI RETURNDATASIZE PUSH1 0x0 DUP1 RETURNDATACOPY RETURNDATASIZE PUSH1 0x0 REVERT JUMPDEST POP POP POP POP PUSH1 0x40 MLOAD RETURNDATASIZE PUSH1 0x20 DUP2 LT ISZERO PUSH2 0xF05 JUMPI PUSH1 0x0 DUP1 REVERT JUMPDEST POP MLOAD SWAP1 POP DUP1 DUP3 GT ISZERO PUSH2 0xF4A JUMPI PUSH1 0x0 PUSH2 0xF1D DUP4 DUP4 PUSH2 0x4B55 JUMP JUMPDEST SWAP1 POP PUSH1 0x0 PUSH2 0xF37 PUSH8 0xDE0B6B3A7640000 PUSH2 0xE69 DUP5 DUP10 PUSH2 0x4A99 JUMP JUMPDEST SWAP1 POP PUSH2 0xF45 PUSH1 0x4 SLOAD DUP3 PUSH2 0x4B97 JUMP JUMPDEST SWAP7 POP POP POP JUMPDEST POP POP POP JUMPDEST POP SWAP1 JUMP JUMPDEST PUSH1 0x0 DUP1 PUSH2 0xF5D PUSH2 0xBA8 JUMP JUMPDEST SWAP1 POP PUSH1 0xA SLOAD DUP2 GT PUSH2 0xF4E JUMPI PUSH1 0x19 SLOAD PUSH2 0xF79 JUMPI PUSH1 0xA SLOAD SWAP2 POP PUSH2 0xF4E JUMP JUMPDEST PUSH1 0x0 PUSH2 0xF9C DUP3 PUSH2 0xE69 PUSH8 0xDE0B6B3A7640000 PUSH1 0xA SLOAD PUSH2 0x4A99 SWAP1 SWAP2 SWAP1 PUSH4 0xFFFFFFFF AND JUMP JUMPDEST SWAP1 POP PUSH1 0x0 PUSH2 0xFC7 PUSH2 0x2710 PUSH2 0xE69 PUSH1 0x19 SLOAD PUSH2 0xFC1 PUSH1 0xA SLOAD DUP8 PUSH2 0x4B55 SWAP1 SWAP2 SWAP1 PUSH4 0xFFFFFFFF AND JUMP JUMPDEST SWAP1 PUSH2 0x4A99 JUMP JUMPDEST PUSH1 0xA SLOAD SWAP1 SWAP2 POP PUSH2 0xFD7 SWAP1 DUP3 PUSH2 0x4BAD JUMP JUMPDEST SWAP4 POP PUSH1 0x0 PUSH1 0x17 SLOAD GT DUP1 ISZERO PUSH2 0xFEC JUMPI POP PUSH1 0x17 SLOAD DUP5 GT JUMPDEST ISZERO PUSH2 0xFF7 JUMPI PUSH1 0x17 SLOAD SWAP4 POP JUMPDEST POP POP POP SWAP1 JUMP JUMPDEST PUSH1 0x0 DUP1 PUSH2 0x1008 PUSH2 0xBA8 JUMP JUMPDEST SWAP1 POP PUSH1 0xB SLOAD DUP2 GT ISZERO PUSH2 0xF4E JUMPI PUSH1 0x0 PUSH2 0x1032 PUSH1 0x64 PUSH2 0xE69 PUSH1 0x1A SLOAD PUSH1 0xA SLOAD PUSH2 0x4A99 SWAP1 SWAP2 SWAP1 PUSH4 0xFFFFFFFF AND JUMP JUMPDEST SWAP1 POP DUP1 DUP3 LT PUSH2 0x1094 JUMPI PUSH1 0x0 PUSH2 0x105E PUSH2 0x2710 PUSH2 0xE69 PUSH1 0x1B SLOAD PUSH2 0xFC1 PUSH1 0xA SLOAD DUP9 PUSH2 0x4B55 SWAP1 SWAP2 SWAP1 PUSH4 0xFFFFFFFF AND JUMP JUMPDEST PUSH1 0xA SLOAD SWAP1 SWAP2 POP PUSH2 0x106E SWAP1 DUP3 PUSH2 0x4BAD JUMP JUMPDEST SWAP4 POP PUSH1 0x0 PUSH1 0x18 SLOAD GT DUP1 ISZERO PUSH2 0x1083 JUMPI POP PUSH1 0x18 SLOAD DUP5 GT JUMPDEST ISZERO PUSH2 0x108E JUMPI PUSH1 0x18 SLOAD SWAP4 POP JUMPDEST POP PUSH2 0x109A JUMP JUMPDEST PUSH1 0xA SLOAD SWAP3 POP JUMPDEST POP POP SWAP1 JUMP JUMPDEST PUSH2 0x10A7 PUSH2 0x4C21 JUMP JUMPDEST ISZERO PUSH2 0x10FD JUMPI PUSH1 0x40 MLOAD PUSH32 0x8C379A000000000000000000000000000000000000000000000000000000000 DUP2 MSTORE PUSH1 0x4 ADD DUP1 DUP1 PUSH1 0x20 ADD DUP3 DUP2 SUB DUP3 MSTORE PUSH1 0x26 DUP2 MSTORE PUSH1 0x20 ADD DUP1 PUSH2 0x59FC PUSH1 0x26 SWAP2 CODECOPY PUSH1 0x40 ADD SWAP2 POP POP PUSH1 0x40 MLOAD DUP1 SWAP2 SUB SWAP1 REVERT JUMPDEST PUSH2 0x1105 PUSH2 0x4C40 JUMP JUMPDEST ISZERO PUSH2 0x115B JUMPI PUSH1 0x40 MLOAD PUSH32 0x8C379A000000000000000000000000000000000000000000000000000000000 DUP2 MSTORE PUSH1 0x4 ADD DUP1 DUP1 PUSH1 0x20 ADD DUP3 DUP2 SUB DUP3 MSTORE PUSH1 0x26 DUP2 MSTORE PUSH1 0x20 ADD DUP1 PUSH2 0x59FC PUSH1 0x26 SWAP2 CODECOPY PUSH1 0x40 ADD SWAP2 POP POP PUSH1 0x40 MLOAD DUP1 SWAP2 SUB SWAP1 REVERT JUMPDEST PUSH1 0x2 SLOAD TIMESTAMP LT ISZERO PUSH2 0x11CC JUMPI PUSH1 0x40 DUP1 MLOAD PUSH32 0x8C379A000000000000000000000000000000000000000000000000000000000 DUP2 MSTORE PUSH1 0x20 PUSH1 0x4 DUP3 ADD MSTORE PUSH1 0x19 PUSH1 0x24 DUP3 ADD MSTORE PUSH32 0x54726561737572793A206E6F7420737461727465642079657400000000000000 PUSH1 0x44 DUP3 ADD MSTORE SWAP1 MLOAD SWAP1 DUP2 SWAP1 SUB PUSH1 0x64 ADD SWAP1 REVERT JUMPDEST PUSH1 0x5 SLOAD PUSH1 0x40 DUP1 MLOAD PUSH32 0x570CA73500000000000000000000000000000000000000000000000000000000 DUP2 MSTORE SWAP1 MLOAD ADDRESS SWAP3 PUSH20 0xFFFFFFFFFFFFFFFFFFFFFFFFFFFFFFFFFFFFFFFF AND SWAP2 PUSH4 0x570CA735 SWAP2 PUSH1 0x4 DUP1 DUP4 ADD SWAP3 PUSH1 0x20 SWAP3 SWAP2 SWAP1 DUP3 SWAP1 SUB ADD DUP2 DUP7 DUP1 EXTCODESIZE ISZERO DUP1 ISZERO PUSH2 0x1236 JUMPI PUSH1 0x0 DUP1 REVERT JUMPDEST POP GAS STATICCALL ISZERO DUP1 ISZERO PUSH2 0x124A JUMPI RETURNDATASIZE PUSH1 0x0 DUP1 RETURNDATACOPY RETURNDATASIZE PUSH1 0x0 REVERT JUMPDEST POP POP POP POP PUSH1 0x40 MLOAD RETURNDATASIZE PUSH1 0x20 DUP2 LT ISZERO PUSH2 0x1260 JUMPI PUSH1 0x0 DUP1 REVERT JUMPDEST POP MLOAD PUSH20 0xFFFFFFFFFFFFFFFFFFFFFFFFFFFFFFFFFFFFFFFF AND EQ DUP1 ISZERO PUSH2 0x132E JUMPI POP PUSH1 0x6 SLOAD PUSH1 0x40 DUP1 MLOAD PUSH32 0x570CA73500000000000000000000000000000000000000000000000000000000 DUP2 MSTORE SWAP1 MLOAD ADDRESS SWAP3 PUSH20 0xFFFFFFFFFFFFFFFFFFFFFFFFFFFFFFFFFFFFFFFF AND SWAP2 PUSH4 0x570CA735 SWAP2 PUSH1 0x4 DUP1 DUP4 ADD SWAP3 PUSH1 0x20 SWAP3 SWAP2 SWAP1 DUP3 SWAP1 SUB ADD DUP2 DUP7 DUP1 EXTCODESIZE ISZERO DUP1 ISZERO PUSH2 0x12EA JUMPI PUSH1 0x0 DUP1 REVERT JUMPDEST POP GAS STATICCALL ISZERO DUP1 ISZERO PUSH2 0x12FE JUMPI RETURNDATASIZE PUSH1 0x0 DUP1 RETURNDATACOPY RETURNDATASIZE PUSH1 0x0 REVERT JUMPDEST POP POP POP POP PUSH1 0x40 MLOAD RETURNDATASIZE PUSH1 0x20 DUP2 LT ISZERO PUSH2 0x1314 JUMPI PUSH1 0x0 DUP1 REVERT JUMPDEST POP MLOAD PUSH20 0xFFFFFFFFFFFFFFFFFFFFFFFFFFFFFFFFFFFFFFFF AND EQ JUMPDEST DUP1 ISZERO PUSH2 0x13E3 JUMPI POP PUSH1 0x7 SLOAD PUSH1 0x40 DUP1 MLOAD PUSH32 0x570CA73500000000000000000000000000000000000000000000000000000000 DUP2 MSTORE SWAP1 MLOAD ADDRESS SWAP3 PUSH20 0xFFFFFFFFFFFFFFFFFFFFFFFFFFFFFFFFFFFFFFFF AND SWAP2 PUSH4 0x570CA735 SWAP2 PUSH1 0x4 DUP1 DUP4 ADD SWAP3 PUSH1 0x20 SWAP3 SWAP2 SWAP1 DUP3 SWAP1 SUB ADD DUP2 DUP7 DUP1 EXTCODESIZE ISZERO DUP1 ISZERO PUSH2 0x139F JUMPI PUSH1 0x0 DUP1 REVERT JUMPDEST POP GAS STATICCALL ISZERO DUP1 ISZERO PUSH2 0x13B3 JUMPI RETURNDATASIZE PUSH1 0x0 DUP1 RETURNDATACOPY RETURNDATASIZE PUSH1 0x0 REVERT JUMPDEST POP POP POP POP PUSH1 0x40 MLOAD RETURNDATASIZE PUSH1 0x20 DUP2 LT ISZERO PUSH2 0x13C9 JUMPI PUSH1 0x0 DUP1 REVERT JUMPDEST POP MLOAD PUSH20 0xFFFFFFFFFFFFFFFFFFFFFFFFFFFFFFFFFFFFFFFF AND EQ JUMPDEST DUP1 ISZERO PUSH2 0x1498 JUMPI POP PUSH1 0x8 SLOAD PUSH1 0x40 DUP1 MLOAD PUSH32 0x570CA73500000000000000000000000000000000000000000000000000000000 DUP2 MSTORE SWAP1 MLOAD ADDRESS SWAP3 PUSH20 0xFFFFFFFFFFFFFFFFFFFFFFFFFFFFFFFFFFFFFFFF AND SWAP2 PUSH4 0x570CA735 SWAP2 PUSH1 0x4 DUP1 DUP4 ADD SWAP3 PUSH1 0x20 SWAP3 SWAP2 SWAP1 DUP3 SWAP1 SUB ADD DUP2 DUP7 DUP1 EXTCODESIZE ISZERO DUP1 ISZERO PUSH2 0x1454 JUMPI PUSH1 0x0 DUP1 REVERT JUMPDEST POP GAS STATICCALL ISZERO DUP1 ISZERO PUSH2 0x1468 JUMPI RETURNDATASIZE PUSH1 0x0 DUP1 RETURNDATACOPY RETURNDATASIZE PUSH1 0x0 REVERT JUMPDEST POP POP POP POP PUSH1 0x40 MLOAD RETURNDATASIZE PUSH1 0x20 DUP2 LT ISZERO PUSH2 0x147E JUMPI PUSH1 0x0 DUP1 REVERT JUMPDEST POP MLOAD PUSH20 0xFFFFFFFFFFFFFFFFFFFFFFFFFFFFFFFFFFFFFFFF AND EQ JUMPDEST PUSH2 0x1503 JUMPI PUSH1 0x40 DUP1 MLOAD PUSH32 0x8C379A000000000000000000000000000000000000000000000000000000000 DUP2 MSTORE PUSH1 0x20 PUSH1 0x4 DUP3 ADD MSTORE PUSH1 0x1E PUSH1 0x24 DUP3 ADD MSTORE PUSH32 0x54726561737572793A206E656564206D6F7265207065726D697373696F6E0000 PUSH1 0x44 DUP3 ADD MSTORE SWAP1 MLOAD SWAP1 DUP2 SWAP1 SUB PUSH1 0x64 ADD SWAP1 REVERT JUMPDEST PUSH1 0x0 DUP3 GT PUSH2 0x155C JUMPI PUSH1 0x40 MLOAD PUSH32 0x8C379A000000000000000000000000000000000000000000000000000000000 DUP2 MSTORE PUSH1 0x4 ADD DUP1 DUP1 PUSH1 0x20 ADD DUP3 DUP2 SUB DUP3 MSTORE PUSH1 0x2E DUP2 MSTORE PUSH1 0x20 ADD DUP1 PUSH2 0x5836 PUSH1 0x2E SWAP2 CODECOPY PUSH1 0x40 ADD SWAP2 POP POP PUSH1 0x40 MLOAD DUP1 SWAP2 SUB SWAP1 REVERT JUMPDEST PUSH1 0x0 PUSH2 0x1566 PUSH2 0xBA8 JUMP JUMPDEST SWAP1 POP DUP2 DUP2 EQ PUSH2 0x15D6 JUMPI PUSH1 0x40 DUP1 MLOAD PUSH32 0x8C379A000000000000000000000000000000000000000000000000000000000 DUP2 MSTORE PUSH1 0x20 PUSH1 0x4 DUP3 ADD MSTORE PUSH1 0x1A PUSH1 0x24 DUP3 ADD MSTORE PUSH32 0x54726561737572793A20544F4D42207072696365206D6F766564000000000000 PUSH1 0x44 DUP3 ADD MSTORE SWAP1 MLOAD SWAP1 DUP2 SWAP1 SUB PUSH1 0x64 ADD SWAP1 REVERT JUMPDEST PUSH1 0xB SLOAD DUP2 GT PUSH2 0x1630 JUMPI PUSH1 0x40 MLOAD PUSH32 0x8C379A000000000000000000000000000000000000000000000000000000000 DUP2 MSTORE PUSH1 0x4 ADD DUP1 DUP1 PUSH1 0x20 ADD DUP3 DUP2 SUB DUP3 MSTORE PUSH1 0x32 DUP2 MSTORE PUSH1 0x20 ADD DUP1 PUSH2 0x5A58 PUSH1 0x32 SWAP2 CODECOPY PUSH1 0x40 ADD SWAP2 POP POP PUSH1 0x40 MLOAD DUP1 SWAP2 SUB SWAP1 REVERT JUMPDEST PUSH1 0x0 PUSH2 0x163A PUSH2 0xFFD JUMP JUMPDEST SWAP1 POP PUSH1 0x0 DUP2 GT PUSH2 0x16AB JUMPI PUSH1 0x40 DUP1 MLOAD PUSH32 0x8C379A000000000000000000000000000000000000000000000000000000000 DUP2 MSTORE PUSH1 0x20 PUSH1 0x4 DUP3 ADD MSTORE PUSH1 0x1B PUSH1 0x24 DUP3 ADD MSTORE PUSH32 0x54726561737572793A20696E76616C696420626F6E6420726174650000000000 PUSH1 0x44 DUP3 ADD MSTORE SWAP1 MLOAD SWAP1 DUP2 SWAP1 SUB PUSH1 0x64 ADD SWAP1 REVERT JUMPDEST PUSH1 0x0 PUSH2 0x16C3 PUSH8 0xDE0B6B3A7640000 PUSH2 0xE69 DUP8 DUP6 PUSH2 0x4A99 JUMP JUMPDEST PUSH1 0x5 SLOAD PUSH1 0x40 DUP1 MLOAD PUSH32 0x70A0823100000000000000000000000000000000000000000000000000000000 DUP2 MSTORE ADDRESS PUSH1 0x4 DUP3 ADD MSTORE SWAP1 MLOAD SWAP3 SWAP4 POP DUP4 SWAP3 PUSH20 0xFFFFFFFFFFFFFFFFFFFFFFFFFFFFFFFFFFFFFFFF SWAP1 SWAP3 AND SWAP2 PUSH4 0x70A08231 SWAP2 PUSH1 0x24 DUP1 DUP3 ADD SWAP3 PUSH1 0x20 SWAP3 SWAP1 SWAP2 SWAP1 DUP3 SWAP1 SUB ADD DUP2 DUP7 DUP1 EXTCODESIZE ISZERO DUP1 ISZERO PUSH2 0x1739 JUMPI PUSH1 0x0 DUP1 REVERT JUMPDEST POP GAS STATICCALL ISZERO DUP1 ISZERO PUSH2 0x174D JUMPI RETURNDATASIZE PUSH1 0x0 DUP1 RETURNDATACOPY RETURNDATASIZE PUSH1 0x0 REVERT JUMPDEST POP POP POP POP PUSH1 0x40 MLOAD RETURNDATASIZE PUSH1 0x20 DUP2 LT ISZERO PUSH2 0x1763 JUMPI PUSH1 0x0 DUP1 REVERT JUMPDEST POP MLOAD LT ISZERO PUSH2 0x17BC JUMPI PUSH1 0x40 MLOAD PUSH32 0x8C379A000000000000000000000000000000000000000000000000000000000 DUP2 MSTORE PUSH1 0x4 ADD DUP1 DUP1 PUSH1 0x20 ADD DUP3 DUP2 SUB DUP3 MSTORE PUSH1 0x25 DUP2 MSTORE PUSH1 0x20 ADD DUP1 PUSH2 0x58BE PUSH1 0x25 SWAP2 CODECOPY PUSH1 0x40 ADD SWAP2 POP POP PUSH1 0x40 MLOAD DUP1 SWAP2 SUB SWAP1 REVERT JUMPDEST PUSH2 0x17D4 PUSH2 0x17CB PUSH1 0xC SLOAD DUP4 PUSH2 0x4B97 JUMP JUMPDEST PUSH1 0xC SLOAD SWAP1 PUSH2 0x4B55 JUMP JUMPDEST PUSH1 0xC SSTORE PUSH1 0x6 SLOAD PUSH1 0x40 DUP1 MLOAD PUSH32 0x79CC679000000000000000000000000000000000000000000000000000000000 DUP2 MSTORE CALLER PUSH1 0x4 DUP3 ADD MSTORE PUSH1 0x24 DUP2 ADD DUP9 SWAP1 MSTORE SWAP1 MLOAD PUSH20 0xFFFFFFFFFFFFFFFFFFFFFFFFFFFFFFFFFFFFFFFF SWAP1 SWAP3 AND SWAP2 PUSH4 0x79CC6790 SWAP2 PUSH1 0x44 DUP1 DUP3 ADD SWAP3 PUSH1 0x0 SWAP3 SWAP1 SWAP2 SWAP1 DUP3 SWAP1 SUB ADD DUP2 DUP4 DUP8 DUP1 EXTCODESIZE ISZERO DUP1 ISZERO PUSH2 0x1850 JUMPI PUSH1 0x0 DUP1 REVERT JUMPDEST POP GAS CALL ISZERO DUP1 ISZERO PUSH2 0x1864 JUMPI RETURNDATASIZE PUSH1 0x0 DUP1 RETURNDATACOPY RETURNDATASIZE PUSH1 0x0 REVERT JUMPDEST POP POP PUSH1 0x5 SLOAD PUSH2 0x188D SWAP3 POP PUSH20 0xFFFFFFFFFFFFFFFFFFFFFFFFFFFFFFFFFFFFFFFF AND SWAP1 POP CALLER DUP4 PUSH2 0x4C5F JUMP JUMPDEST PUSH2 0x1895 PUSH2 0x4CEC JUMP JUMPDEST PUSH1 0x40 DUP1 MLOAD DUP3 DUP2 MSTORE PUSH1 0x20 DUP2 ADD DUP8 SWAP1 MSTORE DUP2 MLOAD CALLER SWAP3 PUSH32 0x51E0D16595CABC591E64DA08E45BB223577E5B9A39CD947B4DDC3472B2DD8878 SWAP3 DUP3 SWAP1 SUB ADD SWAP1 LOG2 POP POP NUMBER PUSH1 0x0 SWAP1 DUP2 MSTORE PUSH1 0x20 DUP2 DUP2 MSTORE PUSH1 0x40 DUP1 DUP4 KECCAK256 ORIGIN DUP5 MSTORE SWAP1 SWAP2 MSTORE DUP1 DUP3 KECCAK256 DUP1 SLOAD PUSH1 0x1 PUSH32 0xFFFFFFFFFFFFFFFFFFFFFFFFFFFFFFFFFFFFFFFFFFFFFFFFFFFFFFFFFFFFFF00 SWAP2 DUP3 AND DUP2 OR SWAP1 SWAP3 SSTORE CALLER DUP5 MSTORE SWAP2 SWAP1 SWAP3 KECCAK256 DUP1 SLOAD SWAP1 SWAP2 AND SWAP1 SWAP2 OR SWAP1 SSTORE POP POP POP JUMP JUMPDEST PUSH1 0x1 SLOAD PUSH20 0xFFFFFFFFFFFFFFFFFFFFFFFFFFFFFFFFFFFFFFFF AND CALLER EQ PUSH2 0x199D JUMPI PUSH1 0x40 MLOAD PUSH32 0x8C379A000000000000000000000000000000000000000000000000000000000 DUP2 MSTORE PUSH1 0x4 ADD DUP1 DUP1 PUSH1 0x20 ADD DUP3 DUP2 SUB DUP3 MSTORE PUSH1 0x24 DUP2 MSTORE PUSH1 0x20 ADD DUP1 PUSH2 0x59AE PUSH1 0x24 SWAP2 CODECOPY PUSH1 0x40 ADD SWAP2 POP POP PUSH1 0x40 MLOAD DUP1 SWAP2 SUB SWAP1 REVERT JUMPDEST PUSH2 0x4E20 DUP2 GT ISZERO PUSH2 0x1A0E JUMPI PUSH1 0x40 DUP1 MLOAD PUSH32 0x8C379A000000000000000000000000000000000000000000000000000000000 DUP2 MSTORE PUSH1 0x20 PUSH1 0x4 DUP3 ADD MSTORE PUSH1 0x1D PUSH1 0x24 DUP3 ADD MSTORE PUSH32 0x5F646973636F756E7450657263656E74206973206F7665722032303025000000 PUSH1 0x44 DUP3 ADD MSTORE SWAP1 MLOAD SWAP1 DUP2 SWAP1 SUB PUSH1 0x64 ADD SWAP1 REVERT JUMPDEST PUSH1 0x19 SSTORE JUMP JUMPDEST PUSH1 0x1 SLOAD PUSH21 0x10000000000000000000000000000000000000000 SWAP1 DIV PUSH1 0xFF AND DUP2 JUMP JUMPDEST PUSH1 0xB SLOAD DUP2 JUMP JUMPDEST PUSH1 0x11 SLOAD DUP2 JUMP JUMPDEST PUSH1 0x19 SLOAD DUP2 JUMP JUMPDEST PUSH1 0x18 SLOAD DUP2 JUMP JUMPDEST PUSH1 0x1 SLOAD PUSH21 0x10000000000000000000000000000000000000000 SWAP1 DIV PUSH1 0xFF AND SWAP1 JUMP JUMPDEST PUSH1 0x1 SLOAD PUSH20 0xFFFFFFFFFFFFFFFFFFFFFFFFFFFFFFFFFFFFFFFF AND CALLER EQ PUSH2 0x1ADD JUMPI PUSH1 0x40 MLOAD PUSH32 0x8C379A000000000000000000000000000000000000000000000000000000000 DUP2 MSTORE PUSH1 0x4 ADD DUP1 DUP1 PUSH1 0x20 ADD DUP3 DUP2 SUB DUP3 MSTORE PUSH1 0x24 DUP2 MSTORE PUSH1 0x20 ADD DUP1 PUSH2 0x59AE PUSH1 0x24 SWAP2 CODECOPY PUSH1 0x40 ADD SWAP2 POP POP PUSH1 0x40 MLOAD DUP1 SWAP2 SUB SWAP1 REVERT JUMPDEST PUSH1 0xA SLOAD DUP2 LT ISZERO DUP1 ISZERO PUSH2 0x1B09 JUMPI POP PUSH2 0x1B05 PUSH1 0x64 PUSH2 0xE69 PUSH1 0x78 PUSH1 0xA SLOAD PUSH2 0x4A99 SWAP1 SWAP2 SWAP1 PUSH4 0xFFFFFFFF AND JUMP JUMPDEST DUP2 GT ISZERO JUMPDEST PUSH2 0x1B74 JUMPI PUSH1 0x40 DUP1 MLOAD PUSH32 0x8C379A000000000000000000000000000000000000000000000000000000000 DUP2 MSTORE PUSH1 0x20 PUSH1 0x4 DUP3 ADD MSTORE PUSH1 0xC PUSH1 0x24 DUP3 ADD MSTORE PUSH32 0x6F7574206F662072616E67650000000000000000000000000000000000000000 PUSH1 0x44 DUP3 ADD MSTORE SWAP1 MLOAD SWAP1 DUP2 SWAP1 SUB PUSH1 0x64 ADD SWAP1 REVERT JUMPDEST PUSH1 0xB SSTORE JUMP JUMPDEST PUSH1 0x1C SLOAD DUP2 JUMP JUMPDEST PUSH1 0x1 SLOAD PUSH20 0xFFFFFFFFFFFFFFFFFFFFFFFFFFFFFFFFFFFFFFFF AND CALLER EQ PUSH2 0x1BEF JUMPI PUSH1 0x40 MLOAD PUSH32 0x8C379A000000000000000000000000000000000000000000000000000000000 DUP2 MSTORE PUSH1 0x4 ADD DUP1 DUP1 PUSH1 0x20 ADD DUP3 DUP2 SUB DUP3 MSTORE PUSH1 0x24 DUP2 MSTORE PUSH1 0x20 ADD DUP1 PUSH2 0x59AE PUSH1 0x24 SWAP2 CODECOPY PUSH1 0x40 ADD SWAP2 POP POP PUSH1 0x40 MLOAD DUP1 SWAP2 SUB SWAP1 REVERT JUMPDEST PUSH2 0x4E20 DUP2 GT ISZERO PUSH2 0x1C60 JUMPI PUSH1 0x40 DUP1 MLOAD PUSH32 0x8C379A000000000000000000000000000000000000000000000000000000000 DUP2 MSTORE PUSH1 0x20 PUSH1 0x4 DUP3 ADD MSTORE PUSH1 0x1C PUSH1 0x24 DUP3 ADD MSTORE PUSH32 0x5F7072656D69756D50657263656E74206973206F766572203230302500000000 PUSH1 0x44 DUP3 ADD MSTORE SWAP1 MLOAD SWAP1 DUP2 SWAP1 SUB PUSH1 0x64 ADD SWAP1 REVERT JUMPDEST PUSH1 0x1B SSTORE JUMP JUMPDEST PUSH1 0xA SLOAD DUP2 JUMP JUMPDEST PUSH1 0x1F SLOAD PUSH20 0xFFFFFFFFFFFFFFFFFFFFFFFFFFFFFFFFFFFFFFFF AND DUP2 JUMP JUMPDEST PUSH1 0x1 SLOAD PUSH20 0xFFFFFFFFFFFFFFFFFFFFFFFFFFFFFFFFFFFFFFFF AND CALLER EQ PUSH2 0x1CF7 JUMPI PUSH1 0x40 MLOAD PUSH32 0x8C379A000000000000000000000000000000000000000000000000000000000 DUP2 MSTORE PUSH1 0x4 ADD DUP1 DUP1 PUSH1 0x20 ADD DUP3 DUP2 SUB DUP3 MSTORE PUSH1 0x24 DUP2 MSTORE PUSH1 0x20 ADD DUP1 PUSH2 0x59AE PUSH1 0x24 SWAP2 CODECOPY PUSH1 0x40 ADD SWAP2 POP POP PUSH1 0x40 MLOAD DUP1 SWAP2 SUB SWAP1 REVERT JUMPDEST PUSH2 0x2710 DUP2 LT ISZERO DUP1 ISZERO PUSH2 0x1D0B JUMPI POP PUSH2 0x4E20 DUP2 GT ISZERO JUMPDEST PUSH2 0x1D60 JUMPI PUSH1 0x40 MLOAD PUSH32 0x8C379A000000000000000000000000000000000000000000000000000000000 DUP2 MSTORE PUSH1 0x4 ADD DUP1 DUP1 PUSH1 0x20 ADD DUP3 DUP2 SUB DUP3 MSTORE PUSH1 0x29 DUP2 MSTORE PUSH1 0x20 ADD DUP1 PUSH2 0x5934 PUSH1 0x29 SWAP2 CODECOPY PUSH1 0x40 ADD SWAP2 POP POP PUSH1 0x40 MLOAD DUP1 SWAP2 SUB SWAP1 REVERT JUMPDEST PUSH1 0x1C SSTORE JUMP JUMPDEST PUSH1 0x1 SLOAD PUSH20 0xFFFFFFFFFFFFFFFFFFFFFFFFFFFFFFFFFFFFFFFF AND CALLER EQ PUSH2 0x1DD5 JUMPI PUSH1 0x40 MLOAD PUSH32 0x8C379A000000000000000000000000000000000000000000000000000000000 DUP2 MSTORE PUSH1 0x4 ADD DUP1 DUP1 PUSH1 0x20 ADD DUP3 DUP2 SUB DUP3 MSTORE PUSH1 0x24 DUP2 MSTORE PUSH1 0x20 ADD DUP1 PUSH2 0x59AE PUSH1 0x24 SWAP2 CODECOPY PUSH1 0x40 ADD SWAP2 POP POP PUSH1 0x40 MLOAD DUP1 SWAP2 SUB SWAP1 REVERT JUMPDEST PUSH1 0x5 SLOAD PUSH20 0xFFFFFFFFFFFFFFFFFFFFFFFFFFFFFFFFFFFFFFFF DUP5 DUP2 AND SWAP2 AND EQ ISZERO PUSH2 0x1E61 JUMPI PUSH1 0x40 DUP1 MLOAD PUSH32 0x8C379A000000000000000000000000000000000000000000000000000000000 DUP2 MSTORE PUSH1 0x20 PUSH1 0x4 DUP1 DUP4 ADD SWAP2 SWAP1 SWAP2 MSTORE PUSH1 0x24 DUP3 ADD MSTORE PUSH32 0x746F6D6200000000000000000000000000000000000000000000000000000000 PUSH1 0x44 DUP3 ADD MSTORE SWAP1 MLOAD SWAP1 DUP2 SWAP1 SUB PUSH1 0x64 ADD SWAP1 REVERT JUMPDEST PUSH1 0x6 SLOAD PUSH20 0xFFFFFFFFFFFFFFFFFFFFFFFFFFFFFFFFFFFFFFFF DUP5 DUP2 AND SWAP2 AND EQ ISZERO PUSH2 0x1EED JUMPI PUSH1 0x40 DUP1 MLOAD PUSH32 0x8C379A000000000000000000000000000000000000000000000000000000000 DUP2 MSTORE PUSH1 0x20 PUSH1 0x4 DUP1 DUP4 ADD SWAP2 SWAP1 SWAP2 MSTORE PUSH1 0x24 DUP3 ADD MSTORE PUSH32 0x626F6E6400000000000000000000000000000000000000000000000000000000 PUSH1 0x44 DUP3 ADD MSTORE SWAP1 MLOAD SWAP1 DUP2 SWAP1 SUB PUSH1 0x64 ADD SWAP1 REVERT JUMPDEST PUSH1 0x7 SLOAD PUSH20 0xFFFFFFFFFFFFFFFFFFFFFFFFFFFFFFFFFFFFFFFF DUP5 DUP2 AND SWAP2 AND EQ ISZERO PUSH2 0x1F77 JUMPI PUSH1 0x40 DUP1 MLOAD PUSH32 0x8C379A000000000000000000000000000000000000000000000000000000000 DUP2 MSTORE PUSH1 0x20 PUSH1 0x4 DUP3 ADD MSTORE PUSH1 0x5 PUSH1 0x24 DUP3 ADD MSTORE PUSH32 0x7368617265000000000000000000000000000000000000000000000000000000 PUSH1 0x44 DUP3 ADD MSTORE SWAP1 MLOAD SWAP1 DUP2 SWAP1 SUB PUSH1 0x64 ADD SWAP1 REVERT JUMPDEST PUSH2 0x1F98 PUSH20 0xFFFFFFFFFFFFFFFFFFFFFFFFFFFFFFFFFFFFFFFF DUP5 AND DUP3 DUP5 PUSH2 0x4C5F JUMP JUMPDEST POP POP POP JUMP JUMPDEST PUSH2 0x1FA5 PUSH2 0x4C21 JUMP JUMPDEST ISZERO PUSH2 0x1FFB JUMPI PUSH1 0x40 MLOAD PUSH32 0x8C379A000000000000000000000000000000000000000000000000000000000 DUP2 MSTORE PUSH1 0x4 ADD DUP1 DUP1 PUSH1 0x20 ADD DUP3 DUP2 SUB DUP3 MSTORE PUSH1 0x26 DUP2 MSTORE PUSH1 0x20 ADD DUP1 PUSH2 0x59FC PUSH1 0x26 SWAP2 CODECOPY PUSH1 0x40 ADD SWAP2 POP POP PUSH1 0x40 MLOAD DUP1 SWAP2 SUB SWAP1 REVERT JUMPDEST PUSH2 0x2003 PUSH2 0x4C40 JUMP JUMPDEST ISZERO PUSH2 0x2059 JUMPI PUSH1 0x40 MLOAD PUSH32 0x8C379A000000000000000000000000000000000000000000000000000000000 DUP2 MSTORE PUSH1 0x4 ADD DUP1 DUP1 PUSH1 0x20 ADD DUP3 DUP2 SUB DUP3 MSTORE PUSH1 0x26 DUP2 MSTORE PUSH1 0x20 ADD DUP1 PUSH2 0x59FC PUSH1 0x26 SWAP2 CODECOPY PUSH1 0x40 ADD SWAP2 POP POP PUSH1 0x40 MLOAD DUP1 SWAP2 SUB SWAP1 REVERT JUMPDEST PUSH1 0x2 SLOAD TIMESTAMP LT ISZERO PUSH2 0x20CA JUMPI PUSH1 0x40 DUP1 MLOAD PUSH32 0x8C379A000000000000000000000000000000000000000000000000000000000 DUP2 MSTORE PUSH1 0x20 PUSH1 0x4 DUP3 ADD MSTORE PUSH1 0x19 PUSH1 0x24 DUP3 ADD MSTORE PUSH32 0x54726561737572793A206E6F7420737461727465642079657400000000000000 PUSH1 0x44 DUP3 ADD MSTORE SWAP1 MLOAD SWAP1 DUP2 SWAP1 SUB PUSH1 0x64 ADD SWAP1 REVERT JUMPDEST PUSH1 0x5 SLOAD PUSH1 0x40 DUP1 MLOAD PUSH32 0x570CA73500000000000000000000000000000000000000000000000000000000 DUP2 MSTORE SWAP1 MLOAD ADDRESS SWAP3 PUSH20 0xFFFFFFFFFFFFFFFFFFFFFFFFFFFFFFFFFFFFFFFF AND SWAP2 PUSH4 0x570CA735 SWAP2 PUSH1 0x4 DUP1 DUP4 ADD SWAP3 PUSH1 0x20 SWAP3 SWAP2 SWAP1 DUP3 SWAP1 SUB ADD DUP2 DUP7 DUP1 EXTCODESIZE ISZERO DUP1 ISZERO PUSH2 0x2134 JUMPI PUSH1 0x0 DUP1 REVERT JUMPDEST POP GAS STATICCALL ISZERO DUP1 ISZERO PUSH2 0x2148 JUMPI RETURNDATASIZE PUSH1 0x0 DUP1 RETURNDATACOPY RETURNDATASIZE PUSH1 0x0 REVERT JUMPDEST POP POP POP POP PUSH1 0x40 MLOAD RETURNDATASIZE PUSH1 0x20 DUP2 LT ISZERO PUSH2 0x215E JUMPI PUSH1 0x0 DUP1 REVERT JUMPDEST POP MLOAD PUSH20 0xFFFFFFFFFFFFFFFFFFFFFFFFFFFFFFFFFFFFFFFF AND EQ DUP1 ISZERO PUSH2 0x222C JUMPI POP PUSH1 0x6 SLOAD PUSH1 0x40 DUP1 MLOAD PUSH32 0x570CA73500000000000000000000000000000000000000000000000000000000 DUP2 MSTORE SWAP1 MLOAD ADDRESS SWAP3 PUSH20 0xFFFFFFFFFFFFFFFFFFFFFFFFFFFFFFFFFFFFFFFF AND SWAP2 PUSH4 0x570CA735 SWAP2 PUSH1 0x4 DUP1 DUP4 ADD SWAP3 PUSH1 0x20 SWAP3 SWAP2 SWAP1 DUP3 SWAP1 SUB ADD DUP2 DUP7 DUP1 EXTCODESIZE ISZERO DUP1 ISZERO PUSH2 0x21E8 JUMPI PUSH1 0x0 DUP1 REVERT JUMPDEST POP GAS STATICCALL ISZERO DUP1 ISZERO PUSH2 0x21FC JUMPI RETURNDATASIZE PUSH1 0x0 DUP1 RETURNDATACOPY RETURNDATASIZE PUSH1 0x0 REVERT JUMPDEST POP POP POP POP PUSH1 0x40 MLOAD RETURNDATASIZE PUSH1 0x20 DUP2 LT ISZERO PUSH2 0x2212 JUMPI PUSH1 0x0 DUP1 REVERT JUMPDEST POP MLOAD PUSH20 0xFFFFFFFFFFFFFFFFFFFFFFFFFFFFFFFFFFFFFFFF AND EQ JUMPDEST DUP1 ISZERO PUSH2 0x22E1 JUMPI POP PUSH1 0x7 SLOAD PUSH1 0x40 DUP1 MLOAD PUSH32 0x570CA73500000000000000000000000000000000000000000000000000000000 DUP2 MSTORE SWAP1 MLOAD ADDRESS SWAP3 PUSH20 0xFFFFFFFFFFFFFFFFFFFFFFFFFFFFFFFFFFFFFFFF AND SWAP2 PUSH4 0x570CA735 SWAP2 PUSH1 0x4 DUP1 DUP4 ADD SWAP3 PUSH1 0x20 SWAP3 SWAP2 SWAP1 DUP3 SWAP1 SUB ADD DUP2 DUP7 DUP1 EXTCODESIZE ISZERO DUP1 ISZERO PUSH2 0x229D JUMPI PUSH1 0x0 DUP1 REVERT JUMPDEST POP GAS STATICCALL ISZERO DUP1 ISZERO PUSH2 0x22B1 JUMPI RETURNDATASIZE PUSH1 0x0 DUP1 RETURNDATACOPY RETURNDATASIZE PUSH1 0x0 REVERT JUMPDEST POP POP POP POP PUSH1 0x40 MLOAD RETURNDATASIZE PUSH1 0x20 DUP2 LT ISZERO PUSH2 0x22C7 JUMPI PUSH1 0x0 DUP1 REVERT JUMPDEST POP MLOAD PUSH20 0xFFFFFFFFFFFFFFFFFFFFFFFFFFFFFFFFFFFFFFFF AND EQ JUMPDEST DUP1 ISZERO PUSH2 0x2396 JUMPI POP PUSH1 0x8 SLOAD PUSH1 0x40 DUP1 MLOAD PUSH32 0x570CA73500000000000000000000000000000000000000000000000000000000 DUP2 MSTORE SWAP1 MLOAD ADDRESS SWAP3 PUSH20 0xFFFFFFFFFFFFFFFFFFFFFFFFFFFFFFFFFFFFFFFF AND SWAP2 PUSH4 0x570CA735 SWAP2 PUSH1 0x4 DUP1 DUP4 ADD SWAP3 PUSH1 0x20 SWAP3 SWAP2 SWAP1 DUP3 SWAP1 SUB ADD DUP2 DUP7 DUP1 EXTCODESIZE ISZERO DUP1 ISZERO PUSH2 0x2352 JUMPI PUSH1 0x0 DUP1 REVERT JUMPDEST POP GAS STATICCALL ISZERO DUP1 ISZERO PUSH2 0x2366 JUMPI RETURNDATASIZE PUSH1 0x0 DUP1 RETURNDATACOPY RETURNDATASIZE PUSH1 0x0 REVERT JUMPDEST POP POP POP POP PUSH1 0x40 MLOAD RETURNDATASIZE PUSH1 0x20 DUP2 LT ISZERO PUSH2 0x237C JUMPI PUSH1 0x0 DUP1 REVERT JUMPDEST POP MLOAD PUSH20 0xFFFFFFFFFFFFFFFFFFFFFFFFFFFFFFFFFFFFFFFF AND EQ JUMPDEST PUSH2 0x2401 JUMPI PUSH1 0x40 DUP1 MLOAD PUSH32 0x8C379A000000000000000000000000000000000000000000000000000000000 DUP2 MSTORE PUSH1 0x20 PUSH1 0x4 DUP3 ADD MSTORE PUSH1 0x1E PUSH1 0x24 DUP3 ADD MSTORE PUSH32 0x54726561737572793A206E656564206D6F7265207065726D697373696F6E0000 PUSH1 0x44 DUP3 ADD MSTORE SWAP1 MLOAD SWAP1 DUP2 SWAP1 SUB PUSH1 0x64 ADD SWAP1 REVERT JUMPDEST PUSH1 0x0 DUP3 GT PUSH2 0x245A JUMPI PUSH1 0x40 MLOAD PUSH32 0x8C379A000000000000000000000000000000000000000000000000000000000 DUP2 MSTORE PUSH1 0x4 ADD DUP1 DUP1 PUSH1 0x20 ADD DUP3 DUP2 SUB DUP3 MSTORE PUSH1 0x30 DUP2 MSTORE PUSH1 0x20 ADD DUP1 PUSH2 0x5904 PUSH1 0x30 SWAP2 CODECOPY PUSH1 0x40 ADD SWAP2 POP POP PUSH1 0x40 MLOAD DUP1 SWAP2 SUB SWAP1 REVERT JUMPDEST PUSH1 0x0 PUSH2 0x2464 PUSH2 0xBA8 JUMP JUMPDEST SWAP1 POP DUP2 DUP2 EQ PUSH2 0x24D4 JUMPI PUSH1 0x40 DUP1 MLOAD PUSH32 0x8C379A000000000000000000000000000000000000000000000000000000000 DUP2 MSTORE PUSH1 0x20 PUSH1 0x4 DUP3 ADD MSTORE PUSH1 0x1A PUSH1 0x24 DUP3 ADD MSTORE PUSH32 0x54726561737572793A20544F4D42207072696365206D6F766564000000000000 PUSH1 0x44 DUP3 ADD MSTORE SWAP1 MLOAD SWAP1 DUP2 SWAP1 SUB PUSH1 0x64 ADD SWAP1 REVERT JUMPDEST PUSH1 0xA SLOAD DUP2 LT PUSH2 0x252E JUMPI PUSH1 0x40 MLOAD PUSH32 0x8C379A000000000000000000000000000000000000000000000000000000000 DUP2 MSTORE PUSH1 0x4 ADD DUP1 DUP1 PUSH1 0x20 ADD DUP3 DUP2 SUB DUP3 MSTORE PUSH1 0x32 DUP2 MSTORE PUSH1 0x20 ADD DUP1 PUSH2 0x5A58 PUSH1 0x32 SWAP2 CODECOPY PUSH1 0x40 ADD SWAP2 POP POP PUSH1 0x40 MLOAD DUP1 SWAP2 SUB SWAP1 REVERT JUMPDEST PUSH1 0x4 SLOAD DUP4 GT ISZERO PUSH2 0x2589 JUMPI PUSH1 0x40 MLOAD PUSH32 0x8C379A000000000000000000000000000000000000000000000000000000000 DUP2 MSTORE PUSH1 0x4 ADD DUP1 DUP1 PUSH1 0x20 ADD DUP3 DUP2 SUB DUP3 MSTORE PUSH1 0x2A DUP2 MSTORE PUSH1 0x20 ADD DUP1 PUSH2 0x5A8A PUSH1 0x2A SWAP2 CODECOPY PUSH1 0x40 ADD SWAP2 POP POP PUSH1 0x40 MLOAD DUP1 SWAP2 SUB SWAP1 REVERT JUMPDEST PUSH1 0x0 PUSH2 0x2593 PUSH2 0xF52 JUMP JUMPDEST SWAP1 POP PUSH1 0x0 DUP2 GT PUSH2 0x2604 JUMPI PUSH1 0x40 DUP1 MLOAD PUSH32 0x8C379A000000000000000000000000000000000000000000000000000000000 DUP2 MSTORE PUSH1 0x20 PUSH1 0x4 DUP3 ADD MSTORE PUSH1 0x1B PUSH1 0x24 DUP3 ADD MSTORE PUSH32 0x54726561737572793A20696E76616C696420626F6E6420726174650000000000 PUSH1 0x44 DUP3 ADD MSTORE SWAP1 MLOAD SWAP1 DUP2 SWAP1 SUB PUSH1 0x64 ADD SWAP1 REVERT JUMPDEST PUSH1 0x0 PUSH2 0x261C PUSH8 0xDE0B6B3A7640000 PUSH2 0xE69 DUP8 DUP6 PUSH2 0x4A99 JUMP JUMPDEST SWAP1 POP PUSH1 0x0 PUSH1 0x5 PUSH1 0x0 SWAP1 SLOAD SWAP1 PUSH2 0x100 EXP SWAP1 DIV PUSH20 0xFFFFFFFFFFFFFFFFFFFFFFFFFFFFFFFFFFFFFFFF AND PUSH20 0xFFFFFFFFFFFFFFFFFFFFFFFFFFFFFFFFFFFFFFFF AND PUSH4 0x18160DDD PUSH1 0x40 MLOAD DUP2 PUSH4 0xFFFFFFFF AND PUSH1 0xE0 SHL DUP2 MSTORE PUSH1 0x4 ADD PUSH1 0x20 PUSH1 0x40 MLOAD DUP1 DUP4 SUB DUP2 DUP7 DUP1 EXTCODESIZE ISZERO DUP1 ISZERO PUSH2 0x2688 JUMPI PUSH1 0x0 DUP1 REVERT JUMPDEST POP GAS STATICCALL ISZERO DUP1 ISZERO PUSH2 0x269C JUMPI RETURNDATASIZE PUSH1 0x0 DUP1 RETURNDATACOPY RETURNDATASIZE PUSH1 0x0 REVERT JUMPDEST POP POP POP POP PUSH1 0x40 MLOAD RETURNDATASIZE PUSH1 0x20 DUP2 LT ISZERO PUSH2 0x26B2 JUMPI PUSH1 0x0 DUP1 REVERT JUMPDEST POP MLOAD PUSH1 0x6 SLOAD PUSH1 0x40 DUP1 MLOAD PUSH32 0x18160DDD00000000000000000000000000000000000000000000000000000000 DUP2 MSTORE SWAP1 MLOAD SWAP3 SWAP4 POP PUSH1 0x0 SWAP3 PUSH2 0x275D SWAP3 DUP7 SWAP3 PUSH20 0xFFFFFFFFFFFFFFFFFFFFFFFFFFFFFFFFFFFFFFFF SWAP1 SWAP2 AND SWAP2 PUSH4 0x18160DDD SWAP2 PUSH1 0x4 DUP1 DUP3 ADD SWAP3 PUSH1 0x20 SWAP3 SWAP1 SWAP2 SWAP1 DUP3 SWAP1 SUB ADD DUP2 DUP7 DUP1 EXTCODESIZE ISZERO DUP1 ISZERO PUSH2 0x272B JUMPI PUSH1 0x0 DUP1 REVERT JUMPDEST POP GAS STATICCALL ISZERO DUP1 ISZERO PUSH2 0x273F JUMPI RETURNDATASIZE PUSH1 0x0 DUP1 RETURNDATACOPY RETURNDATASIZE PUSH1 0x0 REVERT JUMPDEST POP POP POP POP PUSH1 0x40 MLOAD RETURNDATASIZE PUSH1 0x20 DUP2 LT ISZERO PUSH2 0x2755 JUMPI PUSH1 0x0 DUP1 REVERT JUMPDEST POP MLOAD SWAP1 PUSH2 0x4BAD JUMP JUMPDEST SWAP1 POP PUSH2 0x277A PUSH2 0x2710 PUSH2 0xE69 PUSH1 0x13 SLOAD DUP6 PUSH2 0x4A99 SWAP1 SWAP2 SWAP1 PUSH4 0xFFFFFFFF AND JUMP JUMPDEST DUP2 GT ISZERO PUSH2 0x27E8 JUMPI PUSH1 0x40 DUP1 MLOAD PUSH32 0x8C379A000000000000000000000000000000000000000000000000000000000 DUP2 MSTORE PUSH1 0x20 PUSH1 0x4 DUP3 ADD MSTORE PUSH1 0x13 PUSH1 0x24 DUP3 ADD MSTORE PUSH32 0x6F766572206D6178206465627420726174696F00000000000000000000000000 PUSH1 0x44 DUP3 ADD MSTORE SWAP1 MLOAD SWAP1 DUP2 SWAP1 SUB PUSH1 0x64 ADD SWAP1 REVERT JUMPDEST PUSH1 0x5 SLOAD PUSH1 0x40 DUP1 MLOAD PUSH32 0x79CC679000000000000000000000000000000000000000000000000000000000 DUP2 MSTORE CALLER PUSH1 0x4 DUP3 ADD MSTORE PUSH1 0x24 DUP2 ADD DUP11 SWAP1 MSTORE SWAP1 MLOAD PUSH20 0xFFFFFFFFFFFFFFFFFFFFFFFFFFFFFFFFFFFFFFFF SWAP1 SWAP3 AND SWAP2 PUSH4 0x79CC6790 SWAP2 PUSH1 0x44 DUP1 DUP3 ADD SWAP3 PUSH1 0x0 SWAP3 SWAP1 SWAP2 SWAP1 DUP3 SWAP1 SUB ADD DUP2 DUP4 DUP8 DUP1 EXTCODESIZE ISZERO DUP1 ISZERO PUSH2 0x2861 JUMPI PUSH1 0x0 DUP1 REVERT JUMPDEST POP GAS CALL ISZERO DUP1 ISZERO PUSH2 0x2875 JUMPI RETURNDATASIZE PUSH1 0x0 DUP1 RETURNDATACOPY RETURNDATASIZE PUSH1 0x0 REVERT JUMPDEST POP POP PUSH1 0x6 SLOAD PUSH1 0x40 DUP1 MLOAD PUSH32 0x40C10F1900000000000000000000000000000000000000000000000000000000 DUP2 MSTORE CALLER PUSH1 0x4 DUP3 ADD MSTORE PUSH1 0x24 DUP2 ADD DUP9 SWAP1 MSTORE SWAP1 MLOAD PUSH20 0xFFFFFFFFFFFFFFFFFFFFFFFFFFFFFFFFFFFFFFFF SWAP1 SWAP3 AND SWAP4 POP PUSH4 0x40C10F19 SWAP3 POP PUSH1 0x44 DUP1 DUP3 ADD SWAP3 PUSH1 0x20 SWAP3 SWAP1 SWAP2 SWAP1 DUP3 SWAP1 SUB ADD DUP2 PUSH1 0x0 DUP8 DUP1 EXTCODESIZE ISZERO DUP1 ISZERO PUSH2 0x28F3 JUMPI PUSH1 0x0 DUP1 REVERT JUMPDEST POP GAS CALL ISZERO DUP1 ISZERO PUSH2 0x2907 JUMPI RETURNDATASIZE PUSH1 0x0 DUP1 RETURNDATACOPY RETURNDATASIZE PUSH1 0x0 REVERT JUMPDEST POP POP POP POP PUSH1 0x40 MLOAD RETURNDATASIZE PUSH1 0x20 DUP2 LT ISZERO PUSH2 0x291D JUMPI PUSH1 0x0 DUP1 REVERT JUMPDEST POP POP PUSH1 0x4 SLOAD PUSH2 0x292C SWAP1 DUP9 PUSH2 0x4B55 JUMP JUMPDEST PUSH1 0x4 SSTORE PUSH2 0x2937 PUSH2 0x4CEC JUMP JUMPDEST PUSH1 0x40 DUP1 MLOAD DUP9 DUP2 MSTORE PUSH1 0x20 DUP2 ADD DUP6 SWAP1 MSTORE DUP2 MLOAD CALLER SWAP3 PUSH32 0x73017F1B70789E2E66759EEB3C7EC11F59E6EEDB55D921CFAEC5410DD42A4799 SWAP3 DUP3 SWAP1 SUB ADD SWAP1 LOG2 POP POP NUMBER PUSH1 0x0 SWAP1 DUP2 MSTORE PUSH1 0x20 DUP2 DUP2 MSTORE PUSH1 0x40 DUP1 DUP4 KECCAK256 ORIGIN DUP5 MSTORE SWAP1 SWAP2 MSTORE DUP1 DUP3 KECCAK256 DUP1 SLOAD PUSH1 0x1 PUSH32 0xFFFFFFFFFFFFFFFFFFFFFFFFFFFFFFFFFFFFFFFFFFFFFFFFFFFFFFFFFFFFFF00 SWAP2 DUP3 AND DUP2 OR SWAP1 SWAP3 SSTORE CALLER DUP5 MSTORE SWAP2 SWAP1 SWAP3 KECCAK256 DUP1 SLOAD SWAP1 SWAP2 AND SWAP1 SWAP2 OR SWAP1 SSTORE POP POP POP POP POP JUMP JUMPDEST PUSH1 0x1E SLOAD DUP2 JUMP JUMPDEST PUSH1 0x1 SLOAD PUSH20 0xFFFFFFFFFFFFFFFFFFFFFFFFFFFFFFFFFFFFFFFF AND DUP2 JUMP JUMPDEST PUSH1 0x1 SLOAD PUSH20 0xFFFFFFFFFFFFFFFFFFFFFFFFFFFFFFFFFFFFFFFF AND CALLER EQ PUSH2 0x2A63 JUMPI PUSH1 0x40 MLOAD PUSH32 0x8C379A000000000000000000000000000000000000000000000000000000000 DUP2 MSTORE PUSH1 0x4 ADD DUP1 DUP1 PUSH1 0x20 ADD DUP3 DUP2 SUB DUP3 MSTORE PUSH1 0x24 DUP2 MSTORE PUSH1 0x20 ADD DUP1 PUSH2 0x59AE PUSH1 0x24 SWAP2 CODECOPY PUSH1 0x40 ADD SWAP2 POP POP PUSH1 0x40 MLOAD DUP1 SWAP2 SUB SWAP1 REVERT JUMPDEST PUSH2 0x3E8 DUP2 LT ISZERO DUP1 ISZERO PUSH2 0x2A77 JUMPI POP PUSH2 0x2710 DUP2 GT ISZERO JUMPDEST PUSH2 0x2AE2 JUMPI PUSH1 0x40 DUP1 MLOAD PUSH32 0x8C379A000000000000000000000000000000000000000000000000000000000 DUP2 MSTORE PUSH1 0x20 PUSH1 0x4 DUP3 ADD MSTORE PUSH1 0xC PUSH1 0x24 DUP3 ADD MSTORE PUSH32 0x6F7574206F662072616E67650000000000000000000000000000000000000000 PUSH1 0x44 DUP3 ADD MSTORE SWAP1 MLOAD SWAP1 DUP2 SWAP1 SUB PUSH1 0x64 ADD SWAP1 REVERT JUMPDEST PUSH1 0x13 SSTORE JUMP JUMPDEST PUSH1 0xC SLOAD SWAP1 JUMP JUMPDEST PUSH1 0xC SLOAD DUP2 JUMP JUMPDEST PUSH2 0x2AFB PUSH2 0x4C21 JUMP JUMPDEST ISZERO PUSH2 0x2B51 JUMPI PUSH1 0x40 MLOAD PUSH32 0x8C379A000000000000000000000000000000000000000000000000000000000 DUP2 MSTORE PUSH1 0x4 ADD DUP1 DUP1 PUSH1 0x20 ADD DUP3 DUP2 SUB DUP3 MSTORE PUSH1 0x26 DUP2 MSTORE PUSH1 0x20 ADD DUP1 PUSH2 0x59FC PUSH1 0x26 SWAP2 CODECOPY PUSH1 0x40 ADD SWAP2 POP POP PUSH1 0x40 MLOAD DUP1 SWAP2 SUB SWAP1 REVERT JUMPDEST PUSH2 0x2B59 PUSH2 0x4C40 JUMP JUMPDEST ISZERO PUSH2 0x2BAF JUMPI PUSH1 0x40 MLOAD PUSH32 0x8C379A000000000000000000000000000000000000000000000000000000000 DUP2 MSTORE PUSH1 0x4 ADD DUP1 DUP1 PUSH1 0x20 ADD DUP3 DUP2 SUB DUP3 MSTORE PUSH1 0x26 DUP2 MSTORE PUSH1 0x20 ADD DUP1 PUSH2 0x59FC PUSH1 0x26 SWAP2 CODECOPY PUSH1 0x40 ADD SWAP2 POP POP PUSH1 0x40 MLOAD DUP1 SWAP2 SUB SWAP1 REVERT JUMPDEST PUSH1 0x2 SLOAD TIMESTAMP LT ISZERO PUSH2 0x2C20 JUMPI PUSH1 0x40 DUP1 MLOAD PUSH32 0x8C379A000000000000000000000000000000000000000000000000000000000 DUP2 MSTORE PUSH1 0x20 PUSH1 0x4 DUP3 ADD MSTORE PUSH1 0x19 PUSH1 0x24 DUP3 ADD MSTORE PUSH32 0x54726561737572793A206E6F7420737461727465642079657400000000000000 PUSH1 0x44 DUP3 ADD MSTORE SWAP1 MLOAD SWAP1 DUP2 SWAP1 SUB PUSH1 0x64 ADD SWAP1 REVERT JUMPDEST PUSH2 0x2C28 PUSH2 0x467D JUMP JUMPDEST TIMESTAMP LT ISZERO PUSH2 0x2C96 JUMPI PUSH1 0x40 DUP1 MLOAD PUSH32 0x8C379A000000000000000000000000000000000000000000000000000000000 DUP2 MSTORE PUSH1 0x20 PUSH1 0x4 DUP3 ADD MSTORE PUSH1 0x18 PUSH1 0x24 DUP3 ADD MSTORE PUSH32 0x54726561737572793A206E6F74206F70656E6564207965740000000000000000 PUSH1 0x44 DUP3 ADD MSTORE SWAP1 MLOAD SWAP1 DUP2 SWAP1 SUB PUSH1 0x64 ADD SWAP1 REVERT JUMPDEST PUSH1 0x5 SLOAD PUSH1 0x40 DUP1 MLOAD PUSH32 0x570CA73500000000000000000000000000000000000000000000000000000000 DUP2 MSTORE SWAP1 MLOAD ADDRESS SWAP3 PUSH20 0xFFFFFFFFFFFFFFFFFFFFFFFFFFFFFFFFFFFFFFFF AND SWAP2 PUSH4 0x570CA735 SWAP2 PUSH1 0x4 DUP1 DUP4 ADD SWAP3 PUSH1 0x20 SWAP3 SWAP2 SWAP1 DUP3 SWAP1 SUB ADD DUP2 DUP7 DUP1 EXTCODESIZE ISZERO DUP1 ISZERO PUSH2 0x2D00 JUMPI PUSH1 0x0 DUP1 REVERT JUMPDEST POP GAS STATICCALL ISZERO DUP1 ISZERO PUSH2 0x2D14 JUMPI RETURNDATASIZE PUSH1 0x0 DUP1 RETURNDATACOPY RETURNDATASIZE PUSH1 0x0 REVERT JUMPDEST POP POP POP POP PUSH1 0x40 MLOAD RETURNDATASIZE PUSH1 0x20 DUP2 LT ISZERO PUSH2 0x2D2A JUMPI PUSH1 0x0 DUP1 REVERT JUMPDEST POP MLOAD PUSH20 0xFFFFFFFFFFFFFFFFFFFFFFFFFFFFFFFFFFFFFFFF AND EQ DUP1 ISZERO PUSH2 0x2DF8 JUMPI POP PUSH1 0x6 SLOAD PUSH1 0x40 DUP1 MLOAD PUSH32 0x570CA73500000000000000000000000000000000000000000000000000000000 DUP2 MSTORE SWAP1 MLOAD ADDRESS SWAP3 PUSH20 0xFFFFFFFFFFFFFFFFFFFFFFFFFFFFFFFFFFFFFFFF AND SWAP2 PUSH4 0x570CA735 SWAP2 PUSH1 0x4 DUP1 DUP4 ADD SWAP3 PUSH1 0x20 SWAP3 SWAP2 SWAP1 DUP3 SWAP1 SUB ADD DUP2 DUP7 DUP1 EXTCODESIZE ISZERO DUP1 ISZERO PUSH2 0x2DB4 JUMPI PUSH1 0x0 DUP1 REVERT JUMPDEST POP GAS STATICCALL ISZERO DUP1 ISZERO PUSH2 0x2DC8 JUMPI RETURNDATASIZE PUSH1 0x0 DUP1 RETURNDATACOPY RETURNDATASIZE PUSH1 0x0 REVERT JUMPDEST POP POP POP POP PUSH1 0x40 MLOAD RETURNDATASIZE PUSH1 0x20 DUP2 LT ISZERO PUSH2 0x2DDE JUMPI PUSH1 0x0 DUP1 REVERT JUMPDEST POP MLOAD PUSH20 0xFFFFFFFFFFFFFFFFFFFFFFFFFFFFFFFFFFFFFFFF AND EQ JUMPDEST DUP1 ISZERO PUSH2 0x2EAD JUMPI POP PUSH1 0x7 SLOAD PUSH1 0x40 DUP1 MLOAD PUSH32 0x570CA73500000000000000000000000000000000000000000000000000000000 DUP2 MSTORE SWAP1 MLOAD ADDRESS SWAP3 PUSH20 0xFFFFFFFFFFFFFFFFFFFFFFFFFFFFFFFFFFFFFFFF AND SWAP2 PUSH4 0x570CA735 SWAP2 PUSH1 0x4 DUP1 DUP4 ADD SWAP3 PUSH1 0x20 SWAP3 SWAP2 SWAP1 DUP3 SWAP1 SUB ADD DUP2 DUP7 DUP1 EXTCODESIZE ISZERO DUP1 ISZERO PUSH2 0x2E69 JUMPI PUSH1 0x0 DUP1 REVERT JUMPDEST POP GAS STATICCALL ISZERO DUP1 ISZERO PUSH2 0x2E7D JUMPI RETURNDATASIZE PUSH1 0x0 DUP1 RETURNDATACOPY RETURNDATASIZE PUSH1 0x0 REVERT JUMPDEST POP POP POP POP PUSH1 0x40 MLOAD RETURNDATASIZE PUSH1 0x20 DUP2 LT ISZERO PUSH2 0x2E93 JUMPI PUSH1 0x0 DUP1 REVERT JUMPDEST POP MLOAD PUSH20 0xFFFFFFFFFFFFFFFFFFFFFFFFFFFFFFFFFFFFFFFF AND EQ JUMPDEST DUP1 ISZERO PUSH2 0x2F62 JUMPI POP PUSH1 0x8 SLOAD PUSH1 0x40 DUP1 MLOAD PUSH32 0x570CA73500000000000000000000000000000000000000000000000000000000 DUP2 MSTORE SWAP1 MLOAD ADDRESS SWAP3 PUSH20 0xFFFFFFFFFFFFFFFFFFFFFFFFFFFFFFFFFFFFFFFF AND SWAP2 PUSH4 0x570CA735 SWAP2 PUSH1 0x4 DUP1 DUP4 ADD SWAP3 PUSH1 0x20 SWAP3 SWAP2 SWAP1 DUP3 SWAP1 SUB ADD DUP2 DUP7 DUP1 EXTCODESIZE ISZERO DUP1 ISZERO PUSH2 0x2F1E JUMPI PUSH1 0x0 DUP1 REVERT JUMPDEST POP GAS STATICCALL ISZERO DUP1 ISZERO PUSH2 0x2F32 JUMPI RETURNDATASIZE PUSH1 0x0 DUP1 RETURNDATACOPY RETURNDATASIZE PUSH1 0x0 REVERT JUMPDEST POP POP POP POP PUSH1 0x40 MLOAD RETURNDATASIZE PUSH1 0x20 DUP2 LT ISZERO PUSH2 0x2F48 JUMPI PUSH1 0x0 DUP1 REVERT JUMPDEST POP MLOAD PUSH20 0xFFFFFFFFFFFFFFFFFFFFFFFFFFFFFFFFFFFFFFFF AND EQ JUMPDEST PUSH2 0x2FCD JUMPI PUSH1 0x40 DUP1 MLOAD PUSH32 0x8C379A000000000000000000000000000000000000000000000000000000000 DUP2 MSTORE PUSH1 0x20 PUSH1 0x4 DUP3 ADD MSTORE PUSH1 0x1E PUSH1 0x24 DUP3 ADD MSTORE PUSH32 0x54726561737572793A206E656564206D6F7265207065726D697373696F6E0000 PUSH1 0x44 DUP3 ADD MSTORE SWAP1 MLOAD SWAP1 DUP2 SWAP1 SUB PUSH1 0x64 ADD SWAP1 REVERT JUMPDEST PUSH2 0x2FD5 PUSH2 0x4CEC JUMP JUMPDEST PUSH2 0x2FDD PUSH2 0xBA8 JUMP JUMPDEST PUSH1 0x16 DUP2 SWAP1 SSTORE POP PUSH1 0x0 PUSH2 0x3085 PUSH1 0xC SLOAD PUSH1 0x5 PUSH1 0x0 SWAP1 SLOAD SWAP1 PUSH2 0x100 EXP SWAP1 DIV PUSH20 0xFFFFFFFFFFFFFFFFFFFFFFFFFFFFFFFFFFFFFFFF AND PUSH20 0xFFFFFFFFFFFFFFFFFFFFFFFFFFFFFFFFFFFFFFFF AND PUSH4 0x18160DDD PUSH1 0x40 MLOAD DUP2 PUSH4 0xFFFFFFFF AND PUSH1 0xE0 SHL DUP2 MSTORE PUSH1 0x4 ADD PUSH1 0x20 PUSH1 0x40 MLOAD DUP1 DUP4 SUB DUP2 DUP7 DUP1 EXTCODESIZE ISZERO DUP1 ISZERO PUSH2 0x3053 JUMPI PUSH1 0x0 DUP1 REVERT JUMPDEST POP GAS STATICCALL ISZERO DUP1 ISZERO PUSH2 0x3067 JUMPI RETURNDATASIZE PUSH1 0x0 DUP1 RETURNDATACOPY RETURNDATASIZE PUSH1 0x0 REVERT JUMPDEST POP POP POP POP PUSH1 0x40 MLOAD RETURNDATASIZE PUSH1 0x20 DUP2 LT ISZERO PUSH2 0x307D JUMPI PUSH1 0x0 DUP1 REVERT JUMPDEST POP MLOAD SWAP1 PUSH2 0x4B55 JUMP JUMPDEST SWAP1 POP PUSH1 0x14 SLOAD PUSH1 0x3 SLOAD LT ISZERO PUSH2 0x30BB JUMPI PUSH2 0x30B6 PUSH2 0x30B1 PUSH2 0x2710 PUSH2 0xE69 PUSH1 0x15 SLOAD DUP6 PUSH2 0x4A99 SWAP1 SWAP2 SWAP1 PUSH4 0xFFFFFFFF AND JUMP JUMPDEST PUSH2 0x4D6A JUMP JUMPDEST PUSH2 0x3354 JUMP JUMPDEST PUSH1 0xB SLOAD PUSH1 0x16 SLOAD GT ISZERO PUSH2 0x3354 JUMPI PUSH1 0x6 SLOAD PUSH1 0x40 DUP1 MLOAD PUSH32 0x18160DDD00000000000000000000000000000000000000000000000000000000 DUP2 MSTORE SWAP1 MLOAD PUSH1 0x0 SWAP3 PUSH20 0xFFFFFFFFFFFFFFFFFFFFFFFFFFFFFFFFFFFFFFFF AND SWAP2 PUSH4 0x18160DDD SWAP2 PUSH1 0x4 DUP1 DUP4 ADD SWAP3 PUSH1 0x20 SWAP3 SWAP2 SWAP1 DUP3 SWAP1 SUB ADD DUP2 DUP7 DUP1 EXTCODESIZE ISZERO DUP1 ISZERO PUSH2 0x3132 JUMPI PUSH1 0x0 DUP1 REVERT JUMPDEST POP GAS STATICCALL ISZERO DUP1 ISZERO PUSH2 0x3146 JUMPI RETURNDATASIZE PUSH1 0x0 DUP1 RETURNDATACOPY RETURNDATASIZE PUSH1 0x0 REVERT JUMPDEST POP POP POP POP PUSH1 0x40 MLOAD RETURNDATASIZE PUSH1 0x20 DUP2 LT ISZERO PUSH2 0x315C JUMPI PUSH1 0x0 DUP1 REVERT JUMPDEST POP MLOAD PUSH1 0xA SLOAD PUSH1 0x16 SLOAD SWAP2 SWAP3 POP PUSH1 0x0 SWAP2 PUSH2 0x3173 SWAP2 PUSH2 0x4B55 JUMP JUMPDEST SWAP1 POP PUSH1 0x0 DUP1 PUSH1 0x0 PUSH2 0x318D PUSH6 0x5AF3107A4000 PUSH2 0xFC1 DUP9 PUSH2 0x5165 JUMP JUMPDEST SWAP1 POP DUP1 DUP5 GT ISZERO PUSH2 0x319B JUMPI DUP1 SWAP4 POP JUMPDEST PUSH2 0x31B6 PUSH2 0x2710 PUSH2 0xE69 PUSH1 0x10 SLOAD DUP9 PUSH2 0x4A99 SWAP1 SWAP2 SWAP1 PUSH4 0xFFFFFFFF AND JUMP JUMPDEST PUSH1 0xC SLOAD LT PUSH2 0x31DB JUMPI PUSH2 0x31D4 PUSH8 0xDE0B6B3A7640000 PUSH2 0xE69 DUP9 DUP8 PUSH2 0x4A99 JUMP JUMPDEST SWAP2 POP PUSH2 0x3247 JUMP JUMPDEST PUSH1 0x0 PUSH2 0x31F3 PUSH8 0xDE0B6B3A7640000 PUSH2 0xE69 DUP10 DUP9 PUSH2 0x4A99 JUMP JUMPDEST SWAP1 POP PUSH2 0x3210 PUSH2 0x2710 PUSH2 0xE69 PUSH1 0x11 SLOAD DUP5 PUSH2 0x4A99 SWAP1 SWAP2 SWAP1 PUSH4 0xFFFFFFFF AND JUMP JUMPDEST SWAP3 POP PUSH2 0x321C DUP2 DUP5 PUSH2 0x4B55 JUMP JUMPDEST PUSH1 0x1C SLOAD SWAP1 SWAP5 POP ISZERO PUSH2 0x3245 JUMPI PUSH2 0x3242 PUSH2 0x2710 PUSH2 0xE69 PUSH1 0x1C SLOAD DUP8 PUSH2 0x4A99 SWAP1 SWAP2 SWAP1 PUSH4 0xFFFFFFFF AND JUMP JUMPDEST SWAP4 POP JUMPDEST POP JUMPDEST DUP2 ISZERO PUSH2 0x3256 JUMPI PUSH2 0x3256 DUP3 PUSH2 0x4D6A JUMP JUMPDEST DUP3 ISZERO PUSH2 0x334E JUMPI PUSH1 0xC SLOAD PUSH2 0x3269 SWAP1 DUP5 PUSH2 0x4BAD JUMP JUMPDEST PUSH1 0xC SSTORE PUSH1 0x5 SLOAD PUSH1 0x40 DUP1 MLOAD PUSH32 0x40C10F1900000000000000000000000000000000000000000000000000000000 DUP2 MSTORE ADDRESS PUSH1 0x4 DUP3 ADD MSTORE PUSH1 0x24 DUP2 ADD DUP7 SWAP1 MSTORE SWAP1 MLOAD PUSH20 0xFFFFFFFFFFFFFFFFFFFFFFFFFFFFFFFFFFFFFFFF SWAP1 SWAP3 AND SWAP2 PUSH4 0x40C10F19 SWAP2 PUSH1 0x44 DUP1 DUP3 ADD SWAP3 PUSH1 0x20 SWAP3 SWAP1 SWAP2 SWAP1 DUP3 SWAP1 SUB ADD DUP2 PUSH1 0x0 DUP8 DUP1 EXTCODESIZE ISZERO DUP1 ISZERO PUSH2 0x32E6 JUMPI PUSH1 0x0 DUP1 REVERT JUMPDEST POP GAS CALL ISZERO DUP1 ISZERO PUSH2 0x32FA JUMPI RETURNDATASIZE PUSH1 0x0 DUP1 RETURNDATACOPY RETURNDATASIZE PUSH1 0x0 REVERT JUMPDEST POP POP POP POP PUSH1 0x40 MLOAD RETURNDATASIZE PUSH1 0x20 DUP2 LT ISZERO PUSH2 0x3310 JUMPI PUSH1 0x0 DUP1 REVERT JUMPDEST POP POP PUSH1 0x40 DUP1 MLOAD TIMESTAMP DUP2 MSTORE PUSH1 0x20 DUP2 ADD DUP6 SWAP1 MSTORE DUP2 MLOAD PUSH32 0xF705142BF09F04297640495DDF7C59B7FD6F51894C5AEA9602D631CF05F0EFC2 SWAP3 SWAP2 DUP2 SWAP1 SUB SWAP1 SWAP2 ADD SWAP1 LOG1 JUMPDEST POP POP POP POP POP JUMPDEST POP PUSH1 0x3 SLOAD PUSH2 0x3363 SWAP1 PUSH1 0x1 PUSH2 0x4BAD JUMP JUMPDEST PUSH1 0x3 SSTORE PUSH1 0xB SLOAD PUSH2 0x3371 PUSH2 0xBA8 JUMP JUMPDEST GT PUSH2 0x3421 JUMPI PUSH2 0x341C PUSH2 0x2710 PUSH2 0xE69 PUSH1 0x12 SLOAD PUSH1 0x5 PUSH1 0x0 SWAP1 SLOAD SWAP1 PUSH2 0x100 EXP SWAP1 DIV PUSH20 0xFFFFFFFFFFFFFFFFFFFFFFFFFFFFFFFFFFFFFFFF AND PUSH20 0xFFFFFFFFFFFFFFFFFFFFFFFFFFFFFFFFFFFFFFFF AND PUSH4 0x18160DDD PUSH1 0x40 MLOAD DUP2 PUSH4 0xFFFFFFFF AND PUSH1 0xE0 SHL DUP2 MSTORE PUSH1 0x4 ADD PUSH1 0x20 PUSH1 0x40 MLOAD DUP1 DUP4 SUB DUP2 DUP7 DUP1 EXTCODESIZE ISZERO DUP1 ISZERO PUSH2 0x33EA JUMPI PUSH1 0x0 DUP1 REVERT JUMPDEST POP GAS STATICCALL ISZERO DUP1 ISZERO PUSH2 0x33FE JUMPI RETURNDATASIZE PUSH1 0x0 DUP1 RETURNDATACOPY RETURNDATASIZE PUSH1 0x0 REVERT JUMPDEST POP POP POP POP PUSH1 0x40 MLOAD RETURNDATASIZE PUSH1 0x20 DUP2 LT ISZERO PUSH2 0x3414 JUMPI PUSH1 0x0 DUP1 REVERT JUMPDEST POP MLOAD SWAP1 PUSH2 0x4A99 JUMP JUMPDEST PUSH2 0x3424 JUMP JUMPDEST PUSH1 0x0 JUMPDEST PUSH1 0x4 SSTORE NUMBER PUSH1 0x0 SWAP1 DUP2 MSTORE PUSH1 0x20 DUP2 DUP2 MSTORE PUSH1 0x40 DUP1 DUP4 KECCAK256 ORIGIN DUP5 MSTORE SWAP1 SWAP2 MSTORE DUP1 DUP3 KECCAK256 DUP1 SLOAD PUSH1 0x1 PUSH32 0xFFFFFFFFFFFFFFFFFFFFFFFFFFFFFFFFFFFFFFFFFFFFFFFFFFFFFFFFFFFFFF00 SWAP2 DUP3 AND DUP2 OR SWAP1 SWAP3 SSTORE CALLER DUP5 MSTORE SWAP2 SWAP1 SWAP3 KECCAK256 DUP1 SLOAD SWAP1 SWAP2 AND SWAP1 SWAP2 OR SWAP1 SSTORE JUMP JUMPDEST PUSH1 0x1 SLOAD PUSH20 0xFFFFFFFFFFFFFFFFFFFFFFFFFFFFFFFFFFFFFFFF AND CALLER EQ PUSH2 0x34F0 JUMPI PUSH1 0x40 MLOAD PUSH32 0x8C379A000000000000000000000000000000000000000000000000000000000 DUP2 MSTORE PUSH1 0x4 ADD DUP1 DUP1 PUSH1 0x20 ADD DUP3 DUP2 SUB DUP3 MSTORE PUSH1 0x24 DUP2 MSTORE PUSH1 0x20 ADD DUP1 PUSH2 0x59AE PUSH1 0x24 SWAP2 CODECOPY PUSH1 0x40 ADD SWAP2 POP POP PUSH1 0x40 MLOAD DUP1 SWAP2 SUB SWAP1 REVERT JUMPDEST PUSH1 0x8 SLOAD PUSH1 0x40 DUP1 MLOAD PUSH32 0xB3AB15FB00000000000000000000000000000000000000000000000000000000 DUP2 MSTORE PUSH20 0xFFFFFFFFFFFFFFFFFFFFFFFFFFFFFFFFFFFFFFFF DUP5 DUP2 AND PUSH1 0x4 DUP4 ADD MSTORE SWAP2 MLOAD SWAP2 SWAP1 SWAP3 AND SWAP2 PUSH4 0xB3AB15FB SWAP2 PUSH1 0x24 DUP1 DUP4 ADD SWAP3 PUSH1 0x0 SWAP3 SWAP2 SWAP1 DUP3 SWAP1 SUB ADD DUP2 DUP4 DUP8 DUP1 EXTCODESIZE ISZERO DUP1 ISZERO PUSH2 0x3564 JUMPI PUSH1 0x0 DUP1 REVERT JUMPDEST POP GAS CALL ISZERO DUP1 ISZERO PUSH2 0x3578 JUMPI RETURNDATASIZE PUSH1 0x0 DUP1 RETURNDATACOPY RETURNDATASIZE PUSH1 0x0 REVERT JUMPDEST POP POP POP POP POP JUMP JUMPDEST PUSH1 0x8 SLOAD PUSH20 0xFFFFFFFFFFFFFFFFFFFFFFFFFFFFFFFFFFFFFFFF AND DUP2 JUMP JUMPDEST PUSH1 0x0 DUP1 PUSH2 0x35A6 PUSH2 0xBA8 JUMP JUMPDEST SWAP1 POP PUSH1 0xB SLOAD DUP2 GT ISZERO PUSH2 0xF4E JUMPI PUSH1 0x5 SLOAD PUSH1 0x40 DUP1 MLOAD PUSH32 0x70A0823100000000000000000000000000000000000000000000000000000000 DUP2 MSTORE ADDRESS PUSH1 0x4 DUP3 ADD MSTORE SWAP1 MLOAD PUSH1 0x0 SWAP3 PUSH20 0xFFFFFFFFFFFFFFFFFFFFFFFFFFFFFFFFFFFFFFFF AND SWAP2 PUSH4 0x70A08231 SWAP2 PUSH1 0x24 DUP1 DUP4 ADD SWAP3 PUSH1 0x20 SWAP3 SWAP2 SWAP1 DUP3 SWAP1 SUB ADD DUP2 DUP7 DUP1 EXTCODESIZE ISZERO DUP1 ISZERO PUSH2 0x3623 JUMPI PUSH1 0x0 DUP1 REVERT JUMPDEST POP GAS STATICCALL ISZERO DUP1 ISZERO PUSH2 0x3637 JUMPI RETURNDATASIZE PUSH1 0x0 DUP1 RETURNDATACOPY RETURNDATASIZE PUSH1 0x0 REVERT JUMPDEST POP POP POP POP PUSH1 0x40 MLOAD RETURNDATASIZE PUSH1 0x20 DUP2 LT ISZERO PUSH2 0x364D JUMPI PUSH1 0x0 DUP1 REVERT JUMPDEST POP MLOAD SWAP1 POP PUSH1 0x0 PUSH2 0x365B PUSH2 0xFFD JUMP JUMPDEST SWAP1 POP DUP1 ISZERO PUSH2 0xFF7 JUMPI PUSH2 0x3679 DUP2 PUSH2 0xE69 DUP5 PUSH8 0xDE0B6B3A7640000 PUSH2 0x4A99 JUMP JUMPDEST SWAP4 POP POP POP POP SWAP1 JUMP JUMPDEST PUSH1 0x1 SLOAD PUSH20 0xFFFFFFFFFFFFFFFFFFFFFFFFFFFFFFFFFFFFFFFF AND CALLER EQ PUSH2 0x36F1 JUMPI PUSH1 0x40 MLOAD PUSH32 0x8C379A000000000000000000000000000000000000000000000000000000000 DUP2 MSTORE PUSH1 0x4 ADD DUP1 DUP1 PUSH1 0x20 ADD DUP3 DUP2 SUB DUP3 MSTORE PUSH1 0x24 DUP2 MSTORE PUSH1 0x20 ADD DUP1 PUSH2 0x59AE PUSH1 0x24 SWAP2 CODECOPY PUSH1 0x40 ADD SWAP2 POP POP PUSH1 0x40 MLOAD DUP1 SWAP2 SUB SWAP1 REVERT JUMPDEST PUSH1 0x8 SLOAD PUSH1 0x40 DUP1 MLOAD PUSH32 0x2FFAAA0900000000000000000000000000000000000000000000000000000000 DUP2 MSTORE PUSH1 0x4 DUP2 ADD DUP6 SWAP1 MSTORE PUSH1 0x24 DUP2 ADD DUP5 SWAP1 MSTORE SWAP1 MLOAD PUSH20 0xFFFFFFFFFFFFFFFFFFFFFFFFFFFFFFFFFFFFFFFF SWAP1 SWAP3 AND SWAP2 PUSH4 0x2FFAAA09 SWAP2 PUSH1 0x44 DUP1 DUP3 ADD SWAP3 PUSH1 0x0 SWAP3 SWAP1 SWAP2 SWAP1 DUP3 SWAP1 SUB ADD DUP2 DUP4 DUP8 DUP1 EXTCODESIZE ISZERO DUP1 ISZERO PUSH2 0x376B JUMPI PUSH1 0x0 DUP1 REVERT JUMPDEST POP GAS CALL ISZERO DUP1 ISZERO PUSH2 0x377F JUMPI RETURNDATASIZE PUSH1 0x0 DUP1 RETURNDATACOPY RETURNDATASIZE PUSH1 0x0 REVERT JUMPDEST POP POP POP POP POP POP JUMP JUMPDEST PUSH1 0x1 SLOAD PUSH20 0xFFFFFFFFFFFFFFFFFFFFFFFFFFFFFFFFFFFFFFFF AND CALLER EQ PUSH2 0x37F7 JUMPI PUSH1 0x40 MLOAD PUSH32 0x8C379A000000000000000000000000000000000000000000000000000000000 DUP2 MSTORE PUSH1 0x4 ADD DUP1 DUP1 PUSH1 0x20 ADD DUP3 DUP2 SUB DUP3 MSTORE PUSH1 0x24 DUP2 MSTORE PUSH1 0x20 ADD DUP1 PUSH2 0x59AE PUSH1 0x24 SWAP2 CODECOPY PUSH1 0x40 ADD SWAP2 POP POP PUSH1 0x40 MLOAD DUP1 SWAP2 SUB SWAP1 REVERT JUMPDEST PUSH1 0x9 DUP1 SLOAD PUSH32 0xFFFFFFFFFFFFFFFFFFFFFFFF0000000000000000000000000000000000000000 AND PUSH20 0xFFFFFFFFFFFFFFFFFFFFFFFFFFFFFFFFFFFFFFFF SWAP3 SWAP1 SWAP3 AND SWAP2 SWAP1 SWAP2 OR SWAP1 SSTORE JUMP JUMPDEST PUSH1 0x2 SLOAD DUP2 JUMP JUMPDEST PUSH1 0x10 SLOAD DUP2 JUMP JUMPDEST PUSH1 0x15 SLOAD DUP2 JUMP JUMPDEST PUSH1 0x1 SLOAD PUSH20 0xFFFFFFFFFFFFFFFFFFFFFFFFFFFFFFFFFFFFFFFF AND CALLER EQ PUSH2 0x38C0 JUMPI PUSH1 0x40 MLOAD PUSH32 0x8C379A000000000000000000000000000000000000000000000000000000000 DUP2 MSTORE PUSH1 0x4 ADD DUP1 DUP1 PUSH1 0x20 ADD DUP3 DUP2 SUB DUP3 MSTORE PUSH1 0x24 DUP2 MSTORE PUSH1 0x20 ADD DUP1 PUSH2 0x59AE PUSH1 0x24 SWAP2 CODECOPY PUSH1 0x40 ADD SWAP2 POP POP PUSH1 0x40 MLOAD DUP1 SWAP2 SUB SWAP1 REVERT JUMPDEST PUSH2 0x1F4 DUP2 LT ISZERO DUP1 ISZERO PUSH2 0x38D4 JUMPI POP PUSH2 0x2710 DUP2 GT ISZERO JUMPDEST PUSH2 0x393F JUMPI PUSH1 0x40 DUP1 MLOAD PUSH32 0x8C379A000000000000000000000000000000000000000000000000000000000 DUP2 MSTORE PUSH1 0x20 PUSH1 0x4 DUP3 ADD MSTORE PUSH1 0xC PUSH1 0x24 DUP3 ADD MSTORE PUSH32 0x6F7574206F662072616E67650000000000000000000000000000000000000000 PUSH1 0x44 DUP3 ADD MSTORE SWAP1 MLOAD SWAP1 DUP2 SWAP1 SUB PUSH1 0x64 ADD SWAP1 REVERT JUMPDEST PUSH1 0x10 SSTORE JUMP JUMPDEST PUSH1 0x1D SLOAD PUSH20 0xFFFFFFFFFFFFFFFFFFFFFFFFFFFFFFFFFFFFFFFF AND DUP2 JUMP JUMPDEST PUSH1 0x3 SLOAD DUP2 JUMP JUMPDEST PUSH1 0x1 SLOAD PUSH20 0xFFFFFFFFFFFFFFFFFFFFFFFFFFFFFFFFFFFFFFFF AND CALLER EQ PUSH2 0x39D6 JUMPI PUSH1 0x40 MLOAD PUSH32 0x8C379A000000000000000000000000000000000000000000000000000000000 DUP2 MSTORE PUSH1 0x4 ADD DUP1 DUP1 PUSH1 0x20 ADD DUP3 DUP2 SUB DUP3 MSTORE PUSH1 0x24 DUP2 MSTORE PUSH1 0x20 ADD DUP1 PUSH2 0x59AE PUSH1 0x24 SWAP2 CODECOPY PUSH1 0x40 ADD SWAP2 POP POP PUSH1 0x40 MLOAD DUP1 SWAP2 SUB SWAP1 REVERT JUMPDEST PUSH1 0x78 DUP3 GT ISZERO PUSH2 0x3A46 JUMPI PUSH1 0x40 DUP1 MLOAD PUSH32 0x8C379A000000000000000000000000000000000000000000000000000000000 DUP2 MSTORE PUSH1 0x20 PUSH1 0x4 DUP3 ADD MSTORE PUSH1 0x1E PUSH1 0x24 DUP3 ADD MSTORE PUSH32 0x5F626F6F74737472617045706F6368733A206F7574206F662072616E67650000 PUSH1 0x44 DUP3 ADD MSTORE SWAP1 MLOAD SWAP1 DUP2 SWAP1 SUB PUSH1 0x64 ADD SWAP1 REVERT JUMPDEST PUSH1 0x64 DUP2 LT ISZERO DUP1 ISZERO PUSH2 0x3A59 JUMPI POP PUSH2 0x3E8 DUP2 GT ISZERO JUMPDEST PUSH2 0x3AAE JUMPI PUSH1 0x40 MLOAD PUSH32 0x8C379A000000000000000000000000000000000000000000000000000000000 DUP2 MSTORE PUSH1 0x4 ADD DUP1 DUP1 PUSH1 0x20 ADD DUP3 DUP2 SUB DUP3 MSTORE PUSH1 0x2E DUP2 MSTORE PUSH1 0x20 ADD DUP1 PUSH2 0x5AB4 PUSH1 0x2E SWAP2 CODECOPY PUSH1 0x40 ADD SWAP2 POP POP PUSH1 0x40 MLOAD DUP1 SWAP2 SUB SWAP1 REVERT JUMPDEST PUSH1 0x14 SWAP2 SWAP1 SWAP2 SSTORE PUSH1 0x15 SSTORE JUMP JUMPDEST PUSH1 0x1 SLOAD PUSH1 0x0 SWAP1 PUSH20 0xFFFFFFFFFFFFFFFFFFFFFFFFFFFFFFFFFFFFFFFF AND CALLER EQ PUSH2 0x3B2C JUMPI PUSH1 0x40 MLOAD PUSH32 0x8C379A000000000000000000000000000000000000000000000000000000000 DUP2 MSTORE PUSH1 0x4 ADD DUP1 DUP1 PUSH1 0x20 ADD DUP3 DUP2 SUB DUP3 MSTORE PUSH1 0x24 DUP2 MSTORE PUSH1 0x20 ADD DUP1 PUSH2 0x59AE PUSH1 0x24 SWAP2 CODECOPY PUSH1 0x40 ADD SWAP2 POP POP PUSH1 0x40 MLOAD DUP1 SWAP2 SUB SWAP1 REVERT JUMPDEST PUSH1 0x9 DUP4 PUSH1 0xFF AND LT PUSH2 0x3B88 JUMPI PUSH1 0x40 MLOAD PUSH32 0x8C379A000000000000000000000000000000000000000000000000000000000 DUP2 MSTORE PUSH1 0x4 ADD DUP1 DUP1 PUSH1 0x20 ADD DUP3 DUP2 SUB DUP3 MSTORE PUSH1 0x29 DUP2 MSTORE PUSH1 0x20 ADD DUP1 PUSH2 0x5985 PUSH1 0x29 SWAP2 CODECOPY PUSH1 0x40 ADD SWAP2 POP POP PUSH1 0x40 MLOAD DUP1 SWAP2 SUB SWAP1 REVERT JUMPDEST PUSH1 0xFF DUP4 AND ISZERO PUSH2 0x3BBA JUMPI PUSH1 0xD PUSH1 0x1 DUP5 SUB PUSH1 0xFF AND DUP2 SLOAD DUP2 LT PUSH2 0x3BA4 JUMPI INVALID JUMPDEST SWAP1 PUSH1 0x0 MSTORE PUSH1 0x20 PUSH1 0x0 KECCAK256 ADD SLOAD DUP3 GT PUSH2 0x3BBA JUMPI PUSH1 0x0 DUP1 REVERT JUMPDEST PUSH1 0x8 DUP4 PUSH1 0xFF AND LT ISZERO PUSH2 0x3BEF JUMPI PUSH1 0xD DUP4 PUSH1 0x1 ADD PUSH1 0xFF AND DUP2 SLOAD DUP2 LT PUSH2 0x3BD9 JUMPI INVALID JUMPDEST SWAP1 PUSH1 0x0 MSTORE PUSH1 0x20 PUSH1 0x0 KECCAK256 ADD SLOAD DUP3 LT PUSH2 0x3BEF JUMPI PUSH1 0x0 DUP1 REVERT JUMPDEST DUP2 PUSH1 0xD DUP5 PUSH1 0xFF AND DUP2 SLOAD DUP2 LT PUSH2 0x3C00 JUMPI INVALID JUMPDEST PUSH1 0x0 SWAP2 DUP3 MSTORE PUSH1 0x20 SWAP1 SWAP2 KECCAK256 ADD SSTORE POP PUSH1 0x1 JUMPDEST SWAP3 SWAP2 POP POP JUMP JUMPDEST PUSH1 0x1 SLOAD PUSH20 0xFFFFFFFFFFFFFFFFFFFFFFFFFFFFFFFFFFFFFFFF AND CALLER EQ PUSH2 0x3C86 JUMPI PUSH1 0x40 MLOAD PUSH32 0x8C379A000000000000000000000000000000000000000000000000000000000 DUP2 MSTORE PUSH1 0x4 ADD DUP1 DUP1 PUSH1 0x20 ADD DUP3 DUP2 SUB DUP3 MSTORE PUSH1 0x24 DUP2 MSTORE PUSH1 0x20 ADD DUP1 PUSH2 0x59AE PUSH1 0x24 SWAP2 CODECOPY PUSH1 0x40 ADD SWAP2 POP POP PUSH1 0x40 MLOAD DUP1 SWAP2 SUB SWAP1 REVERT JUMPDEST PUSH1 0x8 SLOAD PUSH1 0x40 DUP1 MLOAD PUSH32 0x54575AF400000000000000000000000000000000000000000000000000000000 DUP2 MSTORE PUSH20 0xFFFFFFFFFFFFFFFFFFFFFFFFFFFFFFFFFFFFFFFF DUP7 DUP2 AND PUSH1 0x4 DUP4 ADD MSTORE PUSH1 0x24 DUP3 ADD DUP7 SWAP1 MSTORE DUP5 DUP2 AND PUSH1 0x44 DUP4 ADD MSTORE SWAP2 MLOAD SWAP2 SWAP1 SWAP3 AND SWAP2 PUSH4 0x54575AF4 SWAP2 PUSH1 0x64 DUP1 DUP4 ADD SWAP3 PUSH1 0x0 SWAP3 SWAP2 SWAP1 DUP3 SWAP1 SUB ADD DUP2 DUP4 DUP8 DUP1 EXTCODESIZE ISZERO DUP1 ISZERO PUSH2 0x3D09 JUMPI PUSH1 0x0 DUP1 REVERT JUMPDEST POP GAS CALL ISZERO DUP1 ISZERO PUSH2 0x3D1D JUMPI RETURNDATASIZE PUSH1 0x0 DUP1 RETURNDATACOPY RETURNDATASIZE PUSH1 0x0 REVERT JUMPDEST POP POP POP POP POP POP POP JUMP JUMPDEST PUSH1 0x1 SLOAD PUSH21 0x10000000000000000000000000000000000000000 SWAP1 DIV PUSH1 0xFF AND ISZERO PUSH2 0x3DB0 JUMPI PUSH1 0x40 DUP1 MLOAD PUSH32 0x8C379A000000000000000000000000000000000000000000000000000000000 DUP2 MSTORE PUSH1 0x20 PUSH1 0x4 DUP3 ADD MSTORE PUSH1 0x1D PUSH1 0x24 DUP3 ADD MSTORE PUSH32 0x54726561737572793A20616C726561647920696E697469616C697A6564000000 PUSH1 0x44 DUP3 ADD MSTORE SWAP1 MLOAD SWAP1 DUP2 SWAP1 SUB PUSH1 0x64 ADD SWAP1 REVERT JUMPDEST PUSH1 0x5 DUP1 SLOAD PUSH32 0xFFFFFFFFFFFFFFFFFFFFFFFF0000000000000000000000000000000000000000 SWAP1 DUP2 AND PUSH20 0xFFFFFFFFFFFFFFFFFFFFFFFFFFFFFFFFFFFFFFFF DUP10 DUP2 AND SWAP2 SWAP1 SWAP2 OR SWAP1 SWAP3 SSTORE PUSH1 0x6 DUP1 SLOAD DUP3 AND DUP9 DUP5 AND OR SWAP1 SSTORE PUSH1 0x7 DUP1 SLOAD DUP3 AND DUP8 DUP5 AND OR SWAP1 SSTORE PUSH1 0x9 DUP1 SLOAD DUP3 AND DUP7 DUP5 AND OR SWAP1 SSTORE PUSH1 0x8 DUP1 SLOAD SWAP1 SWAP2 AND SWAP2 DUP5 AND SWAP2 SWAP1 SWAP2 OR SWAP1 SSTORE PUSH1 0x2 DUP2 SWAP1 SSTORE PUSH8 0xDE0B6B3A7640000 PUSH1 0xA DUP2 SWAP1 SSTORE PUSH2 0x3E50 SWAP1 PUSH1 0x64 SWAP1 PUSH2 0xE69 SWAP1 PUSH1 0x65 PUSH2 0x4A99 JUMP JUMPDEST PUSH1 0xB SSTORE PUSH1 0x40 DUP1 MLOAD PUSH2 0x120 DUP2 ADD DUP3 MSTORE PUSH1 0x0 DUP2 MSTORE PUSH10 0x69E10DE76676D0800000 PUSH1 0x20 DUP3 ADD MSTORE PUSH10 0xD3C21BCECCEDA1000000 SWAP2 DUP2 ADD SWAP2 SWAP1 SWAP2 MSTORE PUSH11 0x13DA329B6336471800000 PUSH1 0x60 DUP3 ADD MSTORE PUSH11 0x1A784379D99DB42000000 PUSH1 0x80 DUP3 ADD MSTORE PUSH11 0x422CA8B0A00A425000000 PUSH1 0xA0 DUP3 ADD MSTORE PUSH11 0x84595161401484A000000 PUSH1 0xC0 DUP3 ADD MSTORE PUSH11 0x108B2A2C28029094000000 PUSH1 0xE0 DUP3 ADD MSTORE PUSH11 0x295BE96E64066972000000 PUSH2 0x100 DUP3 ADD MSTORE PUSH2 0x3EF9 SWAP1 PUSH1 0xD SWAP1 PUSH1 0x9 PUSH2 0x575F JUMP JUMPDEST POP PUSH1 0x40 DUP1 MLOAD PUSH2 0x120 DUP2 ADD DUP3 MSTORE PUSH2 0x1C2 DUP2 MSTORE PUSH2 0x190 PUSH1 0x20 DUP3 ADD MSTORE PUSH2 0x15E SWAP2 DUP2 ADD SWAP2 SWAP1 SWAP2 MSTORE PUSH2 0x12C PUSH1 0x60 DUP3 ADD MSTORE PUSH1 0xFA PUSH1 0x80 DUP3 ADD MSTORE PUSH1 0xC8 PUSH1 0xA0 DUP3 ADD MSTORE PUSH1 0x96 PUSH1 0xC0 DUP3 ADD MSTORE PUSH1 0x7D PUSH1 0xE0 DUP3 ADD MSTORE PUSH1 0x64 PUSH2 0x100 DUP3 ADD MSTORE PUSH2 0x3F56 SWAP1 PUSH1 0xE SWAP1 PUSH1 0x9 PUSH2 0x57B5 JUMP JUMPDEST POP PUSH2 0x190 PUSH1 0xF SSTORE PUSH2 0x2710 PUSH1 0x10 SSTORE PUSH2 0xDAC PUSH1 0x11 DUP2 SWAP1 SSTORE PUSH2 0x12C PUSH1 0x12 SSTORE PUSH1 0x13 SSTORE PUSH1 0x6E PUSH1 0x1A SSTORE PUSH2 0x1B58 PUSH1 0x1B SSTORE PUSH1 0x1C PUSH1 0x14 SSTORE PUSH2 0x1C2 PUSH1 0x15 SSTORE PUSH1 0x5 SLOAD PUSH1 0x40 DUP1 MLOAD PUSH32 0x70A0823100000000000000000000000000000000000000000000000000000000 DUP2 MSTORE ADDRESS PUSH1 0x4 DUP3 ADD MSTORE SWAP1 MLOAD PUSH20 0xFFFFFFFFFFFFFFFFFFFFFFFFFFFFFFFFFFFFFFFF SWAP1 SWAP3 AND SWAP2 PUSH4 0x70A08231 SWAP2 PUSH1 0x24 DUP1 DUP3 ADD SWAP3 PUSH1 0x20 SWAP3 SWAP1 SWAP2 SWAP1 DUP3 SWAP1 SUB ADD DUP2 DUP7 DUP1 EXTCODESIZE ISZERO DUP1 ISZERO PUSH2 0x3FFB JUMPI PUSH1 0x0 DUP1 REVERT JUMPDEST POP GAS STATICCALL ISZERO DUP1 ISZERO PUSH2 0x400F JUMPI RETURNDATASIZE PUSH1 0x0 DUP1 RETURNDATACOPY RETURNDATASIZE PUSH1 0x0 REVERT JUMPDEST POP POP POP POP PUSH1 0x40 MLOAD RETURNDATASIZE PUSH1 0x20 DUP2 LT ISZERO PUSH2 0x4025 JUMPI PUSH1 0x0 DUP1 REVERT JUMPDEST POP MLOAD PUSH1 0xC SSTORE PUSH1 0x1 DUP1 SLOAD PUSH32 0xFFFFFFFFFFFFFFFFFFFFFFFF0000000000000000000000000000000000000000 PUSH32 0xFFFFFFFFFFFFFFFFFFFFFF00FFFFFFFFFFFFFFFFFFFFFFFFFFFFFFFFFFFFFFFF SWAP1 SWAP2 AND PUSH21 0x10000000000000000000000000000000000000000 OR AND CALLER SWAP1 DUP2 OR SWAP1 SWAP2 SSTORE PUSH1 0x40 DUP1 MLOAD NUMBER DUP2 MSTORE SWAP1 MLOAD PUSH32 0x25FF68DD81B34665B5BA7E553EE5511BF6812E12ADB4A7E2C0D9E26B3099CE79 SWAP2 DUP2 SWAP1 SUB PUSH1 0x20 ADD SWAP1 LOG2 POP POP POP POP POP POP JUMP JUMPDEST PUSH1 0x1 SLOAD PUSH20 0xFFFFFFFFFFFFFFFFFFFFFFFFFFFFFFFFFFFFFFFF AND CALLER EQ PUSH2 0x413D JUMPI PUSH1 0x40 MLOAD PUSH32 0x8C379A000000000000000000000000000000000000000000000000000000000 DUP2 MSTORE PUSH1 0x4 ADD DUP1 DUP1 PUSH1 0x20 ADD DUP3 DUP2 SUB DUP3 MSTORE PUSH1 0x24 DUP2 MSTORE PUSH1 0x20 ADD DUP1 PUSH2 0x59AE PUSH1 0x24 SWAP2 CODECOPY PUSH1 0x40 ADD SWAP2 POP POP PUSH1 0x40 MLOAD DUP1 SWAP2 SUB SWAP1 REVERT JUMPDEST PUSH1 0x17 SSTORE JUMP JUMPDEST PUSH1 0xD DUP2 DUP2 SLOAD DUP2 LT PUSH2 0x414F JUMPI INVALID JUMPDEST PUSH1 0x0 SWAP2 DUP3 MSTORE PUSH1 0x20 SWAP1 SWAP2 KECCAK256 ADD SLOAD SWAP1 POP DUP2 JUMP JUMPDEST PUSH1 0xE DUP2 DUP2 SLOAD DUP2 LT PUSH2 0x414F JUMPI INVALID JUMPDEST PUSH1 0x1 SLOAD PUSH20 0xFFFFFFFFFFFFFFFFFFFFFFFFFFFFFFFFFFFFFFFF AND CALLER EQ PUSH2 0x41DD JUMPI PUSH1 0x40 MLOAD PUSH32 0x8C379A000000000000000000000000000000000000000000000000000000000 DUP2 MSTORE PUSH1 0x4 ADD DUP1 DUP1 PUSH1 0x20 ADD DUP3 DUP2 SUB DUP3 MSTORE PUSH1 0x24 DUP2 MSTORE PUSH1 0x20 ADD DUP1 PUSH2 0x59AE PUSH1 0x24 SWAP2 CODECOPY PUSH1 0x40 ADD SWAP2 POP POP PUSH1 0x40 MLOAD DUP1 SWAP2 SUB SWAP1 REVERT JUMPDEST PUSH1 0x18 SSTORE JUMP JUMPDEST PUSH1 0x16 SLOAD DUP2 JUMP JUMPDEST PUSH1 0x1 SLOAD PUSH20 0xFFFFFFFFFFFFFFFFFFFFFFFFFFFFFFFFFFFFFFFF AND CALLER EQ PUSH2 0x4258 JUMPI PUSH1 0x40 MLOAD PUSH32 0x8C379A000000000000000000000000000000000000000000000000000000000 DUP2 MSTORE PUSH1 0x4 ADD DUP1 DUP1 PUSH1 0x20 ADD DUP3 DUP2 SUB DUP3 MSTORE PUSH1 0x24 DUP2 MSTORE PUSH1 0x20 ADD DUP1 PUSH2 0x59AE PUSH1 0x24 SWAP2 CODECOPY PUSH1 0x40 ADD SWAP2 POP POP PUSH1 0x40 MLOAD DUP1 SWAP2 SUB SWAP1 REVERT JUMPDEST PUSH1 0x1 DUP1 SLOAD PUSH32 0xFFFFFFFFFFFFFFFFFFFFFFFF0000000000000000000000000000000000000000 AND PUSH20 0xFFFFFFFFFFFFFFFFFFFFFFFFFFFFFFFFFFFFFFFF SWAP3 SWAP1 SWAP3 AND SWAP2 SWAP1 SWAP2 OR SWAP1 SSTORE JUMP JUMPDEST PUSH2 0x258 DUP2 JUMP JUMPDEST PUSH1 0x17 SLOAD DUP2 JUMP JUMPDEST PUSH1 0x6 SLOAD PUSH20 0xFFFFFFFFFFFFFFFFFFFFFFFFFFFFFFFFFFFFFFFF AND DUP2 JUMP JUMPDEST PUSH1 0x1 SLOAD PUSH20 0xFFFFFFFFFFFFFFFFFFFFFFFFFFFFFFFFFFFFFFFF AND CALLER EQ PUSH2 0x4337 JUMPI PUSH1 0x40 MLOAD PUSH32 0x8C379A000000000000000000000000000000000000000000000000000000000 DUP2 MSTORE PUSH1 0x4 ADD DUP1 DUP1 PUSH1 0x20 ADD DUP3 DUP2 SUB DUP3 MSTORE PUSH1 0x24 DUP2 MSTORE PUSH1 0x20 ADD DUP1 PUSH2 0x59AE PUSH1 0x24 SWAP2 CODECOPY PUSH1 0x40 ADD SWAP2 POP POP PUSH1 0x40 MLOAD DUP1 SWAP2 SUB SWAP1 REVERT JUMPDEST PUSH20 0xFFFFFFFFFFFFFFFFFFFFFFFFFFFFFFFFFFFFFFFF DUP5 AND PUSH2 0x43BB JUMPI PUSH1 0x40 DUP1 MLOAD PUSH32 0x8C379A000000000000000000000000000000000000000000000000000000000 DUP2 MSTORE PUSH1 0x20 PUSH1 0x4 DUP1 DUP4 ADD SWAP2 SWAP1 SWAP2 MSTORE PUSH1 0x24 DUP3 ADD MSTORE PUSH32 0x7A65726F00000000000000000000000000000000000000000000000000000000 PUSH1 0x44 DUP3 ADD MSTORE SWAP1 MLOAD SWAP1 DUP2 SWAP1 SUB PUSH1 0x64 ADD SWAP1 REVERT JUMPDEST PUSH2 0xBB8 DUP4 GT ISZERO PUSH2 0x442C JUMPI PUSH1 0x40 DUP1 MLOAD PUSH32 0x8C379A000000000000000000000000000000000000000000000000000000000 DUP2 MSTORE PUSH1 0x20 PUSH1 0x4 DUP3 ADD MSTORE PUSH1 0xC PUSH1 0x24 DUP3 ADD MSTORE PUSH32 0x6F7574206F662072616E67650000000000000000000000000000000000000000 PUSH1 0x44 DUP3 ADD MSTORE SWAP1 MLOAD SWAP1 DUP2 SWAP1 SUB PUSH1 0x64 ADD SWAP1 REVERT JUMPDEST PUSH20 0xFFFFFFFFFFFFFFFFFFFFFFFFFFFFFFFFFFFFFFFF DUP3 AND PUSH2 0x44B0 JUMPI PUSH1 0x40 DUP1 MLOAD PUSH32 0x8C379A000000000000000000000000000000000000000000000000000000000 DUP2 MSTORE PUSH1 0x20 PUSH1 0x4 DUP1 DUP4 ADD SWAP2 SWAP1 SWAP2 MSTORE PUSH1 0x24 DUP3 ADD MSTORE PUSH32 0x7A65726F00000000000000000000000000000000000000000000000000000000 PUSH1 0x44 DUP3 ADD MSTORE SWAP1 MLOAD SWAP1 DUP2 SWAP1 SUB PUSH1 0x64 ADD SWAP1 REVERT JUMPDEST PUSH2 0x3E8 DUP2 GT ISZERO PUSH2 0x4521 JUMPI PUSH1 0x40 DUP1 MLOAD PUSH32 0x8C379A000000000000000000000000000000000000000000000000000000000 DUP2 MSTORE PUSH1 0x20 PUSH1 0x4 DUP3 ADD MSTORE PUSH1 0xC PUSH1 0x24 DUP3 ADD MSTORE PUSH32 0x6F7574206F662072616E67650000000000000000000000000000000000000000 PUSH1 0x44 DUP3 ADD MSTORE SWAP1 MLOAD SWAP1 DUP2 SWAP1 SUB PUSH1 0x64 ADD SWAP1 REVERT JUMPDEST PUSH1 0x1D DUP1 SLOAD PUSH32 0xFFFFFFFFFFFFFFFFFFFFFFFF0000000000000000000000000000000000000000 SWAP1 DUP2 AND PUSH20 0xFFFFFFFFFFFFFFFFFFFFFFFFFFFFFFFFFFFFFFFF SWAP7 DUP8 AND OR SWAP1 SWAP2 SSTORE PUSH1 0x1E SWAP4 SWAP1 SWAP4 SSTORE PUSH1 0x1F DUP1 SLOAD SWAP1 SWAP4 AND SWAP2 SWAP1 SWAP4 AND OR SWAP1 SSTORE PUSH1 0x20 SSTORE JUMP JUMPDEST PUSH1 0x1 SLOAD PUSH20 0xFFFFFFFFFFFFFFFFFFFFFFFFFFFFFFFFFFFFFFFF AND CALLER EQ PUSH2 0x45EE JUMPI PUSH1 0x40 MLOAD PUSH32 0x8C379A000000000000000000000000000000000000000000000000000000000 DUP2 MSTORE PUSH1 0x4 ADD DUP1 DUP1 PUSH1 0x20 ADD DUP3 DUP2 SUB DUP3 MSTORE PUSH1 0x24 DUP2 MSTORE PUSH1 0x20 ADD DUP1 PUSH2 0x59AE PUSH1 0x24 SWAP2 CODECOPY PUSH1 0x40 ADD SWAP2 POP POP PUSH1 0x40 MLOAD DUP1 SWAP2 SUB SWAP1 REVERT JUMPDEST PUSH1 0x8 SLOAD PUSH1 0x40 DUP1 MLOAD PUSH32 0x97FFE1D700000000000000000000000000000000000000000000000000000000 DUP2 MSTORE PUSH1 0x4 DUP2 ADD DUP5 SWAP1 MSTORE SWAP1 MLOAD PUSH20 0xFFFFFFFFFFFFFFFFFFFFFFFFFFFFFFFFFFFFFFFF SWAP1 SWAP3 AND SWAP2 PUSH4 0x97FFE1D7 SWAP2 PUSH1 0x24 DUP1 DUP3 ADD SWAP3 PUSH1 0x0 SWAP3 SWAP1 SWAP2 SWAP1 DUP3 SWAP1 SUB ADD DUP2 DUP4 DUP8 DUP1 EXTCODESIZE ISZERO DUP1 ISZERO PUSH2 0x3564 JUMPI PUSH1 0x0 DUP1 REVERT JUMPDEST PUSH1 0x5 SLOAD PUSH20 0xFFFFFFFFFFFFFFFFFFFFFFFFFFFFFFFFFFFFFFFF AND DUP2 JUMP JUMPDEST PUSH1 0x0 PUSH2 0x46A2 PUSH2 0x4699 PUSH2 0x258 PUSH1 0x3 SLOAD PUSH2 0x4A99 SWAP1 SWAP2 SWAP1 PUSH4 0xFFFFFFFF AND JUMP JUMPDEST PUSH1 0x2 SLOAD SWAP1 PUSH2 0x4BAD JUMP JUMPDEST SWAP1 POP SWAP1 JUMP JUMPDEST PUSH1 0x9 SLOAD PUSH1 0x5 SLOAD PUSH1 0x40 DUP1 MLOAD PUSH32 0x6808A12800000000000000000000000000000000000000000000000000000000 DUP2 MSTORE PUSH20 0xFFFFFFFFFFFFFFFFFFFFFFFFFFFFFFFFFFFFFFFF SWAP3 DUP4 AND PUSH1 0x4 DUP3 ADD MSTORE PUSH8 0xDE0B6B3A7640000 PUSH1 0x24 DUP3 ADD MSTORE SWAP1 MLOAD PUSH1 0x0 SWAP4 SWAP3 SWAP1 SWAP3 AND SWAP2 PUSH4 0x6808A128 SWAP2 PUSH1 0x44 DUP1 DUP3 ADD SWAP3 PUSH1 0x20 SWAP3 SWAP1 SWAP2 SWAP1 DUP3 SWAP1 SUB ADD DUP2 DUP7 DUP1 EXTCODESIZE ISZERO DUP1 ISZERO PUSH2 0xC30 JUMPI PUSH1 0x0 DUP1 REVERT JUMPDEST PUSH1 0x1B SLOAD DUP2 JUMP JUMPDEST PUSH1 0x1A SLOAD DUP2 JUMP JUMPDEST PUSH1 0x1 SLOAD PUSH20 0xFFFFFFFFFFFFFFFFFFFFFFFFFFFFFFFFFFFFFFFF AND CALLER EQ PUSH2 0x47AB JUMPI PUSH1 0x40 MLOAD PUSH32 0x8C379A000000000000000000000000000000000000000000000000000000000 DUP2 MSTORE PUSH1 0x4 ADD DUP1 DUP1 PUSH1 0x20 ADD DUP3 DUP2 SUB DUP3 MSTORE PUSH1 0x24 DUP2 MSTORE PUSH1 0x20 ADD DUP1 PUSH2 0x59AE PUSH1 0x24 SWAP2 CODECOPY PUSH1 0x40 ADD SWAP2 POP POP PUSH1 0x40 MLOAD DUP1 SWAP2 SUB SWAP1 REVERT JUMPDEST PUSH1 0x64 DUP2 LT ISZERO DUP1 ISZERO PUSH2 0x47BE JUMPI POP PUSH2 0x5DC DUP2 GT ISZERO JUMPDEST PUSH2 0x4829 JUMPI PUSH1 0x40 DUP1 MLOAD PUSH32 0x8C379A000000000000000000000000000000000000000000000000000000000 DUP2 MSTORE PUSH1 0x20 PUSH1 0x4 DUP3 ADD MSTORE PUSH1 0xC PUSH1 0x24 DUP3 ADD MSTORE PUSH32 0x6F7574206F662072616E67650000000000000000000000000000000000000000 PUSH1 0x44 DUP3 ADD MSTORE SWAP1 MLOAD SWAP1 DUP2 SWAP1 SUB PUSH1 0x64 ADD SWAP1 REVERT JUMPDEST PUSH1 0x12 SSTORE JUMP JUMPDEST PUSH1 0x1 SLOAD PUSH1 0x0 SWAP1 PUSH20 0xFFFFFFFFFFFFFFFFFFFFFFFFFFFFFFFFFFFFFFFF AND CALLER EQ PUSH2 0x48A1 JUMPI PUSH1 0x40 MLOAD PUSH32 0x8C379A000000000000000000000000000000000000000000000000000000000 DUP2 MSTORE PUSH1 0x4 ADD DUP1 DUP1 PUSH1 0x20 ADD DUP3 DUP2 SUB DUP3 MSTORE PUSH1 0x24 DUP2 MSTORE PUSH1 0x20 ADD DUP1 PUSH2 0x59AE PUSH1 0x24 SWAP2 CODECOPY PUSH1 0x40 ADD SWAP2 POP POP PUSH1 0x40 MLOAD DUP1 SWAP2 SUB SWAP1 REVERT JUMPDEST PUSH1 0x9 DUP4 PUSH1 0xFF AND LT PUSH2 0x48FD JUMPI PUSH1 0x40 MLOAD PUSH32 0x8C379A000000000000000000000000000000000000000000000000000000000 DUP2 MSTORE PUSH1 0x4 ADD DUP1 DUP1 PUSH1 0x20 ADD DUP3 DUP2 SUB DUP3 MSTORE PUSH1 0x29 DUP2 MSTORE PUSH1 0x20 ADD DUP1 PUSH2 0x5985 PUSH1 0x29 SWAP2 CODECOPY PUSH1 0x40 ADD SWAP2 POP POP PUSH1 0x40 MLOAD DUP1 SWAP2 SUB SWAP1 REVERT JUMPDEST PUSH1 0xA DUP3 LT ISZERO DUP1 ISZERO PUSH2 0x4910 JUMPI POP PUSH2 0x3E8 DUP3 GT ISZERO JUMPDEST PUSH2 0x497B JUMPI PUSH1 0x40 DUP1 MLOAD PUSH32 0x8C379A000000000000000000000000000000000000000000000000000000000 DUP2 MSTORE PUSH1 0x20 PUSH1 0x4 DUP3 ADD MSTORE PUSH1 0x14 PUSH1 0x24 DUP3 ADD MSTORE PUSH32 0x5F76616C75653A206F7574206F662072616E6765000000000000000000000000 PUSH1 0x44 DUP3 ADD MSTORE SWAP1 MLOAD SWAP1 DUP2 SWAP1 SUB PUSH1 0x64 ADD SWAP1 REVERT JUMPDEST DUP2 PUSH1 0xE DUP5 PUSH1 0xFF AND DUP2 SLOAD DUP2 LT PUSH2 0x3C00 JUMPI INVALID JUMPDEST PUSH1 0x1 SLOAD PUSH20 0xFFFFFFFFFFFFFFFFFFFFFFFFFFFFFFFFFFFFFFFF AND CALLER EQ PUSH2 0x49FC JUMPI PUSH1 0x40 MLOAD PUSH32 0x8C379A000000000000000000000000000000000000000000000000000000000 DUP2 MSTORE PUSH1 0x4 ADD DUP1 DUP1 PUSH1 0x20 ADD DUP3 DUP2 SUB DUP3 MSTORE PUSH1 0x24 DUP2 MSTORE PUSH1 0x20 ADD DUP1 PUSH2 0x59AE PUSH1 0x24 SWAP2 CODECOPY PUSH1 0x40 ADD SWAP2 POP POP PUSH1 0x40 MLOAD DUP1 SWAP2 SUB SWAP1 REVERT JUMPDEST PUSH1 0x8 DUP1 SLOAD PUSH32 0xFFFFFFFFFFFFFFFFFFFFFFFF0000000000000000000000000000000000000000 AND PUSH20 0xFFFFFFFFFFFFFFFFFFFFFFFFFFFFFFFFFFFFFFFF SWAP3 SWAP1 SWAP3 AND SWAP2 SWAP1 SWAP2 OR SWAP1 SSTORE JUMP JUMPDEST PUSH1 0xF SLOAD DUP2 JUMP JUMPDEST PUSH1 0x13 SLOAD DUP2 JUMP JUMPDEST PUSH1 0x12 SLOAD DUP2 JUMP JUMPDEST PUSH1 0x7 SLOAD PUSH20 0xFFFFFFFFFFFFFFFFFFFFFFFFFFFFFFFFFFFFFFFF AND DUP2 JUMP JUMPDEST PUSH1 0x14 SLOAD DUP2 JUMP JUMPDEST PUSH1 0x9 SLOAD PUSH20 0xFFFFFFFFFFFFFFFFFFFFFFFFFFFFFFFFFFFFFFFF AND DUP2 JUMP JUMPDEST PUSH1 0x4 SLOAD DUP2 JUMP JUMPDEST PUSH1 0x0 DUP3 PUSH2 0x4AA8 JUMPI POP PUSH1 0x0 PUSH2 0x3C10 JUMP JUMPDEST DUP3 DUP3 MUL DUP3 DUP5 DUP3 DUP2 PUSH2 0x4AB5 JUMPI INVALID JUMPDEST DIV EQ PUSH2 0x4B0C JUMPI PUSH1 0x40 MLOAD PUSH32 0x8C379A000000000000000000000000000000000000000000000000000000000 DUP2 MSTORE PUSH1 0x4 ADD DUP1 DUP1 PUSH1 0x20 ADD DUP3 DUP2 SUB DUP3 MSTORE PUSH1 0x21 DUP2 MSTORE PUSH1 0x20 ADD DUP1 PUSH2 0x58E3 PUSH1 0x21 SWAP2 CODECOPY PUSH1 0x40 ADD SWAP2 POP POP PUSH1 0x40 MLOAD DUP1 SWAP2 SUB SWAP1 REVERT JUMPDEST SWAP4 SWAP3 POP POP POP JUMP JUMPDEST PUSH1 0x0 PUSH2 0x4B0C DUP4 DUP4 PUSH1 0x40 MLOAD DUP1 PUSH1 0x40 ADD PUSH1 0x40 MSTORE DUP1 PUSH1 0x1A DUP2 MSTORE PUSH1 0x20 ADD PUSH32 0x536166654D6174683A206469766973696F6E206279207A65726F000000000000 DUP2 MSTORE POP PUSH2 0x51E0 JUMP JUMPDEST PUSH1 0x0 PUSH2 0x4B0C DUP4 DUP4 PUSH1 0x40 MLOAD DUP1 PUSH1 0x40 ADD PUSH1 0x40 MSTORE DUP1 PUSH1 0x1E DUP2 MSTORE PUSH1 0x20 ADD PUSH32 0x536166654D6174683A207375627472616374696F6E206F766572666C6F770000 DUP2 MSTORE POP PUSH2 0x529C JUMP JUMPDEST PUSH1 0x0 DUP2 DUP4 LT PUSH2 0x4BA6 JUMPI DUP2 PUSH2 0x4B0C JUMP JUMPDEST POP SWAP1 SWAP2 SWAP1 POP JUMP JUMPDEST PUSH1 0x0 DUP3 DUP3 ADD DUP4 DUP2 LT ISZERO PUSH2 0x4B0C JUMPI PUSH1 0x40 DUP1 MLOAD PUSH32 0x8C379A000000000000000000000000000000000000000000000000000000000 DUP2 MSTORE PUSH1 0x20 PUSH1 0x4 DUP3 ADD MSTORE PUSH1 0x1B PUSH1 0x24 DUP3 ADD MSTORE PUSH32 0x536166654D6174683A206164646974696F6E206F766572666C6F770000000000 PUSH1 0x44 DUP3 ADD MSTORE SWAP1 MLOAD SWAP1 DUP2 SWAP1 SUB PUSH1 0x64 ADD SWAP1 REVERT JUMPDEST NUMBER PUSH1 0x0 SWAP1 DUP2 MSTORE PUSH1 0x20 DUP2 DUP2 MSTORE PUSH1 0x40 DUP1 DUP4 KECCAK256 ORIGIN DUP5 MSTORE SWAP1 SWAP2 MSTORE SWAP1 KECCAK256 SLOAD PUSH1 0xFF AND SWAP1 JUMP JUMPDEST NUMBER PUSH1 0x0 SWAP1 DUP2 MSTORE PUSH1 0x20 DUP2 DUP2 MSTORE PUSH1 0x40 DUP1 DUP4 KECCAK256 CALLER DUP5 MSTORE SWAP1 SWAP2 MSTORE SWAP1 KECCAK256 SLOAD PUSH1 0xFF AND SWAP1 JUMP JUMPDEST PUSH1 0x40 DUP1 MLOAD PUSH20 0xFFFFFFFFFFFFFFFFFFFFFFFFFFFFFFFFFFFFFFFF DUP5 AND PUSH1 0x24 DUP3 ADD MSTORE PUSH1 0x44 DUP1 DUP3 ADD DUP5 SWAP1 MSTORE DUP3 MLOAD DUP1 DUP4 SUB SWAP1 SWAP2 ADD DUP2 MSTORE PUSH1 0x64 SWAP1 SWAP2 ADD SWAP1 SWAP2 MSTORE PUSH1 0x20 DUP2 ADD DUP1 MLOAD PUSH28 0xFFFFFFFFFFFFFFFFFFFFFFFFFFFFFFFFFFFFFFFFFFFFFFFFFFFFFFFF AND PUSH32 0xA9059CBB00000000000000000000000000000000000000000000000000000000 OR SWAP1 MSTORE PUSH2 0x1F98 SWAP1 DUP5 SWAP1 PUSH2 0x5310 JUMP JUMPDEST PUSH1 0x9 PUSH1 0x0 SWAP1 SLOAD SWAP1 PUSH2 0x100 EXP SWAP1 DIV PUSH20 0xFFFFFFFFFFFFFFFFFFFFFFFFFFFFFFFFFFFFFFFF AND PUSH20 0xFFFFFFFFFFFFFFFFFFFFFFFFFFFFFFFFFFFFFFFF AND PUSH4 0xA2E62045 PUSH1 0x40 MLOAD DUP2 PUSH4 0xFFFFFFFF AND PUSH1 0xE0 SHL DUP2 MSTORE PUSH1 0x4 ADD PUSH1 0x0 PUSH1 0x40 MLOAD DUP1 DUP4 SUB DUP2 PUSH1 0x0 DUP8 DUP1 EXTCODESIZE ISZERO DUP1 ISZERO PUSH2 0x4D56 JUMPI PUSH1 0x0 DUP1 REVERT JUMPDEST POP GAS CALL SWAP3 POP POP POP DUP1 ISZERO PUSH2 0x4D67 JUMPI POP PUSH1 0x1 JUMPDEST POP JUMP JUMPDEST PUSH1 0x5 SLOAD PUSH1 0x40 DUP1 MLOAD PUSH32 0x40C10F1900000000000000000000000000000000000000000000000000000000 DUP2 MSTORE ADDRESS PUSH1 0x4 DUP3 ADD MSTORE PUSH1 0x24 DUP2 ADD DUP5 SWAP1 MSTORE SWAP1 MLOAD PUSH20 0xFFFFFFFFFFFFFFFFFFFFFFFFFFFFFFFFFFFFFFFF SWAP1 SWAP3 AND SWAP2 PUSH4 0x40C10F19 SWAP2 PUSH1 0x44 DUP1 DUP3 ADD SWAP3 PUSH1 0x20 SWAP3 SWAP1 SWAP2 SWAP1 DUP3 SWAP1 SUB ADD DUP2 PUSH1 0x0 DUP8 DUP1 EXTCODESIZE ISZERO DUP1 ISZERO PUSH2 0x4DE4 JUMPI PUSH1 0x0 DUP1 REVERT JUMPDEST POP GAS CALL ISZERO DUP1 ISZERO PUSH2 0x4DF8 JUMPI RETURNDATASIZE PUSH1 0x0 DUP1 RETURNDATACOPY RETURNDATASIZE PUSH1 0x0 REVERT JUMPDEST POP POP POP POP PUSH1 0x40 MLOAD RETURNDATASIZE PUSH1 0x20 DUP2 LT ISZERO PUSH2 0x4E0E JUMPI PUSH1 0x0 DUP1 REVERT JUMPDEST POP POP PUSH1 0x1E SLOAD PUSH1 0x0 SWAP1 ISZERO PUSH2 0x4F1F JUMPI PUSH2 0x4E36 PUSH2 0x2710 PUSH2 0xE69 PUSH1 0x1E SLOAD DUP6 PUSH2 0x4A99 SWAP1 SWAP2 SWAP1 PUSH4 0xFFFFFFFF AND JUMP JUMPDEST PUSH1 0x5 SLOAD PUSH1 0x1D SLOAD PUSH1 0x40 DUP1 MLOAD PUSH32 0xA9059CBB00000000000000000000000000000000000000000000000000000000 DUP2 MSTORE PUSH20 0xFFFFFFFFFFFFFFFFFFFFFFFFFFFFFFFFFFFFFFFF SWAP3 DUP4 AND PUSH1 0x4 DUP3 ADD MSTORE PUSH1 0x24 DUP2 ADD DUP6 SWAP1 MSTORE SWAP1 MLOAD SWAP4 SWAP5 POP SWAP2 AND SWAP2 PUSH4 0xA9059CBB SWAP2 PUSH1 0x44 DUP1 DUP3 ADD SWAP3 PUSH1 0x20 SWAP3 SWAP1 SWAP2 SWAP1 DUP3 SWAP1 SUB ADD DUP2 PUSH1 0x0 DUP8 DUP1 EXTCODESIZE ISZERO DUP1 ISZERO PUSH2 0x4EB7 JUMPI PUSH1 0x0 DUP1 REVERT JUMPDEST POP GAS CALL ISZERO DUP1 ISZERO PUSH2 0x4ECB JUMPI RETURNDATASIZE PUSH1 0x0 DUP1 RETURNDATACOPY RETURNDATASIZE PUSH1 0x0 REVERT JUMPDEST POP POP POP POP PUSH1 0x40 MLOAD RETURNDATASIZE PUSH1 0x20 DUP2 LT ISZERO PUSH2 0x4EE1 JUMPI PUSH1 0x0 DUP1 REVERT JUMPDEST POP POP PUSH1 0x40 DUP1 MLOAD TIMESTAMP DUP2 MSTORE PUSH1 0x20 DUP2 ADD DUP4 SWAP1 MSTORE DUP2 MLOAD PUSH32 0xCB3F34AAA3445B461E6DA5492DC89E5C257A59FA598131F3B6BBC97A3638E409 SWAP3 SWAP2 DUP2 SWAP1 SUB SWAP1 SWAP2 ADD SWAP1 LOG1 JUMPDEST PUSH1 0x20 SLOAD PUSH1 0x0 SWAP1 ISZERO PUSH2 0x502E JUMPI PUSH2 0x4F45 PUSH2 0x2710 PUSH2 0xE69 PUSH1 0x20 SLOAD DUP7 PUSH2 0x4A99 SWAP1 SWAP2 SWAP1 PUSH4 0xFFFFFFFF AND JUMP JUMPDEST PUSH1 0x5 SLOAD PUSH1 0x1F SLOAD PUSH1 0x40 DUP1 MLOAD PUSH32 0xA9059CBB00000000000000000000000000000000000000000000000000000000 DUP2 MSTORE PUSH20 0xFFFFFFFFFFFFFFFFFFFFFFFFFFFFFFFFFFFFFFFF SWAP3 DUP4 AND PUSH1 0x4 DUP3 ADD MSTORE PUSH1 0x24 DUP2 ADD DUP6 SWAP1 MSTORE SWAP1 MLOAD SWAP4 SWAP5 POP SWAP2 AND SWAP2 PUSH4 0xA9059CBB SWAP2 PUSH1 0x44 DUP1 DUP3 ADD SWAP3 PUSH1 0x20 SWAP3 SWAP1 SWAP2 SWAP1 DUP3 SWAP1 SUB ADD DUP2 PUSH1 0x0 DUP8 DUP1 EXTCODESIZE ISZERO DUP1 ISZERO PUSH2 0x4FC6 JUMPI PUSH1 0x0 DUP1 REVERT JUMPDEST POP GAS CALL ISZERO DUP1 ISZERO PUSH2 0x4FDA JUMPI RETURNDATASIZE PUSH1 0x0 DUP1 RETURNDATACOPY RETURNDATASIZE PUSH1 0x0 REVERT JUMPDEST POP POP POP POP PUSH1 0x40 MLOAD RETURNDATASIZE PUSH1 0x20 DUP2 LT ISZERO PUSH2 0x4FF0 JUMPI PUSH1 0x0 DUP1 REVERT JUMPDEST POP POP PUSH1 0x40 DUP1 MLOAD TIMESTAMP DUP2 MSTORE PUSH1 0x20 DUP2 ADD DUP4 SWAP1 MSTORE DUP2 MLOAD PUSH32 0xDC8B715B18523E58B7FD0DA53259DFA91EFD91DF4A854D94B136E3333A3B9395 SWAP3 SWAP2 DUP2 SWAP1 SUB SWAP1 SWAP2 ADD SWAP1 LOG1 JUMPDEST PUSH2 0x5042 DUP2 PUSH2 0x503C DUP6 DUP6 PUSH2 0x4B55 JUMP JUMPDEST SWAP1 PUSH2 0x4B55 JUMP JUMPDEST PUSH1 0x8 SLOAD PUSH1 0x5 SLOAD SWAP2 SWAP5 POP PUSH2 0x5070 SWAP2 PUSH20 0xFFFFFFFFFFFFFFFFFFFFFFFFFFFFFFFFFFFFFFFF SWAP1 DUP2 AND SWAP2 AND PUSH1 0x0 PUSH2 0x53E8 JUMP JUMPDEST PUSH1 0x8 SLOAD PUSH1 0x5 SLOAD PUSH2 0x509A SWAP2 PUSH20 0xFFFFFFFFFFFFFFFFFFFFFFFFFFFFFFFFFFFFFFFF SWAP2 DUP3 AND SWAP2 AND DUP6 PUSH2 0x53E8 JUMP JUMPDEST PUSH1 0x8 SLOAD PUSH1 0x40 DUP1 MLOAD PUSH32 0x97FFE1D700000000000000000000000000000000000000000000000000000000 DUP2 MSTORE PUSH1 0x4 DUP2 ADD DUP7 SWAP1 MSTORE SWAP1 MLOAD PUSH20 0xFFFFFFFFFFFFFFFFFFFFFFFFFFFFFFFFFFFFFFFF SWAP1 SWAP3 AND SWAP2 PUSH4 0x97FFE1D7 SWAP2 PUSH1 0x24 DUP1 DUP3 ADD SWAP3 PUSH1 0x0 SWAP3 SWAP1 SWAP2 SWAP1 DUP3 SWAP1 SUB ADD DUP2 DUP4 DUP8 DUP1 EXTCODESIZE ISZERO DUP1 ISZERO PUSH2 0x510D JUMPI PUSH1 0x0 DUP1 REVERT JUMPDEST POP GAS CALL ISZERO DUP1 ISZERO PUSH2 0x5121 JUMPI RETURNDATASIZE PUSH1 0x0 DUP1 RETURNDATACOPY RETURNDATASIZE PUSH1 0x0 REVERT JUMPDEST POP POP PUSH1 0x40 DUP1 MLOAD TIMESTAMP DUP2 MSTORE PUSH1 0x20 DUP2 ADD DUP8 SWAP1 MSTORE DUP2 MLOAD PUSH32 0xA72FA2F263B243B0F0E1FEC5F3D49D33DE573D15929B6B730C6B8AB3838C1C4D SWAP5 POP SWAP1 DUP2 SWAP1 SUB SWAP1 SWAP2 ADD SWAP2 POP LOG1 POP POP POP JUMP JUMPDEST PUSH1 0x0 PUSH1 0x8 JUMPDEST PUSH1 0xD DUP2 PUSH1 0xFF AND DUP2 SLOAD DUP2 LT PUSH2 0x517A JUMPI INVALID JUMPDEST SWAP1 PUSH1 0x0 MSTORE PUSH1 0x20 PUSH1 0x0 KECCAK256 ADD SLOAD DUP4 LT PUSH2 0x51AF JUMPI PUSH1 0xE DUP2 PUSH1 0xFF AND DUP2 SLOAD DUP2 LT PUSH2 0x519B JUMPI INVALID JUMPDEST PUSH1 0x0 SWAP2 DUP3 MSTORE PUSH1 0x20 SWAP1 SWAP2 KECCAK256 ADD SLOAD PUSH1 0xF SSTORE PUSH2 0x51D6 JUMP JUMPDEST PUSH32 0xFFFFFFFFFFFFFFFFFFFFFFFFFFFFFFFFFFFFFFFFFFFFFFFFFFFFFFFFFFFFFFFF ADD PUSH2 0x516A JUMP JUMPDEST POP POP PUSH1 0xF SLOAD SWAP2 SWAP1 POP JUMP JUMPDEST PUSH1 0x0 DUP2 DUP4 PUSH2 0x5286 JUMPI PUSH1 0x40 MLOAD PUSH32 0x8C379A000000000000000000000000000000000000000000000000000000000 DUP2 MSTORE PUSH1 0x4 ADD DUP1 DUP1 PUSH1 0x20 ADD DUP3 DUP2 SUB DUP3 MSTORE DUP4 DUP2 DUP2 MLOAD DUP2 MSTORE PUSH1 0x20 ADD SWAP2 POP DUP1 MLOAD SWAP1 PUSH1 0x20 ADD SWAP1 DUP1 DUP4 DUP4 PUSH1 0x0 JUMPDEST DUP4 DUP2 LT ISZERO PUSH2 0x524B JUMPI DUP2 DUP2 ADD MLOAD DUP4 DUP3 ADD MSTORE PUSH1 0x20 ADD PUSH2 0x5233 JUMP JUMPDEST POP POP POP POP SWAP1 POP SWAP1 DUP2 ADD SWAP1 PUSH1 0x1F AND DUP1 ISZERO PUSH2 0x5278 JUMPI DUP1 DUP3 SUB DUP1 MLOAD PUSH1 0x1 DUP4 PUSH1 0x20 SUB PUSH2 0x100 EXP SUB NOT AND DUP2 MSTORE PUSH1 0x20 ADD SWAP2 POP JUMPDEST POP SWAP3 POP POP POP PUSH1 0x40 MLOAD DUP1 SWAP2 SUB SWAP1 REVERT JUMPDEST POP PUSH1 0x0 DUP4 DUP6 DUP2 PUSH2 0x5292 JUMPI INVALID JUMPDEST DIV SWAP6 SWAP5 POP POP POP POP POP JUMP JUMPDEST PUSH1 0x0 DUP2 DUP5 DUP5 GT ISZERO PUSH2 0x5308 JUMPI PUSH1 0x40 MLOAD PUSH32 0x8C379A000000000000000000000000000000000000000000000000000000000 DUP2 MSTORE PUSH1 0x20 PUSH1 0x4 DUP3 ADD DUP2 DUP2 MSTORE DUP4 MLOAD PUSH1 0x24 DUP5 ADD MSTORE DUP4 MLOAD SWAP1 SWAP3 DUP4 SWAP3 PUSH1 0x44 SWAP1 SWAP2 ADD SWAP2 SWAP1 DUP6 ADD SWAP1 DUP1 DUP4 DUP4 PUSH1 0x0 DUP4 ISZERO PUSH2 0x524B JUMPI DUP2 DUP2 ADD MLOAD DUP4 DUP3 ADD MSTORE PUSH1 0x20 ADD PUSH2 0x5233 JUMP JUMPDEST POP POP POP SWAP1 SUB SWAP1 JUMP JUMPDEST PUSH1 0x60 PUSH2 0x5372 DUP3 PUSH1 0x40 MLOAD DUP1 PUSH1 0x40 ADD PUSH1 0x40 MSTORE DUP1 PUSH1 0x20 DUP2 MSTORE PUSH1 0x20 ADD PUSH32 0x5361666545524332303A206C6F772D6C6576656C2063616C6C206661696C6564 DUP2 MSTORE POP DUP6 PUSH20 0xFFFFFFFFFFFFFFFFFFFFFFFFFFFFFFFFFFFFFFFF AND PUSH2 0x5576 SWAP1 SWAP3 SWAP2 SWAP1 PUSH4 0xFFFFFFFF AND JUMP JUMPDEST DUP1 MLOAD SWAP1 SWAP2 POP ISZERO PUSH2 0x1F98 JUMPI DUP1 DUP1 PUSH1 0x20 ADD SWAP1 MLOAD PUSH1 0x20 DUP2 LT ISZERO PUSH2 0x5391 JUMPI PUSH1 0x0 DUP1 REVERT JUMPDEST POP MLOAD PUSH2 0x1F98 JUMPI PUSH1 0x40 MLOAD PUSH32 0x8C379A000000000000000000000000000000000000000000000000000000000 DUP2 MSTORE PUSH1 0x4 ADD DUP1 DUP1 PUSH1 0x20 ADD DUP3 DUP2 SUB DUP3 MSTORE PUSH1 0x2A DUP2 MSTORE PUSH1 0x20 ADD DUP1 PUSH2 0x59D2 PUSH1 0x2A SWAP2 CODECOPY PUSH1 0x40 ADD SWAP2 POP POP PUSH1 0x40 MLOAD DUP1 SWAP2 SUB SWAP1 REVERT JUMPDEST DUP1 ISZERO DUP1 PUSH2 0x5494 JUMPI POP PUSH1 0x40 DUP1 MLOAD PUSH32 0xDD62ED3E00000000000000000000000000000000000000000000000000000000 DUP2 MSTORE ADDRESS PUSH1 0x4 DUP3 ADD MSTORE PUSH20 0xFFFFFFFFFFFFFFFFFFFFFFFFFFFFFFFFFFFFFFFF DUP5 DUP2 AND PUSH1 0x24 DUP4 ADD MSTORE SWAP2 MLOAD SWAP2 DUP6 AND SWAP2 PUSH4 0xDD62ED3E SWAP2 PUSH1 0x44 DUP1 DUP3 ADD SWAP3 PUSH1 0x20 SWAP3 SWAP1 SWAP2 SWAP1 DUP3 SWAP1 SUB ADD DUP2 DUP7 DUP1 EXTCODESIZE ISZERO DUP1 ISZERO PUSH2 0x5466 JUMPI PUSH1 0x0 DUP1 REVERT JUMPDEST POP GAS STATICCALL ISZERO DUP1 ISZERO PUSH2 0x547A JUMPI RETURNDATASIZE PUSH1 0x0 DUP1 RETURNDATACOPY RETURNDATASIZE PUSH1 0x0 REVERT JUMPDEST POP POP POP POP PUSH1 0x40 MLOAD RETURNDATASIZE PUSH1 0x20 DUP2 LT ISZERO PUSH2 0x5490 JUMPI PUSH1 0x0 DUP1 REVERT JUMPDEST POP MLOAD ISZERO JUMPDEST PUSH2 0x54E9 JUMPI PUSH1 0x40 MLOAD PUSH32 0x8C379A000000000000000000000000000000000000000000000000000000000 DUP2 MSTORE PUSH1 0x4 ADD DUP1 DUP1 PUSH1 0x20 ADD DUP3 DUP2 SUB DUP3 MSTORE PUSH1 0x36 DUP2 MSTORE PUSH1 0x20 ADD DUP1 PUSH2 0x5A22 PUSH1 0x36 SWAP2 CODECOPY PUSH1 0x40 ADD SWAP2 POP POP PUSH1 0x40 MLOAD DUP1 SWAP2 SUB SWAP1 REVERT JUMPDEST PUSH1 0x40 DUP1 MLOAD PUSH20 0xFFFFFFFFFFFFFFFFFFFFFFFFFFFFFFFFFFFFFFFF DUP5 AND PUSH1 0x24 DUP3 ADD MSTORE PUSH1 0x44 DUP1 DUP3 ADD DUP5 SWAP1 MSTORE DUP3 MLOAD DUP1 DUP4 SUB SWAP1 SWAP2 ADD DUP2 MSTORE PUSH1 0x64 SWAP1 SWAP2 ADD SWAP1 SWAP2 MSTORE PUSH1 0x20 DUP2 ADD DUP1 MLOAD PUSH28 0xFFFFFFFFFFFFFFFFFFFFFFFFFFFFFFFFFFFFFFFFFFFFFFFFFFFFFFFF AND PUSH32 0x95EA7B300000000000000000000000000000000000000000000000000000000 OR SWAP1 MSTORE PUSH2 0x1F98 SWAP1 DUP5 SWAP1 PUSH2 0x5310 JUMP JUMPDEST PUSH1 0x60 PUSH2 0x5585 DUP5 DUP5 PUSH1 0x0 DUP6 PUSH2 0x558D JUMP JUMPDEST SWAP5 SWAP4 POP POP POP POP JUMP JUMPDEST PUSH1 0x60 PUSH2 0x5598 DUP6 PUSH2 0x5759 JUMP JUMPDEST PUSH2 0x5603 JUMPI PUSH1 0x40 DUP1 MLOAD PUSH32 0x8C379A000000000000000000000000000000000000000000000000000000000 DUP2 MSTORE PUSH1 0x20 PUSH1 0x4 DUP3 ADD MSTORE PUSH1 0x1D PUSH1 0x24 DUP3 ADD MSTORE PUSH32 0x416464726573733A2063616C6C20746F206E6F6E2D636F6E7472616374000000 PUSH1 0x44 DUP3 ADD MSTORE SWAP1 MLOAD SWAP1 DUP2 SWAP1 SUB PUSH1 0x64 ADD SWAP1 REVERT JUMPDEST PUSH1 0x0 PUSH1 0x60 DUP7 PUSH20 0xFFFFFFFFFFFFFFFFFFFFFFFFFFFFFFFFFFFFFFFF AND DUP6 DUP8 PUSH1 0x40 MLOAD DUP1 DUP3 DUP1 MLOAD SWAP1 PUSH1 0x20 ADD SWAP1 DUP1 DUP4 DUP4 JUMPDEST PUSH1 0x20 DUP4 LT PUSH2 0x566D JUMPI DUP1 MLOAD DUP3 MSTORE PUSH32 0xFFFFFFFFFFFFFFFFFFFFFFFFFFFFFFFFFFFFFFFFFFFFFFFFFFFFFFFFFFFFFFE0 SWAP1 SWAP3 ADD SWAP2 PUSH1 0x20 SWAP2 DUP3 ADD SWAP2 ADD PUSH2 0x5630 JUMP JUMPDEST PUSH1 0x1 DUP4 PUSH1 0x20 SUB PUSH2 0x100 EXP SUB DUP1 NOT DUP3 MLOAD AND DUP2 DUP5 MLOAD AND DUP1 DUP3 OR DUP6 MSTORE POP POP POP POP POP POP SWAP1 POP ADD SWAP2 POP POP PUSH1 0x0 PUSH1 0x40 MLOAD DUP1 DUP4 SUB DUP2 DUP6 DUP8 GAS CALL SWAP3 POP POP POP RETURNDATASIZE DUP1 PUSH1 0x0 DUP2 EQ PUSH2 0x56CF JUMPI PUSH1 0x40 MLOAD SWAP2 POP PUSH1 0x1F NOT PUSH1 0x3F RETURNDATASIZE ADD AND DUP3 ADD PUSH1 0x40 MSTORE RETURNDATASIZE DUP3 MSTORE RETURNDATASIZE PUSH1 0x0 PUSH1 0x20 DUP5 ADD RETURNDATACOPY PUSH2 0x56D4 JUMP JUMPDEST PUSH1 0x60 SWAP2 POP JUMPDEST POP SWAP2 POP SWAP2 POP DUP2 ISZERO PUSH2 0x56E8 JUMPI SWAP2 POP PUSH2 0x5585 SWAP1 POP JUMP JUMPDEST DUP1 MLOAD ISZERO PUSH2 0x56F8 JUMPI DUP1 MLOAD DUP1 DUP3 PUSH1 0x20 ADD REVERT JUMPDEST PUSH1 0x40 MLOAD PUSH32 0x8C379A000000000000000000000000000000000000000000000000000000000 DUP2 MSTORE PUSH1 0x20 PUSH1 0x4 DUP3 ADD DUP2 DUP2 MSTORE DUP7 MLOAD PUSH1 0x24 DUP5 ADD MSTORE DUP7 MLOAD DUP8 SWAP4 SWAP2 SWAP3 DUP4 SWAP3 PUSH1 0x44 ADD SWAP2 SWAP1 DUP6 ADD SWAP1 DUP1 DUP4 DUP4 PUSH1 0x0 DUP4 ISZERO PUSH2 0x524B JUMPI DUP2 DUP2 ADD MLOAD DUP4 DUP3 ADD MSTORE PUSH1 0x20 ADD PUSH2 0x5233 JUMP JUMPDEST EXTCODESIZE ISZERO ISZERO SWAP1 JUMP JUMPDEST DUP3 DUP1 SLOAD DUP3 DUP3 SSTORE SWAP1 PUSH1 0x0 MSTORE PUSH1 0x20 PUSH1 0x0 KECCAK256 SWAP1 DUP2 ADD SWAP3 DUP3 ISZERO PUSH2 0x57A9 JUMPI SWAP2 PUSH1 0x20 MUL DUP3 ADD JUMPDEST DUP3 DUP2 GT ISZERO PUSH2 0x57A9 JUMPI DUP3 MLOAD DUP3 SWAP1 PUSH11 0xFFFFFFFFFFFFFFFFFFFFFF AND SWAP1 SSTORE SWAP2 PUSH1 0x20 ADD SWAP2 SWAP1 PUSH1 0x1 ADD SWAP1 PUSH2 0x577F JUMP JUMPDEST POP PUSH2 0xF4E SWAP3 SWAP2 POP PUSH2 0x57F6 JUMP JUMPDEST DUP3 DUP1 SLOAD DUP3 DUP3 SSTORE SWAP1 PUSH1 0x0 MSTORE PUSH1 0x20 PUSH1 0x0 KECCAK256 SWAP1 DUP2 ADD SWAP3 DUP3 ISZERO PUSH2 0x57A9 JUMPI SWAP2 PUSH1 0x20 MUL DUP3 ADD JUMPDEST DUP3 DUP2 GT ISZERO PUSH2 0x57A9 JUMPI DUP3 MLOAD DUP3 SWAP1 PUSH2 0xFFFF AND SWAP1 SSTORE SWAP2 PUSH1 0x20 ADD SWAP2 SWAP1 PUSH1 0x1 ADD SWAP1 PUSH2 0x57D5 JUMP JUMPDEST JUMPDEST DUP1 DUP3 GT ISZERO PUSH2 0xF4E JUMPI PUSH1 0x0 DUP2 SSTORE PUSH1 0x1 ADD PUSH2 0x57F7 JUMP INVALID 0x5F PUSH17 0x72656D69756D5468726573686F6C642065 PUSH25 0x636565647320746F6D6250726963654365696C696E67547265 PUSH2 0x7375 PUSH19 0x793A2063616E6E6F742072656465656D20626F PUSH15 0x64732077697468207A65726F20616D PUSH16 0x756E7454726561737572793A20666169 PUSH13 0x656420746F20636F6E73756C74 KECCAK256 SLOAD 0x4F 0x4D TIMESTAMP KECCAK256 PUSH17 0x726963652066726F6D20746865206F7261 PUSH4 0x6C655F70 PUSH19 0x656D69756D5468726573686F6C642069732068 PUSH10 0x67686572207468616E20 BALANCE 0x2E CALLDATALOAD SLOAD PUSH19 0x6561737572793A207472656173757279206861 PUSH20 0x206E6F206D6F726520627564676574536166654D PUSH2 0x7468 GASPRICE KECCAK256 PUSH14 0x756C7469706C69636174696F6E20 PUSH16 0x766572666C6F7754726561737572793A KECCAK256 PUSH4 0x616E6E6F PUSH21 0x20707572636861736520626F6E6473207769746820 PUSH27 0x65726F20616D6F756E745F6D696E74696E67466163746F72466F72 POP PUSH2 0x7969 PUSH15 0x67446562743A206F7574206F662072 PUSH2 0x6E67 PUSH6 0x5F6D61785375 PUSH17 0x706C79457870616E73696F6E5065726365 PUSH15 0x743A206F7574206F662072616E6765 0x49 PUSH15 0x6465782068617320746F206265206C PUSH16 0x776572207468616E20636F756E74206F PUSH7 0x20746965727354 PUSH19 0x6561737572793A2063616C6C6572206973206E PUSH16 0x7420746865206F70657261746F725361 PUSH7 0x6545524332303A KECCAK256 GASLIMIT MSTORE NUMBER ORIGIN ADDRESS KECCAK256 PUSH16 0x7065726174696F6E20646964206E6F74 KECCAK256 PUSH20 0x756363656564436F6E747261637447756172643A KECCAK256 PUSH16 0x6E6520626C6F636B2C206F6E65206675 PUSH15 0x6374696F6E5361666545524332303A KECCAK256 PUSH2 0x7070 PUSH19 0x6F76652066726F6D206E6F6E2D7A65726F2074 PUSH16 0x206E6F6E2D7A65726F20616C6C6F7761 PUSH15 0x636554726561737572793A20746F6D PUSH3 0x507269 PUSH4 0x65206E6F PUSH21 0x20656C696769626C6520666F7220626F6E64207075 PUSH19 0x636861736554726561737572793A206E6F7420 PUSH6 0x6E6F75676820 PUSH3 0x6F6E64 KECCAK256 PUSH13 0x65667420746F20707572636861 PUSH20 0x655F626F6F747374726170537570706C79457870 PUSH2 0x6E73 PUSH10 0x6F6E50657263656E743A KECCAK256 PUSH16 0x7574206F662072616E6765A264697066 PUSH20 0x582212208D2357739D0ECDC3B9FA4DB4D68EB1BC SELFDESTRUCT DUP3 LOG0 SWAP13 ORIGIN 0xD8 SWAP2 DUP6 BYTE CODESIZE DUP4 PUSH15 0x63A9908364736F6C634300060C0033 "
		},
		"gasEstimates": {
			"creation": {
				"codeDepositCost": "4663800",
				"executionCost": "36301",
				"totalCost": "4700101"
			},
			"external": {
				"PERIOD()": "309",
				"allocateSeigniorage()": "infinite",
				"bondDepletionFloorPercent()": "1067",
				"bootstrapEpochs()": "1086",
				"bootstrapSupplyExpansionPercent()": "1089",
				"buyBonds(uint256,uint256)": "infinite",
				"daoFund()": "1148",
				"daoFundSharedPercent()": "1088",
				"devFund()": "1126",
				"devFundSharedPercent()": "1068",
				"discountPercent()": "1089",
				"epoch()": "1066",
				"epochSupplyContractionLeft()": "1130",
				"getBondDiscountRate()": "infinite",
				"getBondPremiumRate()": "infinite",
				"getBurnableTombLeft()": "infinite",
				"getRedeemableBonds()": "infinite",
				"getReserve()": "1066",
				"getTombPrice()": "infinite",
				"getTombUpdatedPrice()": "infinite",
				"governanceRecoverUnsupported(address,uint256,address)": "infinite",
				"initialize(address,address,address,address,address,uint256)": "infinite",
				"initialized()": "1112",
				"isInitialized()": "1111",
				"masonry()": "1103",
				"masonryAllocateSeigniorage(uint256)": "infinite",
				"masonryGovernanceRecoverUnsupported(address,uint256,address)": "infinite",
				"masonrySetLockUp(uint256,uint256)": "infinite",
				"masonrySetOperator(address)": "infinite",
				"maxDebtRatioPercent()": "1131",
				"maxDiscountRate()": "1131",
				"maxExpansionTiers(uint256)": "2065",
				"maxPremiumRate()": "1111",
				"maxSupplyContractionPercent()": "1087",
				"maxSupplyExpansionPercent()": "1109",
				"mintingFactorForPayingDebt()": "1132",
				"nextEpochPoint()": "infinite",
				"operator()": "1125",
				"premiumPercent()": "1087",
				"premiumThreshold()": "1109",
				"previousEpochTombPrice()": "1110",
				"redeemBonds(uint256,uint256)": "infinite",
				"seigniorageExpansionFloorPercent()": "1133",
				"seigniorageSaved()": "1088",
				"setBondDepletionFloorPercent(uint256)": "infinite",
				"setBootstrap(uint256,uint256)": "infinite",
				"setDiscountPercent(uint256)": "infinite",
				"setExtraFunds(address,uint256,address,uint256)": "infinite",
				"setMasonry(address)": "infinite",
				"setMaxDebtRatioPercent(uint256)": "infinite",
				"setMaxDiscountRate(uint256)": "infinite",
				"setMaxExpansionTiersEntry(uint8,uint256)": "infinite",
				"setMaxPremiumRate(uint256)": "infinite",
				"setMaxSupplyContractionPercent(uint256)": "infinite",
				"setMaxSupplyExpansionPercents(uint256)": "infinite",
				"setMintingFactorForPayingDebt(uint256)": "infinite",
				"setOperator(address)": "infinite",
				"setPremiumPercent(uint256)": "infinite",
				"setPremiumThreshold(uint256)": "infinite",
				"setSupplyTiersEntry(uint8,uint256)": "infinite",
				"setTombOracle(address)": "infinite",
				"setTombPriceCeiling(uint256)": "infinite",
				"startTime()": "1131",
				"supplyTiers(uint256)": "2043",
				"tbond()": "1081",
				"tomb()": "1147",
				"tombOracle()": "1123",
				"tombPriceCeiling()": "1111",
				"tombPriceOne()": "1089",
				"tshare()": "1124"
			},
			"internal": {
				"_calculateMaxSupplyExpansionPercent(uint256)": "infinite",
				"_sendToMasonry(uint256)": "infinite",
				"_updateTombPrice()": "infinite"
			}
		},
		"methodIdentifiers": {
			"PERIOD()": "b4d1d795",
			"allocateSeigniorage()": "5b756179",
			"bondDepletionFloorPercent()": "81d11eaf",
			"bootstrapEpochs()": "f14698de",
			"bootstrapSupplyExpansionPercent()": "874106cc",
			"buyBonds(uint256,uint256)": "54f04a11",
			"daoFund()": "8d934f74",
			"daoFundSharedPercent()": "55ebdeef",
			"devFund()": "4390d2a8",
			"devFundSharedPercent()": "03be7e76",
			"discountPercent()": "29ef1919",
			"epoch()": "900cf0cf",
			"epochSupplyContractionLeft()": "fcb6f008",
			"getBondDiscountRate()": "0cf60175",
			"getBondPremiumRate()": "0db7eb0b",
			"getBurnableTombLeft()": "0cac939c",
			"getRedeemableBonds()": "72c054f9",
			"getReserve()": "59bf5d39",
			"getTombPrice()": "09bb4f92",
			"getTombUpdatedPrice()": "c5cc772d",
			"governanceRecoverUnsupported(address,uint256,address)": "54575af4",
			"initialize(address,address,address,address,address,uint256)": "95b6ef0c",
			"initialized()": "158ef93e",
			"isInitialized()": "392e53cd",
			"masonry()": "63f96cf4",
			"masonryAllocateSeigniorage(uint256)": "be266d54",
			"masonryGovernanceRecoverUnsupported(address,uint256,address)": "951357d4",
			"masonrySetLockUp(uint256,uint256)": "734f7096",
			"masonrySetOperator(address)": "62ac58e4",
			"maxDebtRatioPercent()": "da3ed419",
			"maxDiscountRate()": "b8a878f9",
			"maxExpansionTiers(uint256)": "a0487eea",
			"maxPremiumRate()": "2e9c7b65",
			"maxSupplyContractionPercent()": "e90b2454",
			"maxSupplyExpansionPercent()": "d98f2495",
			"mintingFactorForPayingDebt()": "4013a08e",
			"nextEpochPoint()": "c5967c26",
			"operator()": "570ca735",
			"premiumPercent()": "c8412d02",
			"premiumThreshold()": "c8f987f3",
			"previousEpochTombPrice()": "b3406cfc",
			"redeemBonds(uint256,uint256)": "118ebbf9",
			"seigniorageExpansionFloorPercent()": "22f832cd",
			"seigniorageSaved()": "5a0fc79c",
			"setBondDepletionFloorPercent(uint256)": "8c664db6",
			"setBootstrap(uint256,uint256)": "91bbfed5",
			"setDiscountPercent(uint256)": "154ec2db",
			"setExtraFunds(address,uint256,address,uint256)": "bcc81f19",
			"setMasonry(address)": "d5d3b26c",
			"setMaxDebtRatioPercent(uint256)": "591663e1",
			"setMaxDiscountRate(uint256)": "98b762a1",
			"setMaxExpansionTiersEntry(uint8,uint256)": "d4b14944",
			"setMaxPremiumRate(uint256)": "a204452b",
			"setMaxSupplyContractionPercent(uint256)": "cecce38e",
			"setMaxSupplyExpansionPercents(uint256)": "0b5bcec7",
			"setMintingFactorForPayingDebt(uint256)": "499f3f19",
			"setOperator(address)": "b3ab15fb",
			"setPremiumPercent(uint256)": "40af7ba5",
			"setPremiumThreshold(uint256)": "04e5c7b1",
			"setSupplyTiersEntry(uint8,uint256)": "940e6064",
			"setTombOracle(address)": "75be5ae1",
			"setTombPriceCeiling(uint256)": "3ed9ae25",
			"startTime()": "78e97925",
			"supplyTiers(uint256)": "99820025",
			"tbond()": "b981cdf3",
			"tomb()": "c040f23a",
			"tombOracle()": "f7741103",
			"tombPriceCeiling()": "19a98349",
			"tombPriceOne()": "4294cf8e",
			"tshare()": "ee6822a7"
		}
	},
	"abi": [
		{
			"anonymous": false,
			"inputs": [
				{
					"indexed": true,
					"internalType": "address",
					"name": "from",
					"type": "address"
				},
				{
					"indexed": false,
					"internalType": "uint256",
					"name": "tombAmount",
					"type": "uint256"
				},
				{
					"indexed": false,
					"internalType": "uint256",
					"name": "bondAmount",
					"type": "uint256"
				}
			],
			"name": "BoughtBonds",
			"type": "event"
		},
		{
			"anonymous": false,
			"inputs": [
				{
					"indexed": true,
					"internalType": "address",
					"name": "from",
					"type": "address"
				},
				{
					"indexed": false,
					"internalType": "uint256",
					"name": "bondAmount",
					"type": "uint256"
				}
			],
			"name": "BurnedBonds",
			"type": "event"
		},
		{
			"anonymous": false,
			"inputs": [
				{
					"indexed": false,
					"internalType": "uint256",
					"name": "timestamp",
					"type": "uint256"
				},
				{
					"indexed": false,
					"internalType": "uint256",
					"name": "seigniorage",
					"type": "uint256"
				}
			],
			"name": "DaoFundFunded",
			"type": "event"
		},
		{
			"anonymous": false,
			"inputs": [
				{
					"indexed": false,
					"internalType": "uint256",
					"name": "timestamp",
					"type": "uint256"
				},
				{
					"indexed": false,
					"internalType": "uint256",
					"name": "seigniorage",
					"type": "uint256"
				}
			],
			"name": "DevFundFunded",
			"type": "event"
		},
		{
			"anonymous": false,
			"inputs": [
				{
					"indexed": true,
					"internalType": "address",
					"name": "executor",
					"type": "address"
				},
				{
					"indexed": false,
					"internalType": "uint256",
					"name": "at",
					"type": "uint256"
				}
			],
			"name": "Initialized",
			"type": "event"
		},
		{
			"anonymous": false,
			"inputs": [
				{
					"indexed": false,
					"internalType": "uint256",
					"name": "timestamp",
					"type": "uint256"
				},
				{
					"indexed": false,
					"internalType": "uint256",
					"name": "seigniorage",
					"type": "uint256"
				}
			],
			"name": "MasonryFunded",
			"type": "event"
		},
		{
			"anonymous": false,
			"inputs": [
				{
					"indexed": true,
					"internalType": "address",
					"name": "from",
					"type": "address"
				},
				{
					"indexed": false,
					"internalType": "uint256",
					"name": "tombAmount",
					"type": "uint256"
				},
				{
					"indexed": false,
					"internalType": "uint256",
					"name": "bondAmount",
					"type": "uint256"
				}
			],
			"name": "RedeemedBonds",
			"type": "event"
		},
		{
			"anonymous": false,
			"inputs": [
				{
					"indexed": false,
					"internalType": "uint256",
					"name": "timestamp",
					"type": "uint256"
				},
				{
					"indexed": false,
					"internalType": "uint256",
					"name": "seigniorage",
					"type": "uint256"
				}
			],
			"name": "TreasuryFunded",
			"type": "event"
		},
		{
			"inputs": [],
			"name": "PERIOD",
			"outputs": [
				{
					"internalType": "uint256",
					"name": "",
					"type": "uint256"
				}
			],
			"stateMutability": "view",
			"type": "function"
		},
		{
			"inputs": [],
			"name": "allocateSeigniorage",
			"outputs": [],
			"stateMutability": "nonpayable",
			"type": "function"
		},
		{
			"inputs": [],
			"name": "bondDepletionFloorPercent",
			"outputs": [
				{
					"internalType": "uint256",
					"name": "",
					"type": "uint256"
				}
			],
			"stateMutability": "view",
			"type": "function"
		},
		{
			"inputs": [],
			"name": "bootstrapEpochs",
			"outputs": [
				{
					"internalType": "uint256",
					"name": "",
					"type": "uint256"
				}
			],
			"stateMutability": "view",
			"type": "function"
		},
		{
			"inputs": [],
			"name": "bootstrapSupplyExpansionPercent",
			"outputs": [
				{
					"internalType": "uint256",
					"name": "",
					"type": "uint256"
				}
			],
			"stateMutability": "view",
			"type": "function"
		},
		{
			"inputs": [
				{
					"internalType": "uint256",
					"name": "_tombAmount",
					"type": "uint256"
				},
				{
					"internalType": "uint256",
					"name": "targetPrice",
					"type": "uint256"
				}
			],
			"name": "buyBonds",
			"outputs": [],
			"stateMutability": "nonpayable",
			"type": "function"
		},
		{
			"inputs": [],
			"name": "daoFund",
			"outputs": [
				{
					"internalType": "address",
					"name": "",
					"type": "address"
				}
			],
			"stateMutability": "view",
			"type": "function"
		},
		{
			"inputs": [],
			"name": "daoFundSharedPercent",
			"outputs": [
				{
					"internalType": "uint256",
					"name": "",
					"type": "uint256"
				}
			],
			"stateMutability": "view",
			"type": "function"
		},
		{
			"inputs": [],
			"name": "devFund",
			"outputs": [
				{
					"internalType": "address",
					"name": "",
					"type": "address"
				}
			],
			"stateMutability": "view",
			"type": "function"
		},
		{
			"inputs": [],
			"name": "devFundSharedPercent",
			"outputs": [
				{
					"internalType": "uint256",
					"name": "",
					"type": "uint256"
				}
			],
			"stateMutability": "view",
			"type": "function"
		},
		{
			"inputs": [],
			"name": "discountPercent",
			"outputs": [
				{
					"internalType": "uint256",
					"name": "",
					"type": "uint256"
				}
			],
			"stateMutability": "view",
			"type": "function"
		},
		{
			"inputs": [],
			"name": "epoch",
			"outputs": [
				{
					"internalType": "uint256",
					"name": "",
					"type": "uint256"
				}
			],
			"stateMutability": "view",
			"type": "function"
		},
		{
			"inputs": [],
			"name": "epochSupplyContractionLeft",
			"outputs": [
				{
					"internalType": "uint256",
					"name": "",
					"type": "uint256"
				}
			],
			"stateMutability": "view",
			"type": "function"
		},
		{
			"inputs": [],
			"name": "getBondDiscountRate",
			"outputs": [
				{
					"internalType": "uint256",
					"name": "_rate",
					"type": "uint256"
				}
			],
			"stateMutability": "view",
			"type": "function"
		},
		{
			"inputs": [],
			"name": "getBondPremiumRate",
			"outputs": [
				{
					"internalType": "uint256",
					"name": "_rate",
					"type": "uint256"
				}
			],
			"stateMutability": "view",
			"type": "function"
		},
		{
			"inputs": [],
			"name": "getBurnableTombLeft",
			"outputs": [
				{
					"internalType": "uint256",
					"name": "_burnableTombLeft",
					"type": "uint256"
				}
			],
			"stateMutability": "view",
			"type": "function"
		},
		{
			"inputs": [],
			"name": "getRedeemableBonds",
			"outputs": [
				{
					"internalType": "uint256",
					"name": "_redeemableBonds",
					"type": "uint256"
				}
			],
			"stateMutability": "view",
			"type": "function"
		},
		{
			"inputs": [],
			"name": "getReserve",
			"outputs": [
				{
					"internalType": "uint256",
					"name": "",
					"type": "uint256"
				}
			],
			"stateMutability": "view",
			"type": "function"
		},
		{
			"inputs": [],
			"name": "getTombPrice",
			"outputs": [
				{
					"internalType": "uint256",
					"name": "tombPrice",
					"type": "uint256"
				}
			],
			"stateMutability": "view",
			"type": "function"
		},
		{
			"inputs": [],
			"name": "getTombUpdatedPrice",
			"outputs": [
				{
					"internalType": "uint256",
					"name": "_tombPrice",
					"type": "uint256"
				}
			],
			"stateMutability": "view",
			"type": "function"
		},
		{
			"inputs": [
				{
					"internalType": "contract IERC20",
					"name": "_token",
					"type": "address"
				},
				{
					"internalType": "uint256",
					"name": "_amount",
					"type": "uint256"
				},
				{
					"internalType": "address",
					"name": "_to",
					"type": "address"
				}
			],
			"name": "governanceRecoverUnsupported",
			"outputs": [],
			"stateMutability": "nonpayable",
			"type": "function"
		},
		{
			"inputs": [
				{
					"internalType": "address",
					"name": "_tomb",
					"type": "address"
				},
				{
					"internalType": "address",
					"name": "_tbond",
					"type": "address"
				},
				{
					"internalType": "address",
					"name": "_tshare",
					"type": "address"
				},
				{
					"internalType": "address",
					"name": "_tombOracle",
					"type": "address"
				},
				{
					"internalType": "address",
					"name": "_masonry",
					"type": "address"
				},
				{
					"internalType": "uint256",
					"name": "_startTime",
					"type": "uint256"
				}
			],
			"name": "initialize",
			"outputs": [],
			"stateMutability": "nonpayable",
			"type": "function"
		},
		{
			"inputs": [],
			"name": "initialized",
			"outputs": [
				{
					"internalType": "bool",
					"name": "",
					"type": "bool"
				}
			],
			"stateMutability": "view",
			"type": "function"
		},
		{
			"inputs": [],
			"name": "isInitialized",
			"outputs": [
				{
					"internalType": "bool",
					"name": "",
					"type": "bool"
				}
			],
			"stateMutability": "view",
			"type": "function"
		},
		{
			"inputs": [],
			"name": "masonry",
			"outputs": [
				{
					"internalType": "address",
					"name": "",
					"type": "address"
				}
			],
			"stateMutability": "view",
			"type": "function"
		},
		{
			"inputs": [
				{
					"internalType": "uint256",
					"name": "amount",
					"type": "uint256"
				}
			],
			"name": "masonryAllocateSeigniorage",
			"outputs": [],
			"stateMutability": "nonpayable",
			"type": "function"
		},
		{
			"inputs": [
				{
					"internalType": "address",
					"name": "_token",
					"type": "address"
				},
				{
					"internalType": "uint256",
					"name": "_amount",
					"type": "uint256"
				},
				{
					"internalType": "address",
					"name": "_to",
					"type": "address"
				}
			],
			"name": "masonryGovernanceRecoverUnsupported",
			"outputs": [],
			"stateMutability": "nonpayable",
			"type": "function"
		},
		{
			"inputs": [
				{
					"internalType": "uint256",
					"name": "_withdrawLockupEpochs",
					"type": "uint256"
				},
				{
					"internalType": "uint256",
					"name": "_rewardLockupEpochs",
					"type": "uint256"
				}
			],
			"name": "masonrySetLockUp",
			"outputs": [],
			"stateMutability": "nonpayable",
			"type": "function"
		},
		{
			"inputs": [
				{
					"internalType": "address",
					"name": "_operator",
					"type": "address"
				}
			],
			"name": "masonrySetOperator",
			"outputs": [],
			"stateMutability": "nonpayable",
			"type": "function"
		},
		{
			"inputs": [],
			"name": "maxDebtRatioPercent",
			"outputs": [
				{
					"internalType": "uint256",
					"name": "",
					"type": "uint256"
				}
			],
			"stateMutability": "view",
			"type": "function"
		},
		{
			"inputs": [],
			"name": "maxDiscountRate",
			"outputs": [
				{
					"internalType": "uint256",
					"name": "",
					"type": "uint256"
				}
			],
			"stateMutability": "view",
			"type": "function"
		},
		{
			"inputs": [
				{
					"internalType": "uint256",
					"name": "",
					"type": "uint256"
				}
			],
			"name": "maxExpansionTiers",
			"outputs": [
				{
					"internalType": "uint256",
					"name": "",
					"type": "uint256"
				}
			],
			"stateMutability": "view",
			"type": "function"
		},
		{
			"inputs": [],
			"name": "maxPremiumRate",
			"outputs": [
				{
					"internalType": "uint256",
					"name": "",
					"type": "uint256"
				}
			],
			"stateMutability": "view",
			"type": "function"
		},
		{
			"inputs": [],
			"name": "maxSupplyContractionPercent",
			"outputs": [
				{
					"internalType": "uint256",
					"name": "",
					"type": "uint256"
				}
			],
			"stateMutability": "view",
			"type": "function"
		},
		{
			"inputs": [],
			"name": "maxSupplyExpansionPercent",
			"outputs": [
				{
					"internalType": "uint256",
					"name": "",
					"type": "uint256"
				}
			],
			"stateMutability": "view",
			"type": "function"
		},
		{
			"inputs": [],
			"name": "mintingFactorForPayingDebt",
			"outputs": [
				{
					"internalType": "uint256",
					"name": "",
					"type": "uint256"
				}
			],
			"stateMutability": "view",
			"type": "function"
		},
		{
			"inputs": [],
			"name": "nextEpochPoint",
			"outputs": [
				{
					"internalType": "uint256",
					"name": "",
					"type": "uint256"
				}
			],
			"stateMutability": "view",
			"type": "function"
		},
		{
			"inputs": [],
			"name": "operator",
			"outputs": [
				{
					"internalType": "address",
					"name": "",
					"type": "address"
				}
			],
			"stateMutability": "view",
			"type": "function"
		},
		{
			"inputs": [],
			"name": "premiumPercent",
			"outputs": [
				{
					"internalType": "uint256",
					"name": "",
					"type": "uint256"
				}
			],
			"stateMutability": "view",
			"type": "function"
		},
		{
			"inputs": [],
			"name": "premiumThreshold",
			"outputs": [
				{
					"internalType": "uint256",
					"name": "",
					"type": "uint256"
				}
			],
			"stateMutability": "view",
			"type": "function"
		},
		{
			"inputs": [],
			"name": "previousEpochTombPrice",
			"outputs": [
				{
					"internalType": "uint256",
					"name": "",
					"type": "uint256"
				}
			],
			"stateMutability": "view",
			"type": "function"
		},
		{
			"inputs": [
				{
					"internalType": "uint256",
					"name": "_bondAmount",
					"type": "uint256"
				},
				{
					"internalType": "uint256",
					"name": "targetPrice",
					"type": "uint256"
				}
			],
			"name": "redeemBonds",
			"outputs": [],
			"stateMutability": "nonpayable",
			"type": "function"
		},
		{
			"inputs": [],
			"name": "seigniorageExpansionFloorPercent",
			"outputs": [
				{
					"internalType": "uint256",
					"name": "",
					"type": "uint256"
				}
			],
			"stateMutability": "view",
			"type": "function"
		},
		{
			"inputs": [],
			"name": "seigniorageSaved",
			"outputs": [
				{
					"internalType": "uint256",
					"name": "",
					"type": "uint256"
				}
			],
			"stateMutability": "view",
			"type": "function"
		},
		{
			"inputs": [
				{
					"internalType": "uint256",
					"name": "_bondDepletionFloorPercent",
					"type": "uint256"
				}
			],
			"name": "setBondDepletionFloorPercent",
			"outputs": [],
			"stateMutability": "nonpayable",
			"type": "function"
		},
		{
			"inputs": [
				{
					"internalType": "uint256",
					"name": "_bootstrapEpochs",
					"type": "uint256"
				},
				{
					"internalType": "uint256",
					"name": "_bootstrapSupplyExpansionPercent",
					"type": "uint256"
				}
			],
			"name": "setBootstrap",
			"outputs": [],
			"stateMutability": "nonpayable",
			"type": "function"
		},
		{
			"inputs": [
				{
					"internalType": "uint256",
					"name": "_discountPercent",
					"type": "uint256"
				}
			],
			"name": "setDiscountPercent",
			"outputs": [],
			"stateMutability": "nonpayable",
			"type": "function"
		},
		{
			"inputs": [
				{
					"internalType": "address",
					"name": "_daoFund",
					"type": "address"
				},
				{
					"internalType": "uint256",
					"name": "_daoFundSharedPercent",
					"type": "uint256"
				},
				{
					"internalType": "address",
					"name": "_devFund",
					"type": "address"
				},
				{
					"internalType": "uint256",
					"name": "_devFundSharedPercent",
					"type": "uint256"
				}
			],
			"name": "setExtraFunds",
			"outputs": [],
			"stateMutability": "nonpayable",
			"type": "function"
		},
		{
			"inputs": [
				{
					"internalType": "address",
					"name": "_masonry",
					"type": "address"
				}
			],
			"name": "setMasonry",
			"outputs": [],
			"stateMutability": "nonpayable",
			"type": "function"
		},
		{
			"inputs": [
				{
					"internalType": "uint256",
					"name": "_maxDebtRatioPercent",
					"type": "uint256"
				}
			],
			"name": "setMaxDebtRatioPercent",
			"outputs": [],
			"stateMutability": "nonpayable",
			"type": "function"
		},
		{
			"inputs": [
				{
					"internalType": "uint256",
					"name": "_maxDiscountRate",
					"type": "uint256"
				}
			],
			"name": "setMaxDiscountRate",
			"outputs": [],
			"stateMutability": "nonpayable",
			"type": "function"
		},
		{
			"inputs": [
				{
					"internalType": "uint8",
					"name": "_index",
					"type": "uint8"
				},
				{
					"internalType": "uint256",
					"name": "_value",
					"type": "uint256"
				}
			],
			"name": "setMaxExpansionTiersEntry",
			"outputs": [
				{
					"internalType": "bool",
					"name": "",
					"type": "bool"
				}
			],
			"stateMutability": "nonpayable",
			"type": "function"
		},
		{
			"inputs": [
				{
					"internalType": "uint256",
					"name": "_maxPremiumRate",
					"type": "uint256"
				}
			],
			"name": "setMaxPremiumRate",
			"outputs": [],
			"stateMutability": "nonpayable",
			"type": "function"
		},
		{
			"inputs": [
				{
					"internalType": "uint256",
					"name": "_maxSupplyContractionPercent",
					"type": "uint256"
				}
			],
			"name": "setMaxSupplyContractionPercent",
			"outputs": [],
			"stateMutability": "nonpayable",
			"type": "function"
		},
		{
			"inputs": [
				{
					"internalType": "uint256",
					"name": "_maxSupplyExpansionPercent",
					"type": "uint256"
				}
			],
			"name": "setMaxSupplyExpansionPercents",
			"outputs": [],
			"stateMutability": "nonpayable",
			"type": "function"
		},
		{
			"inputs": [
				{
					"internalType": "uint256",
					"name": "_mintingFactorForPayingDebt",
					"type": "uint256"
				}
			],
			"name": "setMintingFactorForPayingDebt",
			"outputs": [],
			"stateMutability": "nonpayable",
			"type": "function"
		},
		{
			"inputs": [
				{
					"internalType": "address",
					"name": "_operator",
					"type": "address"
				}
			],
			"name": "setOperator",
			"outputs": [],
			"stateMutability": "nonpayable",
			"type": "function"
		},
		{
			"inputs": [
				{
					"internalType": "uint256",
					"name": "_premiumPercent",
					"type": "uint256"
				}
			],
			"name": "setPremiumPercent",
			"outputs": [],
			"stateMutability": "nonpayable",
			"type": "function"
		},
		{
			"inputs": [
				{
					"internalType": "uint256",
					"name": "_premiumThreshold",
					"type": "uint256"
				}
			],
			"name": "setPremiumThreshold",
			"outputs": [],
			"stateMutability": "nonpayable",
			"type": "function"
		},
		{
			"inputs": [
				{
					"internalType": "uint8",
					"name": "_index",
					"type": "uint8"
				},
				{
					"internalType": "uint256",
					"name": "_value",
					"type": "uint256"
				}
			],
			"name": "setSupplyTiersEntry",
			"outputs": [
				{
					"internalType": "bool",
					"name": "",
					"type": "bool"
				}
			],
			"stateMutability": "nonpayable",
			"type": "function"
		},
		{
			"inputs": [
				{
					"internalType": "address",
					"name": "_tombOracle",
					"type": "address"
				}
			],
			"name": "setTombOracle",
			"outputs": [],
			"stateMutability": "nonpayable",
			"type": "function"
		},
		{
			"inputs": [
				{
					"internalType": "uint256",
					"name": "_tombPriceCeiling",
					"type": "uint256"
				}
			],
			"name": "setTombPriceCeiling",
			"outputs": [],
			"stateMutability": "nonpayable",
			"type": "function"
		},
		{
			"inputs": [],
			"name": "startTime",
			"outputs": [
				{
					"internalType": "uint256",
					"name": "",
					"type": "uint256"
				}
			],
			"stateMutability": "view",
			"type": "function"
		},
		{
			"inputs": [
				{
					"internalType": "uint256",
					"name": "",
					"type": "uint256"
				}
			],
			"name": "supplyTiers",
			"outputs": [
				{
					"internalType": "uint256",
					"name": "",
					"type": "uint256"
				}
			],
			"stateMutability": "view",
			"type": "function"
		},
		{
			"inputs": [],
			"name": "tbond",
			"outputs": [
				{
					"internalType": "address",
					"name": "",
					"type": "address"
				}
			],
			"stateMutability": "view",
			"type": "function"
		},
		{
			"inputs": [],
			"name": "tomb",
			"outputs": [
				{
					"internalType": "address",
					"name": "",
					"type": "address"
				}
			],
			"stateMutability": "view",
			"type": "function"
		},
		{
			"inputs": [],
			"name": "tombOracle",
			"outputs": [
				{
					"internalType": "address",
					"name": "",
					"type": "address"
				}
			],
			"stateMutability": "view",
			"type": "function"
		},
		{
			"inputs": [],
			"name": "tombPriceCeiling",
			"outputs": [
				{
					"internalType": "uint256",
					"name": "",
					"type": "uint256"
				}
			],
			"stateMutability": "view",
			"type": "function"
		},
		{
			"inputs": [],
			"name": "tombPriceOne",
			"outputs": [
				{
					"internalType": "uint256",
					"name": "",
					"type": "uint256"
				}
			],
			"stateMutability": "view",
			"type": "function"
		},
		{
			"inputs": [],
			"name": "tshare",
			"outputs": [
				{
					"internalType": "address",
					"name": "",
					"type": "address"
				}
			],
			"stateMutability": "view",
			"type": "function"
		}
	]
}